{
  "contractName": "Activatable",
  "abi": [
    {
      "constant": true,
      "inputs": [],
      "name": "activated",
      "outputs": [
        {
          "name": "",
          "type": "bool"
        }
      ],
      "payable": false,
      "stateMutability": "view",
      "type": "function"
    },
    {
      "constant": false,
      "inputs": [],
      "name": "activate",
      "outputs": [
        {
          "name": "",
          "type": "bool"
        }
      ],
      "payable": false,
      "stateMutability": "nonpayable",
      "type": "function"
    }
  ],
  "bytecode": "0x608060405234801561001057600080fd5b5060cd8061001f6000396000f30060806040526004361060485763ffffffff7c01000000000000000000000000000000000000000000000000000000006000350416630f15f4c08114604d578063186601ca146073575b600080fd5b348015605857600080fd5b50605f6085565b604080519115158252519081900360200190f35b348015607e57600080fd5b50605f6098565b6000805460ff1916600190811790915590565b60005460ff16815600a165627a7a723058202f24ef30c807e730c11e8d6f25a1560fc5e612dc2b9a082a809483588a2d0cbe0029",
  "source": "pragma solidity ^0.4.24;\n\ncontract Activatable {\n    bool public activated;\n\n    modifier whenActivated {\n        require(activated);\n        _;\n    }\n\n    modifier whenNotActivated {\n        require(!activated);\n        _;\n    }\n\n    function activate() public returns (bool) {\n        activated = true;\n        return true;\n    }\n}\n",
  "sourcePath": "tokenboost-solidity/contracts/Activatable.sol",
  "compiler": {
    "name": "solc",
    "version": "0.4.24+commit.e67f0147.Emscripten.clang"
  },
  "schemaVersion": "2.0.1",
  "updatedAt": "2018-09-21T11:40:54.208Z"
}