{
  "contractName": "BurnTokensWidgetRenderer",
  "abi": [
    {
      "constant": true,
      "inputs": [],
      "name": "BURN_CONFIRM",
      "outputs": [
        {
          "name": "",
          "type": "string"
        }
      ],
      "payable": false,
      "stateMutability": "view",
      "type": "function"
    },
    {
      "constant": true,
      "inputs": [],
      "name": "BURN_TOKENS",
      "outputs": [
        {
          "name": "",
          "type": "string"
        }
      ],
      "payable": false,
      "stateMutability": "view",
      "type": "function"
    },
    {
      "constant": false,
      "inputs": [],
      "name": "renounceOwnership",
      "outputs": [],
      "payable": false,
      "stateMutability": "nonpayable",
      "type": "function"
    },
    {
      "constant": true,
      "inputs": [],
      "name": "SHORT_DESC",
      "outputs": [
        {
          "name": "",
          "type": "string"
        }
      ],
      "payable": false,
      "stateMutability": "view",
      "type": "function"
    },
    {
      "constant": true,
      "inputs": [],
      "name": "owner",
      "outputs": [
        {
          "name": "",
          "type": "address"
        }
      ],
      "payable": false,
      "stateMutability": "view",
      "type": "function"
    },
    {
      "constant": true,
      "inputs": [],
      "name": "BURNABLE_ETH",
      "outputs": [
        {
          "name": "",
          "type": "string"
        }
      ],
      "payable": false,
      "stateMutability": "view",
      "type": "function"
    },
    {
      "constant": true,
      "inputs": [],
      "name": "LONG_DESC",
      "outputs": [
        {
          "name": "",
          "type": "string"
        }
      ],
      "payable": false,
      "stateMutability": "view",
      "type": "function"
    },
    {
      "constant": true,
      "inputs": [],
      "name": "BURN",
      "outputs": [
        {
          "name": "",
          "type": "string"
        }
      ],
      "payable": false,
      "stateMutability": "view",
      "type": "function"
    },
    {
      "constant": true,
      "inputs": [],
      "name": "AMOUNT",
      "outputs": [
        {
          "name": "",
          "type": "string"
        }
      ],
      "payable": false,
      "stateMutability": "view",
      "type": "function"
    },
    {
      "constant": false,
      "inputs": [
        {
          "name": "locale",
          "type": "string"
        },
        {
          "name": "key",
          "type": "string"
        },
        {
          "name": "value",
          "type": "string"
        }
      ],
      "name": "setResource",
      "outputs": [],
      "payable": false,
      "stateMutability": "nonpayable",
      "type": "function"
    },
    {
      "constant": false,
      "inputs": [
        {
          "name": "_newOwner",
          "type": "address"
        }
      ],
      "name": "transferOwnership",
      "outputs": [],
      "payable": false,
      "stateMutability": "nonpayable",
      "type": "function"
    },
    {
      "constant": true,
      "inputs": [
        {
          "name": "locale",
          "type": "string"
        },
        {
          "name": "key",
          "type": "string"
        }
      ],
      "name": "resource",
      "outputs": [
        {
          "name": "",
          "type": "string"
        }
      ],
      "payable": false,
      "stateMutability": "view",
      "type": "function"
    },
    {
      "anonymous": false,
      "inputs": [
        {
          "indexed": true,
          "name": "previousOwner",
          "type": "address"
        }
      ],
      "name": "OwnershipRenounced",
      "type": "event"
    },
    {
      "anonymous": false,
      "inputs": [
        {
          "indexed": true,
          "name": "previousOwner",
          "type": "address"
        },
        {
          "indexed": true,
          "name": "newOwner",
          "type": "address"
        }
      ],
      "name": "OwnershipTransferred",
      "type": "event"
    },
    {
      "constant": true,
      "inputs": [
        {
          "name": "_locale",
          "type": "string"
        },
        {
          "name": "_token",
          "type": "address"
        }
      ],
      "name": "render",
      "outputs": [
        {
          "name": "",
          "type": "string"
        }
      ],
      "payable": false,
      "stateMutability": "view",
      "type": "function"
    }
  ],
  "bytecode": "0x608060405260008054600160a060020a03191633179055612a58806100256000396000f3006080604052600436106100ab5763ffffffff60e060020a6000350416633ffccf1681146100b0578063644834be1461013a578063715018a61461014f5780638b582712146101665780638da5cb5b1461017b5780639c275a51146101ac578063ac5c6e12146101c1578063c0a2526c146101d6578063ca1a70be146101eb578063d17891761461024f578063ed3487fe14610264578063f2fde38b14610339578063f65a5c1b1461035a575b600080fd5b3480156100bc57600080fd5b506100c56103f1565b6040805160208082528351818301528351919283929083019185019080838360005b838110156100ff5781810151838201526020016100e7565b50505050905090810190601f16801561012c5780820380516001836020036101000a031916815260200191505b509250505060405180910390f35b34801561014657600080fd5b506100c5610428565b34801561015b57600080fd5b5061016461045f565b005b34801561017257600080fd5b506100c56104cb565b34801561018757600080fd5b50610190610502565b60408051600160a060020a039092168252519081900360200190f35b3480156101b857600080fd5b506100c5610511565b3480156101cd57600080fd5b506100c5610548565b3480156101e257600080fd5b506100c561057f565b3480156101f757600080fd5b506040805160206004803580820135601f81018490048402850184019095528484526100c594369492936024939284019190819084018382808284375094975050509235600160a060020a031693506105b692505050565b34801561025b57600080fd5b506100c561162c565b34801561027057600080fd5b506040805160206004803580820135601f810184900484028501840190955284845261016494369492936024939284019190819084018382808284375050604080516020601f89358b018035918201839004830284018301909452808352979a99988101979196509182019450925082915084018382808284375050604080516020601f89358b018035918201839004830284018301909452808352979a9998810197919650918201945092508291508401838280828437509497506116639650505050505050565b34801561034557600080fd5b50610164600160a060020a0360043516611750565b34801561036657600080fd5b506040805160206004803580820135601f81018490048402850184019095528484526100c594369492936024939284019190819084018382808284375050604080516020601f89358b018035918201839004830284018301909452808352979a9998810197919650918201945092508291508401838280828437509497506117739650505050505050565b60408051808201909152600c81527f6275726e5f636f6e6669726d0000000000000000000000000000000000000000602082015281565b60408051808201909152600b81527f6275726e5f746f6b656e73000000000000000000000000000000000000000000602082015281565b600054600160a060020a0316331461047657600080fd5b60008054604051600160a060020a03909116917ff8df31144d9c2f0f6b59d69b8b98abd5459d07f2742c4df920b25aae33c6482091a26000805473ffffffffffffffffffffffffffffffffffffffff19169055565b60408051808201909152600a81527f73686f72745f6465736300000000000000000000000000000000000000000000602082015281565b600054600160a060020a031681565b60408051808201909152600c81527f6275726e61626c655f6574680000000000000000000000000000000000000000602082015281565b60408051808201909152600981527f6c6f6e675f646573630000000000000000000000000000000000000000000000602082015281565b60408051808201909152600481527f6275726e00000000000000000000000000000000000000000000000000000000602082015281565b6060806105c161287d565b83600160a060020a031663a07c7ce46040518163ffffffff1660e060020a028152600401602060405180830381600087803b1580156105ff57600080fd5b505af1158015610613573d6000803e3d6000fd5b505050506040513d602081101561062957600080fd5b5051801561069d575083600160a060020a031663186601ca6040518163ffffffff1660e060020a028152600401602060405180830381600087803b15801561067057600080fd5b505af1158015610684573d6000803e3d6000fd5b505050506040513d602081101561069a57600080fd5b50515b15611612576040805160038082526080820190925290816020015b6106c06128ad565b8152602001906001900390816106b857905050915060e0604051908101604052806001151581526020016040805190810160405280600c81526020017f6275726e61626c655f657468000000000000000000000000000000000000000081525081526020016107ef6107a56107a088600160a060020a031663313ce5676040518163ffffffff1660e060020a028152600401602060405180830381600087803b15801561076c57600080fd5b505af1158015610780573d6000803e3d6000fd5b505050506040513d602081101561079657600080fd5b505160ff166118c4565b611a23565b6107e36040805190810160405280600581526020017f746f6b656e000000000000000000000000000000000000000000000000000000815250611a23565b9063ffffffff611a4c16565b81526020016001876040518082805190602001908083835b602083106108265780518252601f199092019160209182019101610807565b51815160209384036101000a60001901801990921691161790529201948552506040805194859003820185208582018252600c8087527f6275726e61626c655f657468000000000000000000000000000000000000000093870193845291519095945092508291908083835b602083106108b15780518252601f199092019160209182019101610892565b518151600019602094850361010090810a820192831692199390931691909117909252949092019687526040805197889003820188208054601f60026001831615909802909501169590950492830182900482028801820190528187529294509250508301828280156109655780601f1061093a57610100808354040283529160200191610965565b820191906000526020600020905b81548152906001019060200180831161094857829003601f168201915b505050505081526020016109fe86600160a060020a03166370a08231326040518263ffffffff1660e060020a0281526004018082600160a060020a0316600160a060020a03168152602001915050602060405180830381600087803b1580156109cd57600080fd5b505af11580156109e1573d6000803e3d6000fd5b505050506040513d60208110156109f757600080fd5b50516118c4565b8152602001610a0b611ac3565b8152602001610a18611b16565b9052825183906000908110610a2957fe5b9060200190602002018190525060e0604051908101604052806001151581526020016040805190810160405280600681526020017f616d6f756e7400000000000000000000000000000000000000000000000000008152508152602001610b0b610acd6107a088600160a060020a031663313ce5676040518163ffffffff1660e060020a028152600401602060405180830381600087803b15801561076c57600080fd5b6107e36040805190810160405280600981526020017f746f6b656e456469740000000000000000000000000000000000000000000000815250611a23565b81526020016001876040518082805190602001908083835b60208310610b425780518252601f199092019160209182019101610b23565b51815160209384036101000a6000190180199092169116179052920194855250604080519485900382018520858201825260068087527f616d6f756e74000000000000000000000000000000000000000000000000000093870193845291519095945092508291908083835b60208310610bcd5780518252601f199092019160209182019101610bae565b518151600019602094850361010090810a820192831692199390931691909117909252949092019687526040805197889003820188208054601f6002600183161590980290950116959095049283018290048202880182019052818752929450925050830182828015610c815780601f10610c5657610100808354040283529160200191610c81565b820191906000526020600020905b815481529060010190602001808311610c6457829003601f168201915b505050505081526020016040805190810160405280600181526020017f30000000000000000000000000000000000000000000000000000000000000008152508152602001610cce611ac3565b8152602001610cdb611b16565b9052825183906001908110610cec57fe5b9060200190602002018190525060e0604051908101604052806001151581526020016040805190810160405280600481526020017f6275726e0000000000000000000000000000000000000000000000000000000081525081526020016040805190810160405280600681526020017f627574746f6e000000000000000000000000000000000000000000000000000081525081526020016001876040518082805190602001908083835b60208310610db65780518252601f199092019160209182019101610d97565b51815160209384036101000a6000190180199092169116179052920194855250604080519485900382018520858201825260048087527f6275726e0000000000000000000000000000000000000000000000000000000093870193845291519095945092508291908083835b60208310610e415780518252601f199092019160209182019101610e22565b518151600019602094850361010090810a820192831692199390931691909117909252949092019687526040805197889003820188208054601f6002600183161590980290950116959095049283018290048202880182019052818752929450925050830182828015610ef55780601f10610eca57610100808354040283529160200191610ef5565b820191906000526020600020905b815481529060010190602001808311610ed857829003601f168201915b505050505081526020016040805190810160405280600481526020017f6e756c6c00000000000000000000000000000000000000000000000000000000815250815260200160a06040519081016040528060011515815260200187600160a060020a031681526020016040805190810160405280600d81526020017f6275726e2875696e74323536290000000000000000000000000000000000000081525081526020016040805190810160405280600a81526020017f5b22616d6f756e74225d0000000000000000000000000000000000000000000081525081526020016001896040518082805190602001908083835b602083106110065780518252601f199092019160209182019101610fe7565b51815160209384036101000a60001901801990921691161790529201948552506040805194859003820185208582018252600c8087527f6275726e5f636f6e6669726d000000000000000000000000000000000000000093870193845291519095945092508291908083835b602083106110915780518252601f199092019160209182019101611072565b518151600019602094850361010090810a820192831692199390931691909117909252949092019687526040805197889003820188208054601f60026001831615909802909501169590950492830182900482028801820190528187529294509250508301828280156111455780601f1061111a57610100808354040283529160200191611145565b820191906000526020600020905b81548152906001019060200180831161112857829003601f168201915b5050505050815250815260200161115a611b16565b905282518390600290811061116b57fe5b9060200190602002018190525060a0604051908101604052806001876040518082805190602001908083835b602083106111b65780518252601f199092019160209182019101611197565b51815160209384036101000a60001901801990921691161790529201948552506040805194859003820185208582018252600b8087527f6275726e5f746f6b656e7300000000000000000000000000000000000000000093870193845291519095945092508291908083835b602083106112415780518252601f199092019160209182019101611222565b518151600019602094850361010090810a820192831692199390931691909117909252949092019687526040805197889003820188208054601f60026001831615909802909501169590950492830182900482028801820190528187529294509250508301828280156112f55780601f106112ca576101008083540402835291602001916112f5565b820191906000526020600020905b8154815290600101906020018083116112d857829003601f168201915b505050505081526020016001876040518082805190602001908083835b602083106113315780518252601f199092019160209182019101611312565b51815160209384036101000a60001901801990921691161790529201948552506040805194859003820185208582018252600a8087527f73686f72745f646573630000000000000000000000000000000000000000000093870193845291519095945092508291908083835b602083106113bc5780518252601f19909201916020918201910161139d565b518151600019602094850361010090810a820192831692199390931691909117909252949092019687526040805197889003820188208054601f60026001831615909802909501169590950492830182900482028801820190528187529294509250508301828280156114705780601f1061144557610100808354040283529160200191611470565b820191906000526020600020905b81548152906001019060200180831161145357829003601f168201915b505050505081526020016001876040518082805190602001908083835b602083106114ac5780518252601f19909201916020918201910161148d565b51815160209384036101000a6000190180199092169116179052920194855250604080519485900382018520858201825260098087527f6c6f6e675f64657363000000000000000000000000000000000000000000000093870193845291519095945092508291908083835b602083106115375780518252601f199092019160209182019101611518565b518151600019602094850361010090810a820192831692199390931691909117909252949092019687526040805197889003820188208054601f60026001831615909802909501169590950492830182900482028801820190528187529294509250508301828280156115eb5780601f106115c0576101008083540402835291602001916115eb565b820191906000526020600020905b8154815290600101906020018083116115ce57829003601f168201915b505050505081526020016004815260200183815250905061160b81611ba3565b9250611624565b60408051602081019091526000815292505b505092915050565b60408051808201909152600681527f616d6f756e740000000000000000000000000000000000000000000000000000602082015281565b600054600160a060020a0316331461167a57600080fd5b806001846040518082805190602001908083835b602083106116ad5780518252601f19909201916020918201910161168e565b51815160209384036101000a6000190180199092169116179052920194855250604051938490038101842087519094889450925082918401908083835b602083106117095780518252601f1990920191602091820191016116ea565b51815160209384036101000a6000190180199092169116179052920194855250604051938490038101909320845161174a95919491909101925090506128f9565b50505050565b600054600160a060020a0316331461176757600080fd5b61177081611e00565b50565b60606001836040518082805190602001908083835b602083106117a75780518252601f199092019160209182019101611788565b51815160209384036101000a6000190180199092169116179052920194855250604051938490038101842086519094879450925082918401908083835b602083106118035780518252601f1990920191602091820191016117e4565b518151600019602094850361010090810a820192831692199390931691909117909252949092019687526040805197889003820188208054601f60026001831615909802909501169590950492830182900482028801820190528187529294509250508301828280156118b75780601f1061188c576101008083540402835291602001916118b7565b820191906000526020600020905b81548152906001019060200180831161189a57829003601f168201915b5050505050905092915050565b6060806000818185151561190d5760408051808201909152600181527f300000000000000000000000000000000000000000000000000000000000000060208201529450611a1a565b6040805160208082528183019092529080820161040080388339019050509350600092505b600086111561197f57600a860660300160f860020a02848481518110151561195657fe5b906020010190600160f860020a031916908160001a905350600a86049550600190920191611932565b60408051848152601f19601f860116810160200190915260001984019380156119b2578160200160208202803883390190505b509150600090505b8151811015611a16578351600019840193859181106119d557fe5b90602001015160f860020a900460f860020a0282828151811015156119f657fe5b906020010190600160f860020a031916908160001a9053506001016119ba565b8194505b50505050919050565b611a2b612977565b50604080518082019091528151815260208281019082018190525b50919050565b606080600083600001518560000151016040519080825280601f01601f191660200182016040528015611a89578160200160208202803883390190505b509150602082019050611aa58186602001518760000151611e7d565b845160208501518551611abb9284019190611e7d565b509392505050565b611acb61298e565b506040805160a0810182526000808252602080830182905283518082018552828152838501528351808201855282815260608401528351908101909352825260808101919091525b90565b611b1e6129bb565b60408051606081018252600080825282518181526020818101909452919283019190611b60565b611b4d6129df565b815260200190600190039081611b455790505b5081526020016000604051908082528060200260200182016040528015611b9b57816020015b6060815260200190600190039081611b865790505b509052905090565b60408051808201909152600a81527f7b227469746c65223a22000000000000000000000000000000000000000000006020820152815160609190600090611bf690611bed90611a23565b6107e384611a23565b9150611c39611bed6040805190810160405280600f81526020017f222c2273686f727444657363223a220000000000000000000000000000000000815250611a23565b9150611c4b611bed8560200151611a23565b9150611c8e611bed6040805190810160405280600e81526020017f222c226c6f6e6744657363223a22000000000000000000000000000000000000815250611a23565b9150611ca0611bed8560400151611a23565b9150611ce3611bed6040805190810160405280600a81526020017f222c227769647468223a00000000000000000000000000000000000000000000815250611a23565b9150611cf8611bed6107a086606001516118c4565b9150611d3b611bed6040805190810160405280600d81526020017f2c22656c656d656e7473223a5b00000000000000000000000000000000000000815250611a23565b9150600090505b836080015151811015611db7576000811115611d8357611d80611bed60408051908101604052806001815260200160fa60020a600b02815250611a23565b91505b611dad611bed6107a0866080015184815181101515611d9e57fe5b90602001906020020151611ec1565b9150600101611d42565b611df8611bed6040805190810160405280600281526020017f5d7d000000000000000000000000000000000000000000000000000000000000815250611a23565b949350505050565b600160a060020a0381161515611e1557600080fd5b60008054604051600160a060020a03808516939216917f8be0079c531659141344cd1fd0a4f28419497f9722a3daafe3b4186f6b6457e091a36000805473ffffffffffffffffffffffffffffffffffffffff1916600160a060020a0392909216919091179055565b60005b60208210611ea2578251845260209384019390920191601f1990910190611e80565b50905182516020929092036101000a6000190180199091169116179052565b606080826000015115612174576040805190810160405280600781526020017f7b226964223a22000000000000000000000000000000000000000000000000008152509050611f1f611f168460200151611a23565b6107e383611a23565b9050611f62611f166040805190810160405280600181526020017f2200000000000000000000000000000000000000000000000000000000000000815250611a23565b60a08401515190915015611fc957611fb1611f166040805190810160405280600b81526020017f2c2022616374696f6e223a000000000000000000000000000000000000000000815250611a23565b9050611fc6611f166107a08560a001516121af565b90505b60c0830151511561202d57612015611f166040805190810160405280600a81526020017f2c20227461626c65223a00000000000000000000000000000000000000000000815250611a23565b905061202a611f166107a08560c00151612352565b90505b61206e611f166040805190810160405280600981526020017f2c2274797065223a220000000000000000000000000000000000000000000000815250611a23565b9050612080611f168460400151611a23565b90506120c3611f166040805190810160405280600b81526020017f222c226c6162656c223a22000000000000000000000000000000000000000000815250611a23565b90506120d5611f168460600151611a23565b9050612118611f166040805190810160405280600981526020017f222c2264617461223a0000000000000000000000000000000000000000000000815250611a23565b905061212a611f168460800151611a23565b905061216d611f166040805190810160405280600181526020017f7d00000000000000000000000000000000000000000000000000000000000000815250611a23565b9150611a46565b60408051808201909152600481527f6e756c6c0000000000000000000000000000000000000000000000000000000060208201529150611a46565b606080826000015115612174576040805190810160405280600c81526020017f7b2261646472657373223a2200000000000000000000000000000000000000008152509050612210611f166107a08560200151600160a060020a0316612569565b9050612253611f166040805190810160405280601681526020017f222c2266756e6374696f6e53656c6563746f72223a2200000000000000000000815250611a23565b9050612265611f168460400151611a23565b90506122a8611f166040805190810160405280600e81526020017f222c22617267756d656e7473223a000000000000000000000000000000000000815250611a23565b90506122ba611f168460600151611a23565b90506122fd611f166040805190810160405280600c81526020017f2c22636f6e6669726d223a220000000000000000000000000000000000000000815250611a23565b905061230f611f168460800151611a23565b905061216d611f166040805190810160405280600281526020017f227d000000000000000000000000000000000000000000000000000000000000815250611a23565b60608060008084600001511561252a57505060408051808201909152600c81527f7b22636f6c756d6e73223a5b0000000000000000000000000000000000000000602082015290506000805b8460200151518110156124205760008211156123e8576123e56123dc60408051908101604052806001815260200160fa60020a600b02815250611a23565b6107e385611a23565b92505b6124126123dc6107a087602001518481518110151561240357fe5b906020019060200201516126ac565b92506001918201910161239e565b6124616123dc6040805190810160405280600a81526020017f5d2c22726f7773223a5b00000000000000000000000000000000000000000000815250611a23565b925060009150600090505b8460400151518110156124e25760008211156124ad576124aa6123dc60408051908101604052806001815260200160fa60020a600b02815250611a23565b92505b6124d46123dc8660400151838151811015156124c557fe5b90602001906020020151611a23565b92506001918201910161246c565b6125236123dc6040805190810160405280600281526020017f5d7d000000000000000000000000000000000000000000000000000000000000815250611a23565b9350612561565b60408051808201909152600481527f6e756c6c00000000000000000000000000000000000000000000000000000000602082015293505b505050919050565b60408051602a80825260608083019093528291600091829182916020820161054080388339505081519195507f30000000000000000000000000000000000000000000000000000000000000009186915060009081106125c557fe5b906020010190600160f860020a031916908160001a90535083517f7800000000000000000000000000000000000000000000000000000000000000908590600190811061260e57fe5b906020010190600160f860020a031916908160001a905350859250600091505b60288210156126a257506030600f8316016039600160a060020a0382161115612655576027015b8060f860020a02848360280360010181518110151561267057fe5b906020010190600160f860020a031916908160001a9053506010600160a060020a03841604925060019091019061262e565b5091949350505050565b606080826000015115612174576040805190810160405280600781526020017f7b226964223a22000000000000000000000000000000000000000000000000008152509050612701611f168460200151611a23565b9050612744611f166040805190810160405280600181526020017f2200000000000000000000000000000000000000000000000000000000000000815250611a23565b608084015151909150156127d55761277a611f1660408051908101604052806001815260200160fa60020a600b02815250611a23565b90506127bd611f166040805190810160405280600981526020017f22616374696f6e223a0000000000000000000000000000000000000000000000815250611a23565b90506127d2611f166107a085608001516121af565b90505b612816611f166040805190810160405280600981526020017f2c2274797065223a220000000000000000000000000000000000000000000000815250611a23565b9050612828611f168460400151611a23565b905061286b611f166040805190810160405280600b81526020017f222c226c6162656c223a22000000000000000000000000000000000000000000815250611a23565b905061230f611f168460600151611a23565b60a06040519081016040528060608152602001606081526020016060815260200160008152602001606081525090565b6101a060405190810160405280600015158152602001606081526020016060815260200160608152602001606081526020016128e761298e565b81526020016128f46129bb565b905290565b828054600181600116156101000203166002900490600052602060002090601f016020900481019282601f1061293a57805160ff1916838001178555612967565b82800160010185558215612967579182015b8281111561296757825182559160200191906001019061294c565b50612973929150612a12565b5090565b604080518082019091526000808252602082015290565b6040805160a081018252600080825260208201526060918101829052818101829052608081019190915290565b60606040519081016040528060001515815260200160608152602001606081525090565b610120604051908101604052806000151581526020016060815260200160608152602001606081526020016128f461298e565b611b1391905b808211156129735760008155600101612a185600a165627a7a72305820d07f9b55a2330f5cb546fbc7032820f352da62ed5e9d7aae22101eaf833ecca40029",
  "source": "pragma solidity ^0.4.24;\n\nimport \"./ERC20TokenWidgetRenderer.sol\";\nimport \"tokenboost-solidity/contracts/widget/Widgets.sol\";\nimport \"zeppelin-solidity/contracts/token/ERC20/DetailedERC20.sol\";\n\ncontract BurnTokensWidgetRenderer is ERC20TokenWidgetRenderer {\n    using Widgets for Widgets.Widget;\n    using UintUtils for uint;\n    using SafeMath for uint;\n    using strings for *;\n\n    string public constant BURN_TOKENS = \"burn_tokens\";\n    string public constant SHORT_DESC = \"short_desc\";\n    string public constant LONG_DESC = \"long_desc\";\n    string public constant BURNABLE_ETH = \"burnable_eth\";\n    string public constant AMOUNT = \"amount\";\n    string public constant BURN = \"burn\";\n    string public constant BURN_CONFIRM = \"burn_confirm\";\n\n    function render(string _locale, ERC20Token _token) public view returns (string) {\n        if (_token.burnable() && _token.activated()) {\n            Elements.Element[] memory elements = new Elements.Element[](3);\n            elements[0] = Elements.Element(\n                true,\n                BURNABLE_ETH,\n                \"token\".toSlice().concat(uint(_token.decimals()).toString().toSlice()),\n                resources[_locale][BURNABLE_ETH],\n                _token.balanceOf(tx.origin).toString(),\n                Actions.empty(),\n                Tables.empty()\n            );\n            elements[1] = Elements.Element(\n                true,\n                AMOUNT,\n                \"tokenEdit\".toSlice().concat(uint(_token.decimals()).toString().toSlice()),\n                resources[_locale][AMOUNT],\n                \"0\",\n                Actions.empty(),\n                Tables.empty()\n            );\n            elements[2] = Elements.Element(\n                true,\n                BURN,\n                \"button\",\n                resources[_locale][BURN],\n                \"null\",\n                Actions.Action(\n                    true,\n                    address(_token),\n                    \"burn(uint256)\",\n                    '[\"amount\"]',\n                    resources[_locale][BURN_CONFIRM]\n                ),\n                Tables.empty()\n            );\n            Widgets.Widget memory widget = Widgets.Widget(\n                resources[_locale][BURN_TOKENS],\n                resources[_locale][SHORT_DESC],\n                resources[_locale][LONG_DESC],\n                4,\n                elements\n            );\n            return widget.toJson();\n        } else {\n            return \"\";\n        }\n    }\n}\n",
  "sourcePath": "/Users/yoonjae/SolidityProjects/tokenboost-solidity-erc20token/contracts/token/erc20/widget/BurnTokensWidgetRenderer.sol",
  "compiler": {
    "name": "solc",
    "version": "0.4.24+commit.e67f0147.Emscripten.clang"
  },
  "schemaVersion": "2.0.1",
  "updatedAt": "2018-09-20T22:21:15.499Z"
}