{
  "contractName": "ERC20Token",
  "abi": [
    {
      "constant": true,
      "inputs": [
        {
          "name": "_interfaceId",
          "type": "bytes4"
        }
      ],
      "name": "supportsInterface",
      "outputs": [
        {
          "name": "",
          "type": "bool"
        }
      ],
      "payable": false,
      "stateMutability": "view",
      "type": "function"
    },
    {
      "constant": true,
      "inputs": [],
      "name": "mintingFinished",
      "outputs": [
        {
          "name": "",
          "type": "bool"
        }
      ],
      "payable": false,
      "stateMutability": "view",
      "type": "function"
    },
    {
      "constant": true,
      "inputs": [],
      "name": "name",
      "outputs": [
        {
          "name": "",
          "type": "string"
        }
      ],
      "payable": false,
      "stateMutability": "view",
      "type": "function"
    },
    {
      "constant": true,
      "inputs": [
        {
          "name": "_operator",
          "type": "address"
        },
        {
          "name": "_role",
          "type": "string"
        }
      ],
      "name": "checkRole",
      "outputs": [],
      "payable": false,
      "stateMutability": "view",
      "type": "function"
    },
    {
      "constant": true,
      "inputs": [],
      "name": "InterfaceId_Token",
      "outputs": [
        {
          "name": "",
          "type": "bytes4"
        }
      ],
      "payable": false,
      "stateMutability": "view",
      "type": "function"
    },
    {
      "constant": true,
      "inputs": [],
      "name": "totalSupply",
      "outputs": [
        {
          "name": "",
          "type": "uint256"
        }
      ],
      "payable": false,
      "stateMutability": "view",
      "type": "function"
    },
    {
      "constant": true,
      "inputs": [],
      "name": "activated",
      "outputs": [
        {
          "name": "",
          "type": "bool"
        }
      ],
      "payable": false,
      "stateMutability": "view",
      "type": "function"
    },
    {
      "constant": true,
      "inputs": [],
      "name": "InterfaceId_ERC165",
      "outputs": [
        {
          "name": "",
          "type": "bytes4"
        }
      ],
      "payable": false,
      "stateMutability": "view",
      "type": "function"
    },
    {
      "constant": true,
      "inputs": [],
      "name": "maxMintable",
      "outputs": [
        {
          "name": "",
          "type": "uint256"
        }
      ],
      "payable": false,
      "stateMutability": "view",
      "type": "function"
    },
    {
      "constant": true,
      "inputs": [
        {
          "name": "_operator",
          "type": "address"
        },
        {
          "name": "_role",
          "type": "string"
        }
      ],
      "name": "hasRole",
      "outputs": [
        {
          "name": "",
          "type": "bool"
        }
      ],
      "payable": false,
      "stateMutability": "view",
      "type": "function"
    },
    {
      "constant": false,
      "inputs": [
        {
          "name": "_minter",
          "type": "address"
        }
      ],
      "name": "removeMinter",
      "outputs": [],
      "payable": false,
      "stateMutability": "nonpayable",
      "type": "function"
    },
    {
      "constant": true,
      "inputs": [],
      "name": "decimals",
      "outputs": [
        {
          "name": "",
          "type": "uint8"
        }
      ],
      "payable": false,
      "stateMutability": "view",
      "type": "function"
    },
    {
      "constant": true,
      "inputs": [],
      "name": "pausable",
      "outputs": [
        {
          "name": "",
          "type": "bool"
        }
      ],
      "payable": false,
      "stateMutability": "view",
      "type": "function"
    },
    {
      "constant": true,
      "inputs": [],
      "name": "initialSupply",
      "outputs": [
        {
          "name": "",
          "type": "uint256"
        }
      ],
      "payable": false,
      "stateMutability": "view",
      "type": "function"
    },
    {
      "constant": false,
      "inputs": [],
      "name": "unpause",
      "outputs": [],
      "payable": false,
      "stateMutability": "nonpayable",
      "type": "function"
    },
    {
      "constant": true,
      "inputs": [],
      "name": "mintable",
      "outputs": [
        {
          "name": "",
          "type": "bool"
        }
      ],
      "payable": false,
      "stateMutability": "view",
      "type": "function"
    },
    {
      "constant": true,
      "inputs": [],
      "name": "paused",
      "outputs": [
        {
          "name": "",
          "type": "bool"
        }
      ],
      "payable": false,
      "stateMutability": "view",
      "type": "function"
    },
    {
      "constant": false,
      "inputs": [
        {
          "name": "_spender",
          "type": "address"
        },
        {
          "name": "_subtractedValue",
          "type": "uint256"
        }
      ],
      "name": "decreaseApproval",
      "outputs": [
        {
          "name": "success",
          "type": "bool"
        }
      ],
      "payable": false,
      "stateMutability": "nonpayable",
      "type": "function"
    },
    {
      "constant": true,
      "inputs": [],
      "name": "template",
      "outputs": [
        {
          "name": "",
          "type": "address"
        }
      ],
      "payable": false,
      "stateMutability": "view",
      "type": "function"
    },
    {
      "constant": true,
      "inputs": [
        {
          "name": "_owner",
          "type": "address"
        }
      ],
      "name": "balanceOf",
      "outputs": [
        {
          "name": "",
          "type": "uint256"
        }
      ],
      "payable": false,
      "stateMutability": "view",
      "type": "function"
    },
    {
      "constant": false,
      "inputs": [],
      "name": "renounceOwnership",
      "outputs": [],
      "payable": false,
      "stateMutability": "nonpayable",
      "type": "function"
    },
    {
      "constant": false,
      "inputs": [],
      "name": "finishMinting",
      "outputs": [
        {
          "name": "",
          "type": "bool"
        }
      ],
      "payable": false,
      "stateMutability": "nonpayable",
      "type": "function"
    },
    {
      "constant": true,
      "inputs": [],
      "name": "InterfaceId_ERC20Token",
      "outputs": [
        {
          "name": "",
          "type": "bytes4"
        }
      ],
      "payable": false,
      "stateMutability": "view",
      "type": "function"
    },
    {
      "constant": true,
      "inputs": [],
      "name": "owner",
      "outputs": [
        {
          "name": "",
          "type": "address"
        }
      ],
      "payable": false,
      "stateMutability": "view",
      "type": "function"
    },
    {
      "constant": true,
      "inputs": [],
      "name": "ROLE_MINTER",
      "outputs": [
        {
          "name": "",
          "type": "string"
        }
      ],
      "payable": false,
      "stateMutability": "view",
      "type": "function"
    },
    {
      "constant": true,
      "inputs": [],
      "name": "symbol",
      "outputs": [
        {
          "name": "",
          "type": "string"
        }
      ],
      "payable": false,
      "stateMutability": "view",
      "type": "function"
    },
    {
      "constant": false,
      "inputs": [
        {
          "name": "_minter",
          "type": "address"
        }
      ],
      "name": "addMinter",
      "outputs": [],
      "payable": false,
      "stateMutability": "nonpayable",
      "type": "function"
    },
    {
      "constant": true,
      "inputs": [],
      "name": "burnable",
      "outputs": [
        {
          "name": "",
          "type": "bool"
        }
      ],
      "payable": false,
      "stateMutability": "view",
      "type": "function"
    },
    {
      "constant": false,
      "inputs": [
        {
          "name": "_spender",
          "type": "address"
        },
        {
          "name": "_addedValue",
          "type": "uint256"
        }
      ],
      "name": "increaseApproval",
      "outputs": [
        {
          "name": "success",
          "type": "bool"
        }
      ],
      "payable": false,
      "stateMutability": "nonpayable",
      "type": "function"
    },
    {
      "constant": true,
      "inputs": [
        {
          "name": "_owner",
          "type": "address"
        },
        {
          "name": "_spender",
          "type": "address"
        }
      ],
      "name": "allowance",
      "outputs": [
        {
          "name": "",
          "type": "uint256"
        }
      ],
      "payable": false,
      "stateMutability": "view",
      "type": "function"
    },
    {
      "constant": false,
      "inputs": [
        {
          "name": "_newOwner",
          "type": "address"
        }
      ],
      "name": "transferOwnership",
      "outputs": [],
      "payable": false,
      "stateMutability": "nonpayable",
      "type": "function"
    },
    {
      "constant": true,
      "inputs": [],
      "name": "InterfaceId_Contract",
      "outputs": [
        {
          "name": "",
          "type": "bytes4"
        }
      ],
      "payable": false,
      "stateMutability": "view",
      "type": "function"
    },
    {
      "inputs": [
        {
          "name": "_owner",
          "type": "address"
        },
        {
          "name": "_name",
          "type": "string"
        },
        {
          "name": "_symbol",
          "type": "string"
        }
      ],
      "payable": false,
      "stateMutability": "nonpayable",
      "type": "constructor"
    },
    {
      "anonymous": false,
      "inputs": [],
      "name": "Pause",
      "type": "event"
    },
    {
      "anonymous": false,
      "inputs": [],
      "name": "Unpause",
      "type": "event"
    },
    {
      "anonymous": false,
      "inputs": [
        {
          "indexed": true,
          "name": "burner",
          "type": "address"
        },
        {
          "indexed": false,
          "name": "value",
          "type": "uint256"
        }
      ],
      "name": "Burn",
      "type": "event"
    },
    {
      "anonymous": false,
      "inputs": [
        {
          "indexed": true,
          "name": "operator",
          "type": "address"
        },
        {
          "indexed": false,
          "name": "role",
          "type": "string"
        }
      ],
      "name": "RoleAdded",
      "type": "event"
    },
    {
      "anonymous": false,
      "inputs": [
        {
          "indexed": true,
          "name": "operator",
          "type": "address"
        },
        {
          "indexed": false,
          "name": "role",
          "type": "string"
        }
      ],
      "name": "RoleRemoved",
      "type": "event"
    },
    {
      "anonymous": false,
      "inputs": [
        {
          "indexed": true,
          "name": "to",
          "type": "address"
        },
        {
          "indexed": false,
          "name": "amount",
          "type": "uint256"
        }
      ],
      "name": "Mint",
      "type": "event"
    },
    {
      "anonymous": false,
      "inputs": [],
      "name": "MintFinished",
      "type": "event"
    },
    {
      "anonymous": false,
      "inputs": [
        {
          "indexed": true,
          "name": "previousOwner",
          "type": "address"
        }
      ],
      "name": "OwnershipRenounced",
      "type": "event"
    },
    {
      "anonymous": false,
      "inputs": [
        {
          "indexed": true,
          "name": "previousOwner",
          "type": "address"
        },
        {
          "indexed": true,
          "name": "newOwner",
          "type": "address"
        }
      ],
      "name": "OwnershipTransferred",
      "type": "event"
    },
    {
      "anonymous": false,
      "inputs": [
        {
          "indexed": true,
          "name": "owner",
          "type": "address"
        },
        {
          "indexed": true,
          "name": "spender",
          "type": "address"
        },
        {
          "indexed": false,
          "name": "value",
          "type": "uint256"
        }
      ],
      "name": "Approval",
      "type": "event"
    },
    {
      "anonymous": false,
      "inputs": [
        {
          "indexed": true,
          "name": "from",
          "type": "address"
        },
        {
          "indexed": true,
          "name": "to",
          "type": "address"
        },
        {
          "indexed": false,
          "name": "value",
          "type": "uint256"
        }
      ],
      "name": "Transfer",
      "type": "event"
    },
    {
      "constant": false,
      "inputs": [
        {
          "name": "_name",
          "type": "string"
        },
        {
          "name": "_symbol",
          "type": "string"
        },
        {
          "name": "_decimals",
          "type": "uint8"
        },
        {
          "name": "_initialSupply",
          "type": "uint256"
        },
        {
          "name": "_mintable",
          "type": "bool"
        },
        {
          "name": "_burnable",
          "type": "bool"
        },
        {
          "name": "_pausable",
          "type": "bool"
        }
      ],
      "name": "update",
      "outputs": [],
      "payable": false,
      "stateMutability": "nonpayable",
      "type": "function"
    },
    {
      "constant": false,
      "inputs": [
        {
          "name": "_maxMintable",
          "type": "uint256"
        }
      ],
      "name": "setMaxMintable",
      "outputs": [],
      "payable": false,
      "stateMutability": "nonpayable",
      "type": "function"
    },
    {
      "constant": false,
      "inputs": [],
      "name": "activate",
      "outputs": [
        {
          "name": "",
          "type": "bool"
        }
      ],
      "payable": false,
      "stateMutability": "nonpayable",
      "type": "function"
    },
    {
      "constant": false,
      "inputs": [
        {
          "name": "_to",
          "type": "address"
        },
        {
          "name": "_value",
          "type": "uint256"
        }
      ],
      "name": "transfer",
      "outputs": [
        {
          "name": "",
          "type": "bool"
        }
      ],
      "payable": false,
      "stateMutability": "nonpayable",
      "type": "function"
    },
    {
      "constant": false,
      "inputs": [
        {
          "name": "_from",
          "type": "address"
        },
        {
          "name": "_to",
          "type": "address"
        },
        {
          "name": "_value",
          "type": "uint256"
        }
      ],
      "name": "transferFrom",
      "outputs": [
        {
          "name": "",
          "type": "bool"
        }
      ],
      "payable": false,
      "stateMutability": "nonpayable",
      "type": "function"
    },
    {
      "constant": false,
      "inputs": [
        {
          "name": "spender",
          "type": "address"
        },
        {
          "name": "value",
          "type": "uint256"
        }
      ],
      "name": "approve",
      "outputs": [
        {
          "name": "",
          "type": "bool"
        }
      ],
      "payable": false,
      "stateMutability": "nonpayable",
      "type": "function"
    },
    {
      "constant": false,
      "inputs": [
        {
          "name": "_to",
          "type": "address"
        },
        {
          "name": "_amount",
          "type": "uint256"
        }
      ],
      "name": "mint",
      "outputs": [
        {
          "name": "",
          "type": "bool"
        }
      ],
      "payable": false,
      "stateMutability": "nonpayable",
      "type": "function"
    },
    {
      "constant": false,
      "inputs": [
        {
          "name": "_value",
          "type": "uint256"
        }
      ],
      "name": "burn",
      "outputs": [],
      "payable": false,
      "stateMutability": "nonpayable",
      "type": "function"
    },
    {
      "constant": false,
      "inputs": [],
      "name": "pause",
      "outputs": [],
      "payable": false,
      "stateMutability": "nonpayable",
      "type": "function"
    }
  ],
  "bytecode": "0x60806040526008805460ff19169055600a805461ffff19166112001790553480156200002a57600080fd5b5060405162001df538038062001df5833981016040908152815160208301519183015160038054600160a060020a0319163317905590929182019101828282826200009e7f01ffc9a7000000000000000000000000000000000000000000000000000000006401000000006200019e810204565b6005805433600160a060020a03199182161790915560038054909116600160a060020a038316179055620000fb7f6125ede5000000000000000000000000000000000000000000000000000000006401000000006200019e810204565b508151620001119060069060208501906200020b565b508051620001279060079060208401906200020b565b506200015c7ffd155c67000000000000000000000000000000000000000000000000000000006401000000006200019e810204565b506200019591507f98b0f3210000000000000000000000000000000000000000000000000000000090506401000000006200019e810204565b505050620002b0565b7fffffffff000000000000000000000000000000000000000000000000000000008082161415620001ce57600080fd5b7fffffffff00000000000000000000000000000000000000000000000000000000166000908152600460205260409020805460ff19166001179055565b828054600181600116156101000203166002900490600052602060002090601f016020900481019282601f106200024e57805160ff19168380011785556200027e565b828001600101855582156200027e579182015b828111156200027e57825182559160200191906001019062000261565b506200028c92915062000290565b5090565b620002ad91905b808211156200028c576000815560010162000297565b90565b611b3580620002c06000396000f3006080604052600436106101f85763ffffffff7c010000000000000000000000000000000000000000000000000000000060003504166301ffc9a781146101fd57806305d2035b1461024857806306fdde031461025d578063095ea7b3146102e75780630988ca8c1461030b5780630f15f4c014610374578063172d02bd1461038957806318160ddd146103d0578063186601ca146103f757806319fa8f501461040c5780632154dc3914610421578063217fe6c61461043657806323b872dd1461049d57806325d387b5146104c75780633092afd5146104df578063313ce56714610500578063367758471461052b578063378dc3dc146105405780633f4ba83a1461055557806340c10f191461056a57806342966c681461058e5780634bf365df146105a65780635c975abb146105bb57806366188463146105d05780636f2ddd93146105f457806370a0823114610625578063715018a6146106465780637d64bcb41461065b5780638456cb59146106705780638d4da468146106855780638da5cb5b1461069a57806392afc33a146106af57806395d89b41146106c4578063983b2d56146106d9578063a07c7ce4146106fa578063a9059cbb1461070f578063d73dd62314610733578063dd62ed3e14610757578063f2226de61461077e578063f2fde38b14610835578063fbf964eb14610856575b600080fd5b34801561020957600080fd5b506102347bffffffffffffffffffffffffffffffffffffffffffffffffffffffff196004351661086b565b604080519115158252519081900360200190f35b34801561025457600080fd5b5061023461089f565b34801561026957600080fd5b506102726108a8565b6040805160208082528351818301528351919283929083019185019080838360005b838110156102ac578181015183820152602001610294565b50505050905090810190601f1680156102d95780820380516001836020036101000a031916815260200191505b509250505060405180910390f35b3480156102f357600080fd5b50610234600160a060020a0360043516602435610936565b34801561031757600080fd5b5060408051602060046024803582810135601f8101859004850286018501909652858552610372958335600160a060020a03169536956044949193909101919081908401838280828437509497506109629650505050505050565b005b34801561038057600080fd5b506102346109d0565b34801561039557600080fd5b5061039e610a04565b604080517bffffffffffffffffffffffffffffffffffffffffffffffffffffffff199092168252519081900360200190f35b3480156103dc57600080fd5b506103e5610a28565b60408051918252519081900360200190f35b34801561040357600080fd5b50610234610a2e565b34801561041857600080fd5b5061039e610a3e565b34801561042d57600080fd5b506103e5610a62565b34801561044257600080fd5b5060408051602060046024803582810135601f8101859004850286018501909652858552610234958335600160a060020a0316953695604494919390910191908190840183828082843750949750610a689650505050505050565b3480156104a957600080fd5b50610234600160a060020a0360043581169060243516604435610ad4565b3480156104d357600080fd5b50610372600435610b02565b3480156104eb57600080fd5b50610372600160a060020a0360043516610b35565b34801561050c57600080fd5b50610515610b7c565b6040805160ff9092168252519081900360200190f35b34801561053757600080fd5b50610234610b8a565b34801561054c57600080fd5b506103e5610b98565b34801561056157600080fd5b50610372610b9e565b34801561057657600080fd5b50610234600160a060020a0360043516602435610bfb565b34801561059a57600080fd5b50610372600435610c4c565b3480156105b257600080fd5b50610234610c6d565b3480156105c757600080fd5b50610234610c76565b3480156105dc57600080fd5b50610234600160a060020a0360043516602435610c7f565b34801561060057600080fd5b50610609610c9c565b60408051600160a060020a039092168252519081900360200190f35b34801561063157600080fd5b506103e5600160a060020a0360043516610cab565b34801561065257600080fd5b50610372610cc6565b34801561066757600080fd5b50610234610d34565b34801561067c57600080fd5b50610372610d9a565b34801561069157600080fd5b5061039e610dba565b3480156106a657600080fd5b50610609610dde565b3480156106bb57600080fd5b50610272610ded565b3480156106d057600080fd5b50610272610e12565b3480156106e557600080fd5b50610372600160a060020a0360043516610e6d565b34801561070657600080fd5b50610234610eb1565b34801561071b57600080fd5b50610234600160a060020a0360043516602435610eba565b34801561073f57600080fd5b50610234600160a060020a0360043516602435610edf565b34801561076357600080fd5b506103e5600160a060020a0360043581169060243516610efc565b34801561078a57600080fd5b506040805160206004803580820135601f810184900484028501840190955284845261037294369492936024939284019190819084018382808284375050604080516020601f89358b018035918201839004830284018301909452808352979a9998810197919650918201945092508291508401838280828437509497505060ff85351695505050602083013592604081013515159250606081013515159150608001351515610f27565b34801561084157600080fd5b50610372600160a060020a0360043516610fcd565b34801561086257600080fd5b5061039e610fed565b7bffffffffffffffffffffffffffffffffffffffffffffffffffffffff191660009081526004602052604090205460ff1690565b60085460ff1681565b6006805460408051602060026001851615610100026000190190941693909304601f8101849004840282018401909252818152929183018282801561092e5780601f106109035761010080835404028352916020019161092e565b820191906000526020600020905b81548152906001019060200180831161091157829003601f168201915b505050505081565b60055460009060a060020a900460ff16151561095157600080fd5b61095b8383611011565b9392505050565b6109cc826009836040518082805190602001908083835b602083106109985780518252601f199092019160209182019101610979565b51815160209384036101000a600019018019909216911617905292019485525060405193849003019092209291505061102e565b5050565b600b546001819055600354600160a060020a03166000908152602081905260408120919091556109fe611043565b90505b90565b7ffd155c670000000000000000000000000000000000000000000000000000000081565b60015490565b60055460a060020a900460ff1681565b7f01ffc9a70000000000000000000000000000000000000000000000000000000081565b600d5481565b600061095b836009846040518082805190602001908083835b60208310610aa05780518252601f199092019160209182019101610a81565b51815160209384036101000a6000190180199092169116179052920194855250604051938490030190922092915050611065565b60055460009060a060020a900460ff161515610aef57600080fd5b610afa848484611084565b949350505050565b600354600160a060020a03163314610b1957600080fd5b60055460a060020a900460ff1615610b3057600080fd5b600d55565b600354600160a060020a03163314610b4c57600080fd5b610b7981604080519081016040528060068152602001600080516020611aca8339815191528152506110a2565b50565b600a54610100900460ff1681565b600e54610100900460ff1681565b600b5481565b600354600160a060020a03163314610bb557600080fd5b600a5460ff161515610bc657600080fd5b600a805460ff191690556040517f7805862f689e2f13df9f062ff482ad3ad112aca9e0847911ed832e158c525b3390600090a1565b60055460009060a060020a900460ff161515610c1657600080fd5b6000600d541115610c4257600d54600154610c37908463ffffffff6111b316565b1115610c4257600080fd5b61095b83836111c6565b60055460a060020a900460ff161515610c6457600080fd5b610b79816112cc565b600c5460ff1681565b600a5460ff1681565b600a5460009060ff1615610c9257600080fd5b61095b83836112d6565b600554600160a060020a031681565b600160a060020a031660009081526020819052604090205490565b600354600160a060020a03163314610cdd57600080fd5b600354604051600160a060020a03909116907ff8df31144d9c2f0f6b59d69b8b98abd5459d07f2742c4df920b25aae33c6482090600090a26003805473ffffffffffffffffffffffffffffffffffffffff19169055565b600354600090600160a060020a03163314610d4e57600080fd5b60085460ff1615610d5e57600080fd5b6008805460ff191660011790556040517fae5184fba832cb2b1f702aca6117b8d265eaf03ad33eb133f19dde0f5920fa0890600090a150600190565b600e54610100900460ff161515610db057600080fd5b610db86113c5565b565b7f98b0f3210000000000000000000000000000000000000000000000000000000081565b600354600160a060020a031681565b6040805180820190915260068152600080516020611aca833981519152602082015281565b6007805460408051602060026001851615610100026000190190941693909304601f8101849004840282018401909252818152929183018282801561092e5780601f106109035761010080835404028352916020019161092e565b600354600160a060020a03163314610e8457600080fd5b610b7981604080519081016040528060068152602001600080516020611aca833981519152815250611424565b600e5460ff1681565b60055460009060a060020a900460ff161515610ed557600080fd5b61095b83836114f6565b600a5460009060ff1615610ef257600080fd5b61095b8383611513565b600160a060020a03918216600090815260026020908152604080832093909416825291909152205490565b600354600160a060020a03163314610f3e57600080fd5b60055460a060020a900460ff1615610f5557600080fd5b8651610f689060069060208a0190611a31565b508551610f7c906007906020890190611a31565b50600a805460ff90961661010090810261ff001997881617909155600b94909455600c805493151560ff19948516179055600e80549115159094029115159216919091179092169190911790555050565b600354600160a060020a03163314610fe457600080fd5b610b79816115ac565b7f6125ede50000000000000000000000000000000000000000000000000000000081565b600a5460009060ff161561102457600080fd5b61095b838361162a565b6110388282611065565b15156109cc57600080fd5b600354600090600160a060020a0316331461105d57600080fd5b6109fe611690565b600160a060020a03166000908152602091909152604090205460ff1690565b600a5460009060ff161561109757600080fd5b610afa8484846116b9565b61110c826009836040518082805190602001908083835b602083106110d85780518252601f1990920191602091820191016110b9565b51815160209384036101000a600019018019909216911617905292019485525060405193849003019092209291505061181c565b81600160a060020a03167fd211483f91fc6eff862467f8de606587a30c8fc9981056f051b897a418df803a826040518080602001828103825283818151815260200191508051906020019080838360005b8381101561117557818101518382015260200161115d565b50505050905090810190601f1680156111a25780820380516001836020036101000a031916815260200191505b509250505060405180910390a25050565b818101828110156111c057fe5b92915050565b60006111f533604080519081016040528060068152602001600080516020611aca833981519152815250610962565b60085460ff161561120557600080fd5b600154611218908363ffffffff6111b316565b600155600160a060020a038316600090815260208190526040902054611244908363ffffffff6111b316565b600160a060020a03841660008181526020818152604091829020939093558051858152905191927f0f6798a560793a54c3bcfe86a93cde1e73087d944c0ea20544137d412139688592918290030190a2604080518381529051600160a060020a03851691600091600080516020611aea8339815191529181900360200190a350600192915050565b610b79338261183e565b336000908152600260209081526040808320600160a060020a038616845290915281205480831061132a57336000908152600260209081526040808320600160a060020a038816845290915281205561135f565b61133a818463ffffffff61192d16565b336000908152600260209081526040808320600160a060020a03891684529091529020555b336000818152600260209081526040808320600160a060020a0389168085529083529281902054815190815290519293927f8c5be1e5ebec7d5bd14f71427d1e84f3dd0314c0f7b2291e5b200ac8c7c3b925929181900390910190a35060019392505050565b600354600160a060020a031633146113dc57600080fd5b600a5460ff16156113ec57600080fd5b600a805460ff191660011790556040517f6985a02210a168e66602d3235cb6db0e70f92b3ba4d376a33c0f3d9434bff62590600090a1565b61148e826009836040518082805190602001908083835b6020831061145a5780518252601f19909201916020918201910161143b565b51815160209384036101000a600019018019909216911617905292019485525060405193849003019092209291505061193f565b81600160a060020a03167fbfec83d64eaa953f2708271a023ab9ee82057f8f3578d548c1a4ba0b5b700489826040518080602001828103825283818151815260200191508051906020019080838360008381101561117557818101518382015260200161115d565b600a5460009060ff161561150957600080fd5b61095b8383611964565b336000908152600260209081526040808320600160a060020a0386168452909152812054611547908363ffffffff6111b316565b336000818152600260209081526040808320600160a060020a0389168085529083529281902085905580519485525191937f8c5be1e5ebec7d5bd14f71427d1e84f3dd0314c0f7b2291e5b200ac8c7c3b925929081900390910190a350600192915050565b600160a060020a03811615156115c157600080fd5b600354604051600160a060020a038084169216907f8be0079c531659141344cd1fd0a4f28419497f9722a3daafe3b4186f6b6457e090600090a36003805473ffffffffffffffffffffffffffffffffffffffff1916600160a060020a0392909216919091179055565b336000818152600260209081526040808320600160a060020a038716808552908352818420869055815186815291519394909390927f8c5be1e5ebec7d5bd14f71427d1e84f3dd0314c0f7b2291e5b200ac8c7c3b925928290030190a350600192915050565b6005805474ff0000000000000000000000000000000000000000191660a060020a179055600190565b600160a060020a0383166000908152602081905260408120548211156116de57600080fd5b600160a060020a038416600090815260026020908152604080832033845290915290205482111561170e57600080fd5b600160a060020a038316151561172357600080fd5b600160a060020a03841660009081526020819052604090205461174c908363ffffffff61192d16565b600160a060020a038086166000908152602081905260408082209390935590851681522054611781908363ffffffff6111b316565b600160a060020a038085166000908152602081815260408083209490945591871681526002825282812033825290915220546117c3908363ffffffff61192d16565b600160a060020a0380861660008181526002602090815260408083203384528252918290209490945580518681529051928716939192600080516020611aea833981519152929181900390910190a35060019392505050565b600160a060020a0316600090815260209190915260409020805460ff19169055565b600160a060020a03821660009081526020819052604090205481111561186357600080fd5b600160a060020a03821660009081526020819052604090205461188c908263ffffffff61192d16565b600160a060020a0383166000908152602081905260409020556001546118b8908263ffffffff61192d16565b600155604080518281529051600160a060020a038416917fcc16f5dbb4873280815c1ee09dbd06736cffcc184412cf7a71a0fdb75d397ca5919081900360200190a2604080518281529051600091600160a060020a03851691600080516020611aea8339815191529181900360200190a35050565b60008282111561193957fe5b50900390565b600160a060020a0316600090815260209190915260409020805460ff19166001179055565b3360009081526020819052604081205482111561198057600080fd5b600160a060020a038316151561199557600080fd5b336000908152602081905260409020546119b5908363ffffffff61192d16565b3360009081526020819052604080822092909255600160a060020a038516815220546119e7908363ffffffff6111b316565b600160a060020a03841660008181526020818152604091829020939093558051858152905191923392600080516020611aea8339815191529281900390910190a350600192915050565b828054600181600116156101000203166002900490600052602060002090601f016020900481019282601f10611a7257805160ff1916838001178555611a9f565b82800160010185558215611a9f579182015b82811115611a9f578251825591602001919060010190611a84565b50611aab929150611aaf565b5090565b610a0191905b80821115611aab5760008155600101611ab556006d696e7465720000000000000000000000000000000000000000000000000000ddf252ad1be2c89b69c2b068fc378daa952ba7f163c4a11628f55a4df523b3efa165627a7a72305820a74bfb7bd1abfc864abcced8b5f029bca6ccb90702e8006bf42b5fc31c820c730029",
  "source": "pragma solidity ^0.4.24;\n\nimport \"zeppelin-solidity/contracts/token/ERC20/RBACMintableToken.sol\";\nimport \"zeppelin-solidity/contracts/token/ERC20/BurnableToken.sol\";\nimport \"zeppelin-solidity/contracts/token/ERC20/PausableToken.sol\";\nimport \"tokenboost-solidity/contracts/token/Token.sol\";\n\ncontract ERC20Token is Token, RBACMintableToken, BurnableToken, PausableToken {\n    /**\n     * @notice this.owner.selector ^ this.renounceOwnership.selector ^ this.transferOwnership.selector\n        ^ this.template.selector ^ this.activate.selector ^ this.name.selector ^ this.symbol.selector\n        ^ this.totalSupply.selector ^ this.balanceOf.selector ^ bytes4(keccak256(\"transfer(address,uint256)\"))\n        ^ this.allowance.selector ^ this.transferFrom.selector ^ this.approve.selector\n        ^ this.increaseApproval.selector ^ this.decreaseApproval.selector\n        ^ this.mintingFinished.selector ^ this.finishMinting.selector ^ this.checkRole.selector ^ this.hasRole.selector\n        ^ this.ROLE_MINTER.selector ^ this.addMinter.selector ^ this.removeMinter.selector\n        ^ this.burn.selector ^ this.paused.selector ^ this.pause.selector ^ this.unpause.selector\n        ^ this.decimals.selector ^ this.initialSupply.selector ^ this.mintable.selector ^ this.maxMintable.selector\n        ^ this.burnable.selector ^ this.pausable.selector ^ this.update.selector ^ this.setMaxMintable.selector\n     */\n    bytes4 public constant InterfaceId_ERC20Token = 0x98b0f321;\n\n    uint8 public decimals = 18;\n    uint256 public initialSupply;\n    bool public mintable;\n    uint256 public maxMintable;\n    bool public burnable;\n    bool public pausable;\n\n    modifier whenBurnable() {\n        require(burnable);\n        _;\n    }\n\n    modifier whenMintable() {\n        require(mintable);\n        _;\n    }\n\n    modifier whenPausable() {\n        require(pausable);\n        _;\n    }\n\n    constructor(\n        address _owner,\n        string _name,\n        string _symbol\n    ) public Token(_owner, _name, _symbol) {\n\n        _registerInterface(InterfaceId_ERC20Token);\n    }\n\n    function update(\n        string _name,\n        string _symbol,\n        uint8 _decimals,\n        uint256 _initialSupply,\n        bool _mintable,\n        bool _burnable,\n        bool _pausable\n    ) public onlyOwner whenNotActivated {\n        name = _name;\n        symbol = _symbol;\n        decimals = _decimals;\n        initialSupply = _initialSupply;\n        mintable = _mintable;\n        burnable = _burnable;\n        pausable = _pausable;\n    }\n\n    function setMaxMintable(uint _maxMintable) onlyOwner whenNotActivated public {\n        maxMintable = _maxMintable;\n    }\n\n    function activate() public returns (bool) {\n        totalSupply_ = initialSupply;\n        balances[owner] = totalSupply_;\n        return super.activate();\n    }\n\n    function transfer(address _to, uint256 _value) whenActivated public returns (bool) {\n        return super.transfer(_to, _value);\n    }\n\n    function transferFrom(\n        address _from,\n        address _to,\n        uint256 _value\n    ) whenActivated public returns (bool) {\n        return super.transferFrom(_from, _to, _value);\n    }\n\n    function approve(address spender, uint256 value) whenActivated public returns (bool) {\n        return super.approve(spender, value);\n    }\n\n    function mint(address _to, uint256 _amount) whenActivated public returns (bool) {\n        if (maxMintable > 0) {\n            require(totalSupply_.add(_amount) <= maxMintable);\n        }\n        return super.mint(_to, _amount);\n    }\n\n    function burn(uint256 _value) whenActivated public {\n        super.burn(_value);\n    }\n\n    function pause() whenPausable public {\n        super.pause();\n    }\n}",
  "sourcePath": "/Users/yoonjae/SolidityProjects/tokenboost-solidity-erc20token/contracts/token/erc20/ERC20Token.sol",
  "compiler": {
    "name": "solc",
    "version": "0.4.24+commit.e67f0147.Emscripten.clang"
  },
  "schemaVersion": "2.0.1",
  "updatedAt": "2018-09-21T11:40:54.206Z"
}