{
  "contractName": "ERC20TokenRenderer",
  "abi": [
    {
      "constant": true,
      "inputs": [],
      "name": "inputsRenderer",
      "outputs": [
        {
          "name": "",
          "type": "address"
        }
      ],
      "payable": false,
      "stateMutability": "view",
      "type": "function"
    },
    {
      "constant": false,
      "inputs": [],
      "name": "renounceOwnership",
      "outputs": [],
      "payable": false,
      "stateMutability": "nonpayable",
      "type": "function"
    },
    {
      "constant": true,
      "inputs": [],
      "name": "owner",
      "outputs": [
        {
          "name": "",
          "type": "address"
        }
      ],
      "payable": false,
      "stateMutability": "view",
      "type": "function"
    },
    {
      "constant": false,
      "inputs": [
        {
          "name": "_newOwner",
          "type": "address"
        }
      ],
      "name": "transferOwnership",
      "outputs": [],
      "payable": false,
      "stateMutability": "nonpayable",
      "type": "function"
    },
    {
      "anonymous": false,
      "inputs": [
        {
          "indexed": true,
          "name": "previousOwner",
          "type": "address"
        }
      ],
      "name": "OwnershipRenounced",
      "type": "event"
    },
    {
      "anonymous": false,
      "inputs": [
        {
          "indexed": true,
          "name": "previousOwner",
          "type": "address"
        },
        {
          "indexed": true,
          "name": "newOwner",
          "type": "address"
        }
      ],
      "name": "OwnershipTransferred",
      "type": "event"
    },
    {
      "constant": false,
      "inputs": [
        {
          "name": "_renderers",
          "type": "address[]"
        }
      ],
      "name": "setAdminWidgetRenderers",
      "outputs": [],
      "payable": false,
      "stateMutability": "nonpayable",
      "type": "function"
    },
    {
      "constant": true,
      "inputs": [],
      "name": "numberOfAdminWidgetRenderers",
      "outputs": [
        {
          "name": "",
          "type": "uint256"
        }
      ],
      "payable": false,
      "stateMutability": "view",
      "type": "function"
    },
    {
      "constant": true,
      "inputs": [
        {
          "name": "index",
          "type": "uint256"
        }
      ],
      "name": "getAdminWidgetRendererAt",
      "outputs": [
        {
          "name": "",
          "type": "address"
        }
      ],
      "payable": false,
      "stateMutability": "view",
      "type": "function"
    },
    {
      "constant": false,
      "inputs": [
        {
          "name": "_renderers",
          "type": "address[]"
        }
      ],
      "name": "setUserWidgetRenderers",
      "outputs": [],
      "payable": false,
      "stateMutability": "nonpayable",
      "type": "function"
    },
    {
      "constant": true,
      "inputs": [],
      "name": "numberOfUserWidgetRenderers",
      "outputs": [
        {
          "name": "",
          "type": "uint256"
        }
      ],
      "payable": false,
      "stateMutability": "view",
      "type": "function"
    },
    {
      "constant": true,
      "inputs": [
        {
          "name": "index",
          "type": "uint256"
        }
      ],
      "name": "getUserWidgetRendererAt",
      "outputs": [
        {
          "name": "",
          "type": "address"
        }
      ],
      "payable": false,
      "stateMutability": "view",
      "type": "function"
    },
    {
      "constant": false,
      "inputs": [
        {
          "name": "_renderer",
          "type": "address"
        }
      ],
      "name": "setInputsRenderer",
      "outputs": [],
      "payable": false,
      "stateMutability": "nonpayable",
      "type": "function"
    },
    {
      "constant": true,
      "inputs": [
        {
          "name": "_locale",
          "type": "string"
        },
        {
          "name": "_token",
          "type": "address"
        }
      ],
      "name": "adminWidgets",
      "outputs": [
        {
          "name": "jsonObject",
          "type": "string"
        }
      ],
      "payable": false,
      "stateMutability": "view",
      "type": "function"
    },
    {
      "constant": true,
      "inputs": [
        {
          "name": "_locale",
          "type": "string"
        },
        {
          "name": "_token",
          "type": "address"
        }
      ],
      "name": "userWidgets",
      "outputs": [
        {
          "name": "jsonObject",
          "type": "string"
        }
      ],
      "payable": false,
      "stateMutability": "view",
      "type": "function"
    },
    {
      "constant": true,
      "inputs": [
        {
          "name": "_locale",
          "type": "string"
        },
        {
          "name": "_token",
          "type": "address"
        }
      ],
      "name": "inputs",
      "outputs": [
        {
          "name": "jsonArray",
          "type": "string"
        }
      ],
      "payable": false,
      "stateMutability": "view",
      "type": "function"
    }
  ],
  "bytecode": "0x608060405260008054600160a060020a03191633179055610cdd806100256000396000f3006080604052600436106100ce5763ffffffff7c01000000000000000000000000000000000000000000000000000000006000350416626c8e7f81146100d3578063020849be146101075780630a709e591461015e5780633634a20c146101735780635d36af89146101c8578063715018a6146101e057806385295c19146101f55780638da5cb5b1461021c578063a1f40d8f14610231578063bbb7b46a14610252578063bf3bed5414610267578063e77cee3d14610340578063e9499555146103a4578063f2fde38b14610408575b600080fd5b3480156100df57600080fd5b506100eb600435610429565b60408051600160a060020a039092168252519081900360200190f35b34801561011357600080fd5b506040805160206004803580820135838102808601850190965280855261015c953695939460249493850192918291850190849080828437509497506104559650505050505050565b005b34801561016a57600080fd5b506100eb610483565b34801561017f57600080fd5b506040805160206004803580820135838102808601850190965280855261015c953695939460249493850192918291850190849080828437509497506104929650505050505050565b3480156101d457600080fd5b506100eb6004356104bc565b3480156101ec57600080fd5b5061015c6104cd565b34801561020157600080fd5b5061020a610539565b60408051918252519081900360200190f35b34801561022857600080fd5b506100eb610540565b34801561023d57600080fd5b5061015c600160a060020a036004351661054f565b34801561025e57600080fd5b5061020a610595565b34801561027357600080fd5b506040805160206004803580820135601f81018490048402850184019095528484526102cb94369492936024939284019190819084018382808284375094975050509235600160a060020a0316935061059b92505050565b6040805160208082528351818301528351919283929083019185019080838360005b838110156103055781810151838201526020016102ed565b50505050905090810190601f1680156103325780820380516001836020036101000a031916815260200191505b509250505060405180910390f35b34801561034c57600080fd5b506040805160206004803580820135601f81018490048402850184019095528484526102cb94369492936024939284019190819084018382808284375094975050509235600160a060020a031693506106ff92505050565b3480156103b057600080fd5b506040805160206004803580820135601f81018490048402850184019095528484526102cb94369492936024939284019190819084018382808284375094975050509235600160a060020a0316935061076d92505050565b34801561041457600080fd5b5061015c600160a060020a03600435166107d2565b600060028281548110151561043a57fe5b600091825260209091200154600160a060020a031692915050565b600054600160a060020a0316331461046c57600080fd5b805161047f906002906020840190610bf7565b5050565b600354600160a060020a031681565b600054600160a060020a031633146104a957600080fd5b805161047f906001906020840190610bf7565b600060018281548110151561043a57fe5b600054600160a060020a031633146104e457600080fd5b60008054604051600160a060020a03909116917ff8df31144d9c2f0f6b59d69b8b98abd5459d07f2742c4df920b25aae33c6482091a26000805473ffffffffffffffffffffffffffffffffffffffff19169055565b6001545b90565b600054600160a060020a031681565b600054600160a060020a0316331461056657600080fd5b6003805473ffffffffffffffffffffffffffffffffffffffff1916600160a060020a0392909216919091179055565b60025490565b600354604080517fca1a70be000000000000000000000000000000000000000000000000000000008152600160a060020a03848116602483015260048201928352855160448301528551606094919091169263ca1a70be9287928792918291606490910190602086019080838360005b8381101561062357818101518382015260200161060b565b50505050905090810190601f1680156106505780820380516001836020036101000a031916815260200191505b509350505050600060405180830381600087803b15801561067057600080fd5b505af1158015610684573d6000803e3d6000fd5b505050506040513d6000823e601f3d908101601f1916820160405260208110156106ad57600080fd5b8101908080516401000000008111156106c557600080fd5b820160208101848111156106d857600080fd5b81516401000000008111828201871017156106f257600080fd5b5090979650505050505050565b60606107668383600280548060200260200160405190810160405280929190818152602001828054801561075c57602002820191906000526020600020905b8154600160a060020a0316815260019091019060200180831161073e575b50505050506107f5565b9392505050565b60606107668383600180548060200260200160405190810160405280929190818152602001828054801561075c57602002820191906000526020600020908154600160a060020a0316815260019091019060200180831161073e5750505050506107f5565b600054600160a060020a031633146107e957600080fd5b6107f281610a99565b50565b60408051808201909152600181527f5b00000000000000000000000000000000000000000000000000000000000000602082015260609060008080845b8651831015610a4b57868381518110151561084957fe5b90602001906020020151915081600160a060020a031663ca1a70be8a8a6040518363ffffffff167c0100000000000000000000000000000000000000000000000000000000028152600401808060200183600160a060020a0316600160a060020a03168152602001828103825284818151815260200191508051906020019080838360005b838110156108e65781810151838201526020016108ce565b50505050905090810190601f1680156109135780820380516001836020036101000a031916815260200191505b509350505050600060405180830381600087803b15801561093357600080fd5b505af1158015610947573d6000803e3d6000fd5b505050506040513d6000823e601f3d908101601f19168201604052602081101561097057600080fd5b81019080805164010000000081111561098857600080fd5b8201602081018481111561099b57600080fd5b81516401000000008111828201871017156109b557600080fd5b50509291905050509050600081511115610a40576000841115610a2b57610a28610a136040805190810160405280600181526020017f2c00000000000000000000000000000000000000000000000000000000000000815250610b16565b610a1c87610b16565b9063ffffffff610b3c16565b94505b610a37610a1382610b16565b94506001909301925b600190920191610832565b610a8c610a136040805190810160405280600181526020017f5d00000000000000000000000000000000000000000000000000000000000000815250610b16565b9998505050505050505050565b600160a060020a0381161515610aae57600080fd5b60008054604051600160a060020a03808516939216917f8be0079c531659141344cd1fd0a4f28419497f9722a3daafe3b4186f6b6457e091a36000805473ffffffffffffffffffffffffffffffffffffffff1916600160a060020a0392909216919091179055565b610b1e610c69565b50604080518082019091528151815260209182019181019190915290565b606080600083600001518560000151016040519080825280601f01601f191660200182016040528015610b79578160200160208202803883390190505b509150602082019050610b958186602001518760000151610bb3565b845160208501518551610bab9284019190610bb3565b509392505050565b60005b60208210610bd8578251845260209384019390920191601f1990910190610bb6565b50905182516020929092036101000a6000190180199091169116179052565b828054828255906000526020600020908101928215610c59579160200282015b82811115610c59578251825473ffffffffffffffffffffffffffffffffffffffff1916600160a060020a03909116178255602090920191600190910190610c17565b50610c65929150610c80565b5090565b604080518082019091526000808252602082015290565b61053d91905b80821115610c6557805473ffffffffffffffffffffffffffffffffffffffff19168155600101610c865600a165627a7a72305820d9e22611b80ef66251d83a353b6a2b9eb02ab889ce075e106b3ffe8ad038d2bd0029",
  "source": "pragma solidity ^0.4.24;\n\nimport \"./ERC20TokenWidgetRenderer.sol\";\nimport \"./ERC20TokenInputsRenderer.sol\";\n\ncontract ERC20TokenRenderer is Ownable {\n    using strings for *;\n\n    ERC20TokenWidgetRenderer[] adminWidgetRenderers;\n    ERC20TokenWidgetRenderer[] userWidgetRenderers;\n    ERC20TokenInputsRenderer public inputsRenderer;\n\n    function setAdminWidgetRenderers(ERC20TokenWidgetRenderer[] _renderers) onlyOwner public {\n        adminWidgetRenderers = _renderers;\n    }\n\n    function numberOfAdminWidgetRenderers() public view returns (uint) {\n        return adminWidgetRenderers.length;\n    }\n\n    function getAdminWidgetRendererAt(uint index) public view returns (ERC20TokenWidgetRenderer) {\n        return adminWidgetRenderers[index];\n    }\n\n    function setUserWidgetRenderers(ERC20TokenWidgetRenderer[] _renderers) onlyOwner public {\n        userWidgetRenderers = _renderers;\n    }\n\n    function numberOfUserWidgetRenderers() public view returns (uint) {\n        return userWidgetRenderers.length;\n    }\n\n    function getUserWidgetRendererAt(uint index) public view returns (ERC20TokenWidgetRenderer) {\n        return userWidgetRenderers[index];\n    }\n\n    function setInputsRenderer(ERC20TokenInputsRenderer _renderer) onlyOwner public {\n        inputsRenderer = _renderer;\n    }\n\n    function adminWidgets(string _locale, ERC20Token _token) public view returns (string jsonObject) {\n        return _widgets(_locale, _token, adminWidgetRenderers);\n    }\n\n    function userWidgets(string _locale, ERC20Token _token) public view returns (string jsonObject) {\n        return _widgets(_locale, _token, userWidgetRenderers);\n    }\n\n    function _widgets(string _locale, ERC20Token _token, ERC20TokenWidgetRenderer[] _widgetRenderes) private view returns (string) {\n        string memory json = \"[\";\n        uint length = 0;\n        for (uint i = 0; i < _widgetRenderes.length; i++) {\n            ERC20TokenWidgetRenderer renderer = _widgetRenderes[i];\n            string memory widget = renderer.render(_locale, _token);\n            if (bytes(widget).length > 0) {\n                if (length > 0) {\n                    json = json.toSlice().concat(\",\".toSlice());\n                }\n                json = json.toSlice().concat(widget.toSlice());\n                length++;\n            }\n        }\n        return json.toSlice().concat(\"]\".toSlice());\n    }\n\n    function inputs(string _locale, ERC20Token _token) public view returns (string jsonArray) {\n        return inputsRenderer.render(_locale, _token);\n    }\n}\n",
  "sourcePath": "/Users/yoonjae/SolidityProjects/tokenboost-solidity-erc20token/contracts/token/erc20/widget/ERC20TokenRenderer.sol",
  "compiler": {
    "name": "solc",
    "version": "0.4.24+commit.e67f0147.Emscripten.clang"
  },
  "schemaVersion": "2.0.1",
  "updatedAt": "2018-10-07T17:28:28.702Z"
}