{
  "contractName": "Localizable",
  "abi": [
    {
      "constant": false,
      "inputs": [],
      "name": "renounceOwnership",
      "outputs": [],
      "payable": false,
      "stateMutability": "nonpayable",
      "type": "function"
    },
    {
      "constant": true,
      "inputs": [],
      "name": "owner",
      "outputs": [
        {
          "name": "",
          "type": "address"
        }
      ],
      "payable": false,
      "stateMutability": "view",
      "type": "function"
    },
    {
      "constant": false,
      "inputs": [
        {
          "name": "_newOwner",
          "type": "address"
        }
      ],
      "name": "transferOwnership",
      "outputs": [],
      "payable": false,
      "stateMutability": "nonpayable",
      "type": "function"
    },
    {
      "anonymous": false,
      "inputs": [
        {
          "indexed": true,
          "name": "previousOwner",
          "type": "address"
        }
      ],
      "name": "OwnershipRenounced",
      "type": "event"
    },
    {
      "anonymous": false,
      "inputs": [
        {
          "indexed": true,
          "name": "previousOwner",
          "type": "address"
        },
        {
          "indexed": true,
          "name": "newOwner",
          "type": "address"
        }
      ],
      "name": "OwnershipTransferred",
      "type": "event"
    },
    {
      "constant": false,
      "inputs": [
        {
          "name": "locale",
          "type": "string"
        },
        {
          "name": "key",
          "type": "string"
        },
        {
          "name": "value",
          "type": "string"
        }
      ],
      "name": "setResource",
      "outputs": [],
      "payable": false,
      "stateMutability": "nonpayable",
      "type": "function"
    },
    {
      "constant": true,
      "inputs": [
        {
          "name": "locale",
          "type": "string"
        },
        {
          "name": "key",
          "type": "string"
        }
      ],
      "name": "resource",
      "outputs": [
        {
          "name": "",
          "type": "string"
        }
      ],
      "payable": false,
      "stateMutability": "view",
      "type": "function"
    }
  ],
  "bytecode": "0x608060405260008054600160a060020a031916331790556106db806100256000396000f30060806040526004361061006c5763ffffffff7c0100000000000000000000000000000000000000000000000000000000600035041663715018a681146100715780638da5cb5b14610088578063ed3487fe146100b9578063f2fde38b1461018e578063f65a5c1b146101af575b600080fd5b34801561007d57600080fd5b506100866102bb565b005b34801561009457600080fd5b5061009d610327565b60408051600160a060020a039092168252519081900360200190f35b3480156100c557600080fd5b506040805160206004803580820135601f810184900484028501840190955284845261008694369492936024939284019190819084018382808284375050604080516020601f89358b018035918201839004830284018301909452808352979a99988101979196509182019450925082915084018382808284375050604080516020601f89358b018035918201839004830284018301909452808352979a9998810197919650918201945092508291508401838280828437509497506103369650505050505050565b34801561019a57600080fd5b50610086600160a060020a0360043516610423565b3480156101bb57600080fd5b506040805160206004803580820135601f810184900484028501840190955284845261024694369492936024939284019190819084018382808284375050604080516020601f89358b018035918201839004830284018301909452808352979a9998810197919650918201945092508291508401838280828437509497506104469650505050505050565b6040805160208082528351818301528351919283929083019185019080838360005b83811015610280578181015183820152602001610268565b50505050905090810190601f1680156102ad5780820380516001836020036101000a031916815260200191505b509250505060405180910390f35b600054600160a060020a031633146102d257600080fd5b60008054604051600160a060020a03909116917ff8df31144d9c2f0f6b59d69b8b98abd5459d07f2742c4df920b25aae33c6482091a26000805473ffffffffffffffffffffffffffffffffffffffff19169055565b600054600160a060020a031681565b600054600160a060020a0316331461034d57600080fd5b806001846040518082805190602001908083835b602083106103805780518252601f199092019160209182019101610361565b51815160209384036101000a6000190180199092169116179052920194855250604051938490038101842087519094889450925082918401908083835b602083106103dc5780518252601f1990920191602091820191016103bd565b51815160209384036101000a6000190180199092169116179052920194855250604051938490038101909320845161041d9591949190910192509050610614565b50505050565b600054600160a060020a0316331461043a57600080fd5b61044381610597565b50565b60606001836040518082805190602001908083835b6020831061047a5780518252601f19909201916020918201910161045b565b51815160209384036101000a6000190180199092169116179052920194855250604051938490038101842086519094879450925082918401908083835b602083106104d65780518252601f1990920191602091820191016104b7565b518151600019602094850361010090810a820192831692199390931691909117909252949092019687526040805197889003820188208054601f600260018316159098029095011695909504928301829004820288018201905281875292945092505083018282801561058a5780601f1061055f5761010080835404028352916020019161058a565b820191906000526020600020905b81548152906001019060200180831161056d57829003601f168201915b5050505050905092915050565b600160a060020a03811615156105ac57600080fd5b60008054604051600160a060020a03808516939216917f8be0079c531659141344cd1fd0a4f28419497f9722a3daafe3b4186f6b6457e091a36000805473ffffffffffffffffffffffffffffffffffffffff1916600160a060020a0392909216919091179055565b828054600181600116156101000203166002900490600052602060002090601f016020900481019282601f1061065557805160ff1916838001178555610682565b82800160010185558215610682579182015b82811115610682578251825591602001919060010190610667565b5061068e929150610692565b5090565b6106ac91905b8082111561068e5760008155600101610698565b905600a165627a7a72305820c3e34ec4241964beb215739f65c31917b346e305628ef083f7a7a411d95c40280029",
  "source": "pragma solidity ^0.4.24;\n\nimport \"zeppelin-solidity/contracts/ownership/Ownable.sol\";\n\ncontract Localizable is Ownable {\n    mapping(string => mapping(string => string)) resources;\n\n    function setResource(string locale, string key, string value) public onlyOwner {\n        resources[locale][key] = value;\n    }\n\n    function resource(string locale, string key) public view returns (string) {\n        return resources[locale][key];\n    }\n}\n",
  "sourcePath": "tokenboost-solidity/contracts/widget/Localizable.sol",
  "compiler": {
    "name": "solc",
    "version": "0.4.24+commit.e67f0147.Emscripten.clang"
  },
  "schemaVersion": "2.0.1",
  "updatedAt": "2018-10-07T15:52:36.194Z"
}