{
  "contractName": "MaxMintableWidgetRenderer",
  "abi": [
    {
      "constant": true,
      "inputs": [],
      "name": "MAX_MINTABLE",
      "outputs": [
        {
          "name": "",
          "type": "string"
        }
      ],
      "payable": false,
      "stateMutability": "view",
      "type": "function"
    },
    {
      "constant": false,
      "inputs": [],
      "name": "renounceOwnership",
      "outputs": [],
      "payable": false,
      "stateMutability": "nonpayable",
      "type": "function"
    },
    {
      "constant": true,
      "inputs": [],
      "name": "SHORT_DESC",
      "outputs": [
        {
          "name": "",
          "type": "string"
        }
      ],
      "payable": false,
      "stateMutability": "view",
      "type": "function"
    },
    {
      "constant": true,
      "inputs": [],
      "name": "owner",
      "outputs": [
        {
          "name": "",
          "type": "address"
        }
      ],
      "payable": false,
      "stateMutability": "view",
      "type": "function"
    },
    {
      "constant": true,
      "inputs": [],
      "name": "LONG_DESC",
      "outputs": [
        {
          "name": "",
          "type": "string"
        }
      ],
      "payable": false,
      "stateMutability": "view",
      "type": "function"
    },
    {
      "constant": true,
      "inputs": [],
      "name": "UPDATE_CONFIRM",
      "outputs": [
        {
          "name": "",
          "type": "string"
        }
      ],
      "payable": false,
      "stateMutability": "view",
      "type": "function"
    },
    {
      "constant": true,
      "inputs": [],
      "name": "AMOUNT",
      "outputs": [
        {
          "name": "",
          "type": "string"
        }
      ],
      "payable": false,
      "stateMutability": "view",
      "type": "function"
    },
    {
      "constant": true,
      "inputs": [],
      "name": "UPDATE",
      "outputs": [
        {
          "name": "",
          "type": "string"
        }
      ],
      "payable": false,
      "stateMutability": "view",
      "type": "function"
    },
    {
      "constant": false,
      "inputs": [
        {
          "name": "locale",
          "type": "string"
        },
        {
          "name": "key",
          "type": "string"
        },
        {
          "name": "value",
          "type": "string"
        }
      ],
      "name": "setResource",
      "outputs": [],
      "payable": false,
      "stateMutability": "nonpayable",
      "type": "function"
    },
    {
      "constant": false,
      "inputs": [
        {
          "name": "_newOwner",
          "type": "address"
        }
      ],
      "name": "transferOwnership",
      "outputs": [],
      "payable": false,
      "stateMutability": "nonpayable",
      "type": "function"
    },
    {
      "constant": true,
      "inputs": [
        {
          "name": "locale",
          "type": "string"
        },
        {
          "name": "key",
          "type": "string"
        }
      ],
      "name": "resource",
      "outputs": [
        {
          "name": "",
          "type": "string"
        }
      ],
      "payable": false,
      "stateMutability": "view",
      "type": "function"
    },
    {
      "anonymous": false,
      "inputs": [
        {
          "indexed": true,
          "name": "previousOwner",
          "type": "address"
        }
      ],
      "name": "OwnershipRenounced",
      "type": "event"
    },
    {
      "anonymous": false,
      "inputs": [
        {
          "indexed": true,
          "name": "previousOwner",
          "type": "address"
        },
        {
          "indexed": true,
          "name": "newOwner",
          "type": "address"
        }
      ],
      "name": "OwnershipTransferred",
      "type": "event"
    },
    {
      "constant": true,
      "inputs": [
        {
          "name": "_locale",
          "type": "string"
        },
        {
          "name": "_token",
          "type": "address"
        }
      ],
      "name": "render",
      "outputs": [
        {
          "name": "",
          "type": "string"
        }
      ],
      "payable": false,
      "stateMutability": "view",
      "type": "function"
    }
  ],
  "bytecode": "0x608060405260008054600160a060020a03191633179055612722806100256000396000f3006080604052600436106100a05763ffffffff60e060020a6000350416633f879faf81146100a5578063715018a61461012f5780638b582712146101465780638da5cb5b1461015b578063ac5c6e121461018c578063b07b3c78146101a1578063ca1a70be146101b6578063d17891761461021a578063d30f6e201461022f578063ed3487fe14610244578063f2fde38b14610319578063f65a5c1b1461033a575b600080fd5b3480156100b157600080fd5b506100ba6103d1565b6040805160208082528351818301528351919283929083019185019080838360005b838110156100f45781810151838201526020016100dc565b50505050905090810190601f1680156101215780820380516001836020036101000a031916815260200191505b509250505060405180910390f35b34801561013b57600080fd5b50610144610408565b005b34801561015257600080fd5b506100ba610474565b34801561016757600080fd5b506101706104ab565b60408051600160a060020a039092168252519081900360200190f35b34801561019857600080fd5b506100ba6104ba565b3480156101ad57600080fd5b506100ba6104f1565b3480156101c257600080fd5b506040805160206004803580820135601f81018490048402850184019095528484526100ba94369492936024939284019190819084018382808284375094975050509235600160a060020a0316935061052892505050565b34801561022657600080fd5b506100ba6112bf565b34801561023b57600080fd5b506100ba6112f6565b34801561025057600080fd5b506040805160206004803580820135601f810184900484028501840190955284845261014494369492936024939284019190819084018382808284375050604080516020601f89358b018035918201839004830284018301909452808352979a99988101979196509182019450925082915084018382808284375050604080516020601f89358b018035918201839004830284018301909452808352979a99988101979196509182019450925082915084018382808284375094975061132d9650505050505050565b34801561032557600080fd5b50610144600160a060020a036004351661141a565b34801561034657600080fd5b506040805160206004803580820135601f81018490048402850184019095528484526100ba94369492936024939284019190819084018382808284375050604080516020601f89358b018035918201839004830284018301909452808352979a99988101979196509182019450925082915084018382808284375094975061143d9650505050505050565b60408051808201909152600c81527f6d61785f6d696e7461626c650000000000000000000000000000000000000000602082015281565b600054600160a060020a0316331461041f57600080fd5b60008054604051600160a060020a03909116917ff8df31144d9c2f0f6b59d69b8b98abd5459d07f2742c4df920b25aae33c6482091a26000805473ffffffffffffffffffffffffffffffffffffffff19169055565b60408051808201909152600a81527f73686f72745f6465736300000000000000000000000000000000000000000000602082015281565b600054600160a060020a031681565b60408051808201909152600981527f6c6f6e675f646573630000000000000000000000000000000000000000000000602082015281565b60408051808201909152600e81527f7570646174655f636f6e6669726d000000000000000000000000000000000000602082015281565b606080610533612547565b83600160a060020a0316634bf365df6040518163ffffffff1660e060020a028152600401602060405180830381600087803b15801561057157600080fd5b505af1158015610585573d6000803e3d6000fd5b505050506040513d602081101561059b57600080fd5b50518015610610575083600160a060020a031663186601ca6040518163ffffffff1660e060020a028152600401602060405180830381600087803b1580156105e257600080fd5b505af11580156105f6573d6000803e3d6000fd5b505050506040513d602081101561060c57600080fd5b5051155b156112a5576040805160028082526060820190925290816020015b610633612577565b81526020019060019003908161062b57905050915060e0604051908101604052806001151581526020016040805190810160405280600681526020017f616d6f756e740000000000000000000000000000000000000000000000000000815250815260200161076261071861071388600160a060020a031663313ce5676040518163ffffffff1660e060020a028152600401602060405180830381600087803b1580156106df57600080fd5b505af11580156106f3573d6000803e3d6000fd5b505050506040513d602081101561070957600080fd5b505160ff1661158e565b6116ed565b6107566040805190810160405280600981526020017f746f6b656e4564697400000000000000000000000000000000000000000000008152506116ed565b9063ffffffff61171616565b81526020016001876040518082805190602001908083835b602083106107995780518252601f19909201916020918201910161077a565b51815160209384036101000a6000190180199092169116179052920194855250604080519485900382018520858201825260068087527f616d6f756e74000000000000000000000000000000000000000000000000000093870193845291519095945092508291908083835b602083106108245780518252601f199092019160209182019101610805565b518151600019602094850361010090810a820192831692199390931691909117909252949092019687526040805197889003820188208054601f60026001831615909802909501169590950492830182900482028801820190528187529294509250508301828280156108d85780601f106108ad576101008083540402835291602001916108d8565b820191906000526020600020905b8154815290600101906020018083116108bb57829003601f168201915b5050505050815260200161095486600160a060020a0316632154dc396040518163ffffffff1660e060020a028152600401602060405180830381600087803b15801561092357600080fd5b505af1158015610937573d6000803e3d6000fd5b505050506040513d602081101561094d57600080fd5b505161158e565b815260200161096161178d565b815260200161096e6117e0565b905282518390600090811061097f57fe5b9060200190602002018190525060e0604051908101604052806001151581526020016040805190810160405280600681526020017f757064617465000000000000000000000000000000000000000000000000000081525081526020016040805190810160405280600681526020017f627574746f6e000000000000000000000000000000000000000000000000000081525081526020016001876040518082805190602001908083835b60208310610a495780518252601f199092019160209182019101610a2a565b51815160209384036101000a6000190180199092169116179052920194855250604080519485900382018520858201825260068087527f757064617465000000000000000000000000000000000000000000000000000093870193845291519095945092508291908083835b60208310610ad45780518252601f199092019160209182019101610ab5565b518151600019602094850361010090810a820192831692199390931691909117909252949092019687526040805197889003820188208054601f6002600183161590980290950116959095049283018290048202880182019052818752929450925050830182828015610b885780601f10610b5d57610100808354040283529160200191610b88565b820191906000526020600020905b815481529060010190602001808311610b6b57829003601f168201915b505050505081526020016040805190810160405280600481526020017f6e756c6c00000000000000000000000000000000000000000000000000000000815250815260200160a06040519081016040528060011515815260200187600160a060020a031681526020016040805190810160405280601781526020017f7365744d61784d696e7461626c652875696e743235362900000000000000000081525081526020016040805190810160405280600a81526020017f5b22616d6f756e74225d0000000000000000000000000000000000000000000081525081526020016001896040518082805190602001908083835b60208310610c995780518252601f199092019160209182019101610c7a565b51815160209384036101000a60001901801990921691161790529201948552506040805194859003820185208582018252600e8087527f7570646174655f636f6e6669726d00000000000000000000000000000000000093870193845291519095945092508291908083835b60208310610d245780518252601f199092019160209182019101610d05565b518151600019602094850361010090810a820192831692199390931691909117909252949092019687526040805197889003820188208054601f6002600183161590980290950116959095049283018290048202880182019052818752929450925050830182828015610dd85780601f10610dad57610100808354040283529160200191610dd8565b820191906000526020600020905b815481529060010190602001808311610dbb57829003601f168201915b50505050508152508152602001610ded6117e0565b9052825183906001908110610dfe57fe5b9060200190602002018190525060a0604051908101604052806001876040518082805190602001908083835b60208310610e495780518252601f199092019160209182019101610e2a565b51815160209384036101000a60001901801990921691161790529201948552506040805194859003820185208582018252600c8087527f6d61785f6d696e7461626c65000000000000000000000000000000000000000093870193845291519095945092508291908083835b60208310610ed45780518252601f199092019160209182019101610eb5565b518151600019602094850361010090810a820192831692199390931691909117909252949092019687526040805197889003820188208054601f6002600183161590980290950116959095049283018290048202880182019052818752929450925050830182828015610f885780601f10610f5d57610100808354040283529160200191610f88565b820191906000526020600020905b815481529060010190602001808311610f6b57829003601f168201915b505050505081526020016001876040518082805190602001908083835b60208310610fc45780518252601f199092019160209182019101610fa5565b51815160209384036101000a60001901801990921691161790529201948552506040805194859003820185208582018252600a8087527f73686f72745f646573630000000000000000000000000000000000000000000093870193845291519095945092508291908083835b6020831061104f5780518252601f199092019160209182019101611030565b518151600019602094850361010090810a820192831692199390931691909117909252949092019687526040805197889003820188208054601f60026001831615909802909501169590950492830182900482028801820190528187529294509250508301828280156111035780601f106110d857610100808354040283529160200191611103565b820191906000526020600020905b8154815290600101906020018083116110e657829003601f168201915b505050505081526020016001876040518082805190602001908083835b6020831061113f5780518252601f199092019160209182019101611120565b51815160209384036101000a6000190180199092169116179052920194855250604080519485900382018520858201825260098087527f6c6f6e675f64657363000000000000000000000000000000000000000000000093870193845291519095945092508291908083835b602083106111ca5780518252601f1990920191602091820191016111ab565b518151600019602094850361010090810a820192831692199390931691909117909252949092019687526040805197889003820188208054601f600260018316159098029095011695909504928301829004820288018201905281875292945092505083018282801561127e5780601f106112535761010080835404028352916020019161127e565b820191906000526020600020905b81548152906001019060200180831161126157829003601f168201915b505050505081526020016004815260200183815250905061129e8161186d565b92506112b7565b60408051602081019091526000815292505b505092915050565b60408051808201909152600681527f616d6f756e740000000000000000000000000000000000000000000000000000602082015281565b60408051808201909152600681527f7570646174650000000000000000000000000000000000000000000000000000602082015281565b600054600160a060020a0316331461134457600080fd5b806001846040518082805190602001908083835b602083106113775780518252601f199092019160209182019101611358565b51815160209384036101000a6000190180199092169116179052920194855250604051938490038101842087519094889450925082918401908083835b602083106113d35780518252601f1990920191602091820191016113b4565b51815160209384036101000a6000190180199092169116179052920194855250604051938490038101909320845161141495919491909101925090506125c3565b50505050565b600054600160a060020a0316331461143157600080fd5b61143a81611aca565b50565b60606001836040518082805190602001908083835b602083106114715780518252601f199092019160209182019101611452565b51815160209384036101000a6000190180199092169116179052920194855250604051938490038101842086519094879450925082918401908083835b602083106114cd5780518252601f1990920191602091820191016114ae565b518151600019602094850361010090810a820192831692199390931691909117909252949092019687526040805197889003820188208054601f60026001831615909802909501169590950492830182900482028801820190528187529294509250508301828280156115815780601f1061155657610100808354040283529160200191611581565b820191906000526020600020905b81548152906001019060200180831161156457829003601f168201915b5050505050905092915050565b606080600081818515156115d75760408051808201909152600181527f3000000000000000000000000000000000000000000000000000000000000000602082015294506116e4565b6040805160208082528183019092529080820161040080388339019050509350600092505b600086111561164957600a860660300160f860020a02848481518110151561162057fe5b906020010190600160f860020a031916908160001a905350600a860495506001909201916115fc565b60408051848152601f19601f8601168101602001909152600019840193801561167c578160200160208202803883390190505b509150600090505b81518110156116e05783516000198401938591811061169f57fe5b90602001015160f860020a900460f860020a0282828151811015156116c057fe5b906020010190600160f860020a031916908160001a905350600101611684565b8194505b50505050919050565b6116f5612641565b50604080518082019091528151815260208281019082018190525b50919050565b606080600083600001518560000151016040519080825280601f01601f191660200182016040528015611753578160200160208202803883390190505b50915060208201905061176f8186602001518760000151611b47565b8451602085015185516117859284019190611b47565b509392505050565b611795612658565b506040805160a0810182526000808252602080830182905283518082018552828152838501528351808201855282815260608401528351908101909352825260808101919091525b90565b6117e8612685565b6040805160608101825260008082528251818152602081810190945291928301919061182a565b6118176126a9565b81526020019060019003908161180f5790505b508152602001600060405190808252806020026020018201604052801561186557816020015b60608152602001906001900390816118505790505b509052905090565b60408051808201909152600a81527f7b227469746c65223a220000000000000000000000000000000000000000000060208201528151606091906000906118c0906118b7906116ed565b610756846116ed565b91506119036118b76040805190810160405280600f81526020017f222c2273686f727444657363223a2200000000000000000000000000000000008152506116ed565b91506119156118b785602001516116ed565b91506119586118b76040805190810160405280600e81526020017f222c226c6f6e6744657363223a220000000000000000000000000000000000008152506116ed565b915061196a6118b785604001516116ed565b91506119ad6118b76040805190810160405280600a81526020017f222c227769647468223a000000000000000000000000000000000000000000008152506116ed565b91506119c26118b7610713866060015161158e565b9150611a056118b76040805190810160405280600d81526020017f2c22656c656d656e7473223a5b000000000000000000000000000000000000008152506116ed565b9150600090505b836080015151811015611a81576000811115611a4d57611a4a6118b760408051908101604052806001815260200160fa60020a600b028152506116ed565b91505b611a776118b7610713866080015184815181101515611a6857fe5b90602001906020020151611b8b565b9150600101611a0c565b611ac26118b76040805190810160405280600281526020017f5d7d0000000000000000000000000000000000000000000000000000000000008152506116ed565b949350505050565b600160a060020a0381161515611adf57600080fd5b60008054604051600160a060020a03808516939216917f8be0079c531659141344cd1fd0a4f28419497f9722a3daafe3b4186f6b6457e091a36000805473ffffffffffffffffffffffffffffffffffffffff1916600160a060020a0392909216919091179055565b60005b60208210611b6c578251845260209384019390920191601f1990910190611b4a565b50905182516020929092036101000a6000190180199091169116179052565b606080826000015115611e3e576040805190810160405280600781526020017f7b226964223a22000000000000000000000000000000000000000000000000008152509050611be9611be084602001516116ed565b610756836116ed565b9050611c2c611be06040805190810160405280600181526020017f22000000000000000000000000000000000000000000000000000000000000008152506116ed565b60a08401515190915015611c9357611c7b611be06040805190810160405280600b81526020017f2c2022616374696f6e223a0000000000000000000000000000000000000000008152506116ed565b9050611c90611be06107138560a00151611e79565b90505b60c08301515115611cf757611cdf611be06040805190810160405280600a81526020017f2c20227461626c65223a000000000000000000000000000000000000000000008152506116ed565b9050611cf4611be06107138560c0015161201c565b90505b611d38611be06040805190810160405280600981526020017f2c2274797065223a2200000000000000000000000000000000000000000000008152506116ed565b9050611d4a611be084604001516116ed565b9050611d8d611be06040805190810160405280600b81526020017f222c226c6162656c223a220000000000000000000000000000000000000000008152506116ed565b9050611d9f611be084606001516116ed565b9050611de2611be06040805190810160405280600981526020017f222c2264617461223a00000000000000000000000000000000000000000000008152506116ed565b9050611df4611be084608001516116ed565b9050611e37611be06040805190810160405280600181526020017f7d000000000000000000000000000000000000000000000000000000000000008152506116ed565b9150611710565b60408051808201909152600481527f6e756c6c0000000000000000000000000000000000000000000000000000000060208201529150611710565b606080826000015115611e3e576040805190810160405280600c81526020017f7b2261646472657373223a2200000000000000000000000000000000000000008152509050611eda611be06107138560200151600160a060020a0316612233565b9050611f1d611be06040805190810160405280601681526020017f222c2266756e6374696f6e53656c6563746f72223a22000000000000000000008152506116ed565b9050611f2f611be084604001516116ed565b9050611f72611be06040805190810160405280600e81526020017f222c22617267756d656e7473223a0000000000000000000000000000000000008152506116ed565b9050611f84611be084606001516116ed565b9050611fc7611be06040805190810160405280600c81526020017f2c22636f6e6669726d223a2200000000000000000000000000000000000000008152506116ed565b9050611fd9611be084608001516116ed565b9050611e37611be06040805190810160405280600281526020017f227d0000000000000000000000000000000000000000000000000000000000008152506116ed565b6060806000808460000151156121f457505060408051808201909152600c81527f7b22636f6c756d6e73223a5b0000000000000000000000000000000000000000602082015290506000805b8460200151518110156120ea5760008211156120b2576120af6120a660408051908101604052806001815260200160fa60020a600b028152506116ed565b610756856116ed565b92505b6120dc6120a66107138760200151848151811015156120cd57fe5b90602001906020020151612376565b925060019182019101612068565b61212b6120a66040805190810160405280600a81526020017f5d2c22726f7773223a5b000000000000000000000000000000000000000000008152506116ed565b925060009150600090505b8460400151518110156121ac576000821115612177576121746120a660408051908101604052806001815260200160fa60020a600b028152506116ed565b92505b61219e6120a686604001518381518110151561218f57fe5b906020019060200201516116ed565b925060019182019101612136565b6121ed6120a66040805190810160405280600281526020017f5d7d0000000000000000000000000000000000000000000000000000000000008152506116ed565b935061222b565b60408051808201909152600481527f6e756c6c00000000000000000000000000000000000000000000000000000000602082015293505b505050919050565b60408051602a80825260608083019093528291600091829182916020820161054080388339505081519195507f300000000000000000000000000000000000000000000000000000000000000091869150600090811061228f57fe5b906020010190600160f860020a031916908160001a90535083517f780000000000000000000000000000000000000000000000000000000000000090859060019081106122d857fe5b906020010190600160f860020a031916908160001a905350859250600091505b602882101561236c57506030600f8316016039600160a060020a038216111561231f576027015b8060f860020a02848360280360010181518110151561233a57fe5b906020010190600160f860020a031916908160001a9053506010600160a060020a0384160492506001909101906122f8565b5091949350505050565b606080826000015115611e3e576040805190810160405280600781526020017f7b226964223a220000000000000000000000000000000000000000000000000081525090506123cb611be084602001516116ed565b905061240e611be06040805190810160405280600181526020017f22000000000000000000000000000000000000000000000000000000000000008152506116ed565b6080840151519091501561249f57612444611be060408051908101604052806001815260200160fa60020a600b028152506116ed565b9050612487611be06040805190810160405280600981526020017f22616374696f6e223a00000000000000000000000000000000000000000000008152506116ed565b905061249c611be06107138560800151611e79565b90505b6124e0611be06040805190810160405280600981526020017f2c2274797065223a2200000000000000000000000000000000000000000000008152506116ed565b90506124f2611be084604001516116ed565b9050612535611be06040805190810160405280600b81526020017f222c226c6162656c223a220000000000000000000000000000000000000000008152506116ed565b9050611fd9611be084606001516116ed565b60a06040519081016040528060608152602001606081526020016060815260200160008152602001606081525090565b6101a060405190810160405280600015158152602001606081526020016060815260200160608152602001606081526020016125b1612658565b81526020016125be612685565b905290565b828054600181600116156101000203166002900490600052602060002090601f016020900481019282601f1061260457805160ff1916838001178555612631565b82800160010185558215612631579182015b82811115612631578251825591602001919060010190612616565b5061263d9291506126dc565b5090565b604080518082019091526000808252602082015290565b6040805160a081018252600080825260208201526060918101829052818101829052608081019190915290565b60606040519081016040528060001515815260200160608152602001606081525090565b610120604051908101604052806000151581526020016060815260200160608152602001606081526020016125be612658565b6117dd91905b8082111561263d57600081556001016126e25600a165627a7a7230582085dad55f54c0149cba60ea4122f316a728145c69cfa9e20cf8877b173f9c5d290029",
  "source": "pragma solidity ^0.4.24;\n\nimport \"./ERC20TokenWidgetRenderer.sol\";\nimport \"tokenboost-solidity/contracts/utils/strings.sol\";\nimport \"tokenboost-solidity/contracts/widget/Widgets.sol\";\nimport \"zeppelin-solidity/contracts/token/ERC20/DetailedERC20.sol\";\n\ncontract MaxMintableWidgetRenderer is ERC20TokenWidgetRenderer {\n    using strings for *;\n    using Widgets for Widgets.Widget;\n    using UintUtils for uint;\n\n    string public constant MAX_MINTABLE = \"max_mintable\";\n    string public constant SHORT_DESC = \"short_desc\";\n    string public constant LONG_DESC = \"long_desc\";\n    string public constant AMOUNT = \"amount\";\n    string public constant UPDATE = \"update\";\n    string public constant UPDATE_CONFIRM = \"update_confirm\";\n\n    function render(string _locale, ERC20Token _token) public view returns (string) {\n        if (_token.mintable() && !_token.activated()) {\n            Elements.Element[] memory elements = new Elements.Element[](2);\n            elements[0] = Elements.Element(\n                true,\n                AMOUNT,\n                \"tokenEdit\".toSlice().concat(uint(_token.decimals()).toString().toSlice()),\n                resources[_locale][AMOUNT],\n                _token.maxMintable().toString(),\n                Actions.empty(),\n                Tables.empty()\n            );\n            elements[1] = Elements.Element(\n                true,\n                UPDATE,\n                \"button\",\n                resources[_locale][UPDATE],\n                \"null\",\n                Actions.Action(\n                    true,\n                    address(_token),\n                    \"setMaxMintable(uint256)\",\n                    '[\"amount\"]',\n                    resources[_locale][UPDATE_CONFIRM]\n                ),\n                Tables.empty()\n            );\n            Widgets.Widget memory widget = Widgets.Widget(\n                resources[_locale][MAX_MINTABLE],\n                resources[_locale][SHORT_DESC],\n                resources[_locale][LONG_DESC],\n                4,\n                elements\n            );\n            return widget.toJson();\n        } else {\n            return \"\";\n        }\n    }\n}\n",
  "sourcePath": "/Users/yoonjae/SolidityProjects/tokenboost-solidity-erc20token/contracts/token/erc20/widget/MaxMintableWidgetRenderer.sol",
  "compiler": {
    "name": "solc",
    "version": "0.4.24+commit.e67f0147.Emscripten.clang"
  },
  "schemaVersion": "2.0.1",
  "updatedAt": "2018-10-16T06:29:43.904Z"
}