{
  "contractName": "MyBalanceWidgetRenderer",
  "abi": [
    {
      "constant": true,
      "inputs": [],
      "name": "MY_BALANCE",
      "outputs": [
        {
          "name": "",
          "type": "string"
        }
      ],
      "payable": false,
      "stateMutability": "view",
      "type": "function"
    },
    {
      "constant": false,
      "inputs": [],
      "name": "renounceOwnership",
      "outputs": [],
      "payable": false,
      "stateMutability": "nonpayable",
      "type": "function"
    },
    {
      "constant": true,
      "inputs": [],
      "name": "SHORT_DESC",
      "outputs": [
        {
          "name": "",
          "type": "string"
        }
      ],
      "payable": false,
      "stateMutability": "view",
      "type": "function"
    },
    {
      "constant": true,
      "inputs": [],
      "name": "owner",
      "outputs": [
        {
          "name": "",
          "type": "address"
        }
      ],
      "payable": false,
      "stateMutability": "view",
      "type": "function"
    },
    {
      "constant": true,
      "inputs": [],
      "name": "LONG_DESC",
      "outputs": [
        {
          "name": "",
          "type": "string"
        }
      ],
      "payable": false,
      "stateMutability": "view",
      "type": "function"
    },
    {
      "constant": false,
      "inputs": [
        {
          "name": "locale",
          "type": "string"
        },
        {
          "name": "key",
          "type": "string"
        },
        {
          "name": "value",
          "type": "string"
        }
      ],
      "name": "setResource",
      "outputs": [],
      "payable": false,
      "stateMutability": "nonpayable",
      "type": "function"
    },
    {
      "constant": false,
      "inputs": [
        {
          "name": "_newOwner",
          "type": "address"
        }
      ],
      "name": "transferOwnership",
      "outputs": [],
      "payable": false,
      "stateMutability": "nonpayable",
      "type": "function"
    },
    {
      "constant": true,
      "inputs": [
        {
          "name": "locale",
          "type": "string"
        },
        {
          "name": "key",
          "type": "string"
        }
      ],
      "name": "resource",
      "outputs": [
        {
          "name": "",
          "type": "string"
        }
      ],
      "payable": false,
      "stateMutability": "view",
      "type": "function"
    },
    {
      "anonymous": false,
      "inputs": [
        {
          "indexed": true,
          "name": "previousOwner",
          "type": "address"
        }
      ],
      "name": "OwnershipRenounced",
      "type": "event"
    },
    {
      "anonymous": false,
      "inputs": [
        {
          "indexed": true,
          "name": "previousOwner",
          "type": "address"
        },
        {
          "indexed": true,
          "name": "newOwner",
          "type": "address"
        }
      ],
      "name": "OwnershipTransferred",
      "type": "event"
    },
    {
      "constant": true,
      "inputs": [
        {
          "name": "_locale",
          "type": "string"
        },
        {
          "name": "_token",
          "type": "address"
        }
      ],
      "name": "render",
      "outputs": [
        {
          "name": "",
          "type": "string"
        }
      ],
      "payable": false,
      "stateMutability": "view",
      "type": "function"
    }
  ],
  "bytecode": "0x6080604052336000806101000a81548173ffffffffffffffffffffffffffffffffffffffff021916908373ffffffffffffffffffffffffffffffffffffffff160217905550612e15806100536000396000f300608060405260043610610099576000357c0100000000000000000000000000000000000000000000000000000000900463ffffffff1680632e34ed4e1461009e578063715018a61461012e5780638b582712146101455780638da5cb5b146101d5578063ac5c6e121461022c578063ca1a70be146102bc578063ed3487fe146103be578063f2fde38b146104b3578063f65a5c1b146104f6575b600080fd5b3480156100aa57600080fd5b506100b361061e565b6040518080602001828103825283818151815260200191508051906020019080838360005b838110156100f35780820151818401526020810190506100d8565b50505050905090810190601f1680156101205780820380516001836020036101000a031916815260200191505b509250505060405180910390f35b34801561013a57600080fd5b50610143610657565b005b34801561015157600080fd5b5061015a610759565b6040518080602001828103825283818151815260200191508051906020019080838360005b8381101561019a57808201518184015260208101905061017f565b50505050905090810190601f1680156101c75780820380516001836020036101000a031916815260200191505b509250505060405180910390f35b3480156101e157600080fd5b506101ea610792565b604051808273ffffffffffffffffffffffffffffffffffffffff1673ffffffffffffffffffffffffffffffffffffffff16815260200191505060405180910390f35b34801561023857600080fd5b506102416107b7565b6040518080602001828103825283818151815260200191508051906020019080838360005b83811015610281578082015181840152602081019050610266565b50505050905090810190601f1680156102ae5780820380516001836020036101000a031916815260200191505b509250505060405180910390f35b3480156102c857600080fd5b50610343600480360381019080803590602001908201803590602001908080601f0160208091040260200160405190810160405280939291908181526020018383808284378201915050505050509192919290803573ffffffffffffffffffffffffffffffffffffffff1690602001909291905050506107f0565b6040518080602001828103825283818151815260200191508051906020019080838360005b83811015610383578082015181840152602081019050610368565b50505050905090810190601f1680156103b05780820380516001836020036101000a031916815260200191505b509250505060405180910390f35b3480156103ca57600080fd5b506104b1600480360381019080803590602001908201803590602001908080601f0160208091040260200160405190810160405280939291908181526020018383808284378201915050505050509192919290803590602001908201803590602001908080601f0160208091040260200160405190810160405280939291908181526020018383808284378201915050505050509192919290803590602001908201803590602001908080601f01602080910402602001604051908101604052809392919081815260200183838082843782019150505050505091929192905050506110a3565b005b3480156104bf57600080fd5b506104f4600480360381019080803573ffffffffffffffffffffffffffffffffffffffff1690602001909291905050506111ec565b005b34801561050257600080fd5b506105a3600480360381019080803590602001908201803590602001908080601f0160208091040260200160405190810160405280939291908181526020018383808284378201915050505050509192919290803590602001908201803590602001908080601f0160208091040260200160405190810160405280939291908181526020018383808284378201915050505050509192919290505050611253565b6040518080602001828103825283818151815260200191508051906020019080838360005b838110156105e35780820151818401526020810190506105c8565b50505050905090810190601f1680156106105780820380516001836020036101000a031916815260200191505b509250505060405180910390f35b6040805190810160405280600a81526020017f6d795f62616c616e63650000000000000000000000000000000000000000000081525081565b6000809054906101000a900473ffffffffffffffffffffffffffffffffffffffff1673ffffffffffffffffffffffffffffffffffffffff163373ffffffffffffffffffffffffffffffffffffffff161415156106b257600080fd5b6000809054906101000a900473ffffffffffffffffffffffffffffffffffffffff1673ffffffffffffffffffffffffffffffffffffffff167ff8df31144d9c2f0f6b59d69b8b98abd5459d07f2742c4df920b25aae33c6482060405160405180910390a260008060006101000a81548173ffffffffffffffffffffffffffffffffffffffff021916908373ffffffffffffffffffffffffffffffffffffffff160217905550565b6040805190810160405280600a81526020017f73686f72745f646573630000000000000000000000000000000000000000000081525081565b6000809054906101000a900473ffffffffffffffffffffffffffffffffffffffff1681565b6040805190810160405280600981526020017f6c6f6e675f64657363000000000000000000000000000000000000000000000081525081565b6060806107fb612b9c565b600160405190808252806020026020018201604052801561083657816020015b610823612bcc565b81526020019060019003908161081b5790505b50915060e0604051908101604052806001151581526020016040805190810160405280600a81526020017f6d795f62616c616e63650000000000000000000000000000000000000000000081525081526020016040805190810160405280600381526020017f657468000000000000000000000000000000000000000000000000000000000081525081526020016001876040518082805190602001908083835b6020831015156108fc57805182526020820191506020810190506020830392506108d7565b6001836020036101000a03801982511681845116808217855250505050505090500191505090815260200160405180910390206040805190810160405280600a81526020017f6d795f62616c616e6365000000000000000000000000000000000000000000008152506040518082805190602001908083835b60208310151561099a5780518252602082019150602081019050602083039250610975565b6001836020036101000a03801982511681845116808217855250505050505090500191505090815260200160405180910390208054600181600116156101000203166002900480601f016020809104026020016040519081016040528092919081815260200182805460018160011615610100020316600290048015610a615780601f10610a3657610100808354040283529160200191610a61565b820191906000526020600020905b815481529060010190602001808311610a4457829003601f168201915b50505050508152602001610b498673ffffffffffffffffffffffffffffffffffffffff166370a08231326040518263ffffffff167c0100000000000000000000000000000000000000000000000000000000028152600401808273ffffffffffffffffffffffffffffffffffffffff1673ffffffffffffffffffffffffffffffffffffffff168152602001915050602060405180830381600087803b158015610b0957600080fd5b505af1158015610b1d573d6000803e3d6000fd5b505050506040513d6020811015610b3357600080fd5b81019080805190602001909291905050506113ca565b8152602001610b566115ec565b8152602001610b6361166b565b815250826000815181101515610b7557fe5b9060200190602002018190525060a0604051908101604052806001876040518082805190602001908083835b602083101515610bc65780518252602082019150602081019050602083039250610ba1565b6001836020036101000a03801982511681845116808217855250505050505090500191505090815260200160405180910390206040805190810160405280600a81526020017f6d795f62616c616e6365000000000000000000000000000000000000000000008152506040518082805190602001908083835b602083101515610c645780518252602082019150602081019050602083039250610c3f565b6001836020036101000a03801982511681845116808217855250505050505090500191505090815260200160405180910390208054600181600116156101000203166002900480601f016020809104026020016040519081016040528092919081815260200182805460018160011615610100020316600290048015610d2b5780601f10610d0057610100808354040283529160200191610d2b565b820191906000526020600020905b815481529060010190602001808311610d0e57829003601f168201915b505050505081526020016001876040518082805190602001908083835b602083101515610d6d5780518252602082019150602081019050602083039250610d48565b6001836020036101000a03801982511681845116808217855250505050505090500191505090815260200160405180910390206040805190810160405280600a81526020017f73686f72745f64657363000000000000000000000000000000000000000000008152506040518082805190602001908083835b602083101515610e0b5780518252602082019150602081019050602083039250610de6565b6001836020036101000a03801982511681845116808217855250505050505090500191505090815260200160405180910390208054600181600116156101000203166002900480601f016020809104026020016040519081016040528092919081815260200182805460018160011615610100020316600290048015610ed25780601f10610ea757610100808354040283529160200191610ed2565b820191906000526020600020905b815481529060010190602001808311610eb557829003601f168201915b505050505081526020016001876040518082805190602001908083835b602083101515610f145780518252602082019150602081019050602083039250610eef565b6001836020036101000a03801982511681845116808217855250505050505090500191505090815260200160405180910390206040805190810160405280600981526020017f6c6f6e675f6465736300000000000000000000000000000000000000000000008152506040518082805190602001908083835b602083101515610fb25780518252602082019150602081019050602083039250610f8d565b6001836020036101000a03801982511681845116808217855250505050505090500191505090815260200160405180910390208054600181600116156101000203166002900480601f0160208091040260200160405190810160405280929190818152602001828054600181600116156101000203166002900480156110795780601f1061104e57610100808354040283529160200191611079565b820191906000526020600020905b81548152906001019060200180831161105c57829003601f168201915b505050505081526020016004815260200183815250905061109981611707565b9250505092915050565b6000809054906101000a900473ffffffffffffffffffffffffffffffffffffffff1673ffffffffffffffffffffffffffffffffffffffff163373ffffffffffffffffffffffffffffffffffffffff161415156110fe57600080fd5b806001846040518082805190602001908083835b6020831015156111375780518252602082019150602081019050602083039250611112565b6001836020036101000a0380198251168184511680821785525050505050509050019150509081526020016040518091039020836040518082805190602001908083835b6020831015156111a0578051825260208201915060208101905060208303925061117b565b6001836020036101000a038019825116818451168082178552505050505050905001915050908152602001604051809103902090805190602001906111e6929190612c19565b50505050565b6000809054906101000a900473ffffffffffffffffffffffffffffffffffffffff1673ffffffffffffffffffffffffffffffffffffffff163373ffffffffffffffffffffffffffffffffffffffff1614151561124757600080fd5b61125081611a84565b50565b60606001836040518082805190602001908083835b60208310151561128d5780518252602082019150602081019050602083039250611268565b6001836020036101000a0380198251168184511680821785525050505050509050019150509081526020016040518091039020826040518082805190602001908083835b6020831015156112f657805182526020820191506020810190506020830392506112d1565b6001836020036101000a03801982511681845116808217855250505050505090500191505090815260200160405180910390208054600181600116156101000203166002900480601f0160208091040260200160405190810160405280929190818152602001828054600181600116156101000203166002900480156113bd5780601f10611392576101008083540402835291602001916113bd565b820191906000526020600020905b8154815290600101906020018083116113a057829003601f168201915b5050505050905092915050565b60608060006060600080861415611418576040805190810160405280600181526020017f300000000000000000000000000000000000000000000000000000000000000081525094506115e3565b60206040519080825280601f01601f19166020018201604052801561144c5781602001602082028038833980820191505090505b509350600092505b60008611156114e9576030600a8781151561146b57fe5b06017f010000000000000000000000000000000000000000000000000000000000000002848481518110151561149d57fe5b9060200101907effffffffffffffffffffffffffffffffffffffffffffffffffffffffffffff1916908160001a905350600a868115156114d957fe5b0495508280600101935050611454565b82806001900393506040519080825280601f01601f1916602001820160405280156115235781602001602082028038833980820191505090505b509150600090505b81518110156115df5783838060019003945081518110151561154957fe5b9060200101517f010000000000000000000000000000000000000000000000000000000000000090047f01000000000000000000000000000000000000000000000000000000000000000282828151811015156115a257fe5b9060200101907effffffffffffffffffffffffffffffffffffffffffffffffffffffffffffff1916908160001a905350808060010191505061152b565b8194505b50505050919050565b6115f4612c99565b60a060405190810160405280600015158152602001600073ffffffffffffffffffffffffffffffffffffffff16815260200160206040519081016040528060008152508152602001602060405190810160405280600081525081526020016020604051908101604052806000815250815250905090565b611673612ce1565b60606040519081016040528060001515815260200160006040519080825280602002602001820160405280156116c357816020015b6116b0612d05565b8152602001906001900390816116a85790505b50815260200160006040519080825280602002602001820160405280156116fe57816020015b60608152602001906001900390816116e95790505b50815250905090565b60608060006040805190810160405280600a81526020017f7b227469746c65223a2200000000000000000000000000000000000000000000815250915061176b6117548560000151611b7e565b61175d84611b7e565b611bac90919063ffffffff16565b91506117c56117ae6040805190810160405280600f81526020017f222c2273686f727444657363223a220000000000000000000000000000000000815250611b7e565b6117b784611b7e565b611bac90919063ffffffff16565b91506117ee6117d78560200151611b7e565b6117e084611b7e565b611bac90919063ffffffff16565b91506118486118316040805190810160405280600e81526020017f222c226c6f6e6744657363223a22000000000000000000000000000000000000815250611b7e565b61183a84611b7e565b611bac90919063ffffffff16565b915061187161185a8560400151611b7e565b61186384611b7e565b611bac90919063ffffffff16565b91506118cb6118b46040805190810160405280600a81526020017f222c227769647468223a00000000000000000000000000000000000000000000815250611b7e565b6118bd84611b7e565b611bac90919063ffffffff16565b91506118fc6118e56118e086606001516113ca565b611b7e565b6118ee84611b7e565b611bac90919063ffffffff16565b915061195661193f6040805190810160405280600d81526020017f2c22656c656d656e7473223a5b00000000000000000000000000000000000000815250611b7e565b61194884611b7e565b611bac90919063ffffffff16565b9150600090505b836080015151811015611a235760008111156119ce576119cb6119b46040805190810160405280600181526020017f2c00000000000000000000000000000000000000000000000000000000000000815250611b7e565b6119bd84611b7e565b611bac90919063ffffffff16565b91505b611a146119fd6119f88660800151848151811015156119e957fe5b90602001906020020151611c2e565b611b7e565b611a0684611b7e565b611bac90919063ffffffff16565b9150808060010191505061195d565b611a7b611a646040805190810160405280600281526020017f5d7d000000000000000000000000000000000000000000000000000000000000815250611b7e565b611a6d84611b7e565b611bac90919063ffffffff16565b92505050919050565b600073ffffffffffffffffffffffffffffffffffffffff168173ffffffffffffffffffffffffffffffffffffffff1614151515611ac057600080fd5b8073ffffffffffffffffffffffffffffffffffffffff166000809054906101000a900473ffffffffffffffffffffffffffffffffffffffff1673ffffffffffffffffffffffffffffffffffffffff167f8be0079c531659141344cd1fd0a4f28419497f9722a3daafe3b4186f6b6457e060405160405180910390a3806000806101000a81548173ffffffffffffffffffffffffffffffffffffffff021916908373ffffffffffffffffffffffffffffffffffffffff16021790555050565b611b86612d3e565b600060208301905060408051908101604052808451815260200182815250915050919050565b606080600083600001518560000151016040519080825280601f01601f191660200182016040528015611bee5781602001602082028038833980820191505090505b509150602082019050611c0a8186602001518760000151612051565b611c238560000151820185602001518660000151612051565b819250505092915050565b606080826000015115612012576040805190810160405280600781526020017f7b226964223a22000000000000000000000000000000000000000000000000008152509050611c9a611c838460200151611b7e565b611c8c83611b7e565b611bac90919063ffffffff16565b9050611cf4611cdd6040805190810160405280600181526020017f2200000000000000000000000000000000000000000000000000000000000000815250611b7e565b611ce683611b7e565b611bac90919063ffffffff16565b90508260a001516000015115611d9057611d5c611d456040805190810160405280600b81526020017f2c2022616374696f6e223a000000000000000000000000000000000000000000815250611b7e565b611d4e83611b7e565b611bac90919063ffffffff16565b9050611d8d611d76611d718560a0015161209c565b611b7e565b611d7f83611b7e565b611bac90919063ffffffff16565b90505b8260c001516000015115611e2a57611df6611ddf6040805190810160405280600a81526020017f2c20227461626c65223a00000000000000000000000000000000000000000000815250611b7e565b611de883611b7e565b611bac90919063ffffffff16565b9050611e27611e10611e0b8560c0015161234f565b611b7e565b611e1983611b7e565b611bac90919063ffffffff16565b90505b611e82611e6b6040805190810160405280600981526020017f2c2274797065223a220000000000000000000000000000000000000000000000815250611b7e565b611e7483611b7e565b611bac90919063ffffffff16565b9050611eab611e948460400151611b7e565b611e9d83611b7e565b611bac90919063ffffffff16565b9050611f05611eee6040805190810160405280600b81526020017f222c226c6162656c223a22000000000000000000000000000000000000000000815250611b7e565b611ef783611b7e565b611bac90919063ffffffff16565b9050611f2e611f178460600151611b7e565b611f2083611b7e565b611bac90919063ffffffff16565b9050611f88611f716040805190810160405280600981526020017f222c2264617461223a0000000000000000000000000000000000000000000000815250611b7e565b611f7a83611b7e565b611bac90919063ffffffff16565b9050611fb1611f9a8460800151611b7e565b611fa383611b7e565b611bac90919063ffffffff16565b905061200b611ff46040805190810160405280600181526020017f7d00000000000000000000000000000000000000000000000000000000000000815250611b7e565b611ffd83611b7e565b611bac90919063ffffffff16565b915061204b565b6040805190810160405280600481526020017f6e756c6c0000000000000000000000000000000000000000000000000000000081525091505b50919050565b60005b6020821015156120795782518452602084019350602083019250602082039150612054565b6001826020036101000a0390508019835116818551168181178652505050505050565b606080826000015115612310576040805190810160405280600c81526020017f7b2261646472657373223a220000000000000000000000000000000000000000815250905061212661210f61210a856020015173ffffffffffffffffffffffffffffffffffffffff16612633565b611b7e565b61211883611b7e565b611bac90919063ffffffff16565b90506121806121696040805190810160405280601681526020017f222c2266756e6374696f6e53656c6563746f72223a2200000000000000000000815250611b7e565b61217283611b7e565b611bac90919063ffffffff16565b90506121a96121928460400151611b7e565b61219b83611b7e565b611bac90919063ffffffff16565b90506122036121ec6040805190810160405280600e81526020017f222c22617267756d656e7473223a000000000000000000000000000000000000815250611b7e565b6121f583611b7e565b611bac90919063ffffffff16565b905061222c6122158460600151611b7e565b61221e83611b7e565b611bac90919063ffffffff16565b905061228661226f6040805190810160405280600c81526020017f2c22636f6e6669726d223a220000000000000000000000000000000000000000815250611b7e565b61227883611b7e565b611bac90919063ffffffff16565b90506122af6122988460800151611b7e565b6122a183611b7e565b611bac90919063ffffffff16565b90506123096122f26040805190810160405280600281526020017f227d000000000000000000000000000000000000000000000000000000000000815250611b7e565b6122fb83611b7e565b611bac90919063ffffffff16565b9150612349565b6040805190810160405280600481526020017f6e756c6c0000000000000000000000000000000000000000000000000000000081525091505b50919050565b6060806000808460000151156125f2576040805190810160405280600c81526020017f7b22636f6c756d6e73223a5b0000000000000000000000000000000000000000815250925060009150600090505b84602001515181101561246c5760008211156124115761240e6123f76040805190810160405280600181526020017f2c00000000000000000000000000000000000000000000000000000000000000815250611b7e565b61240085611b7e565b611bac90919063ffffffff16565b92505b61245761244061243b87602001518481518110151561242c57fe5b9060200190602002015161283c565b611b7e565b61244985611b7e565b611bac90919063ffffffff16565b925060018201915080806001019150506123a0565b6124c46124ad6040805190810160405280600a81526020017f5d2c22726f7773223a5b00000000000000000000000000000000000000000000815250611b7e565b6124b685611b7e565b611bac90919063ffffffff16565b925060009150600090505b8460400151518110156125935760008211156125405761253d6125266040805190810160405280600181526020017f2c00000000000000000000000000000000000000000000000000000000000000815250611b7e565b61252f85611b7e565b611bac90919063ffffffff16565b92505b61257e61256786604001518381518110151561255857fe5b90602001906020020151611b7e565b61257085611b7e565b611bac90919063ffffffff16565b925060018201915080806001019150506124cf565b6125eb6125d46040805190810160405280600281526020017f5d7d000000000000000000000000000000000000000000000000000000000000815250611b7e565b6125dd85611b7e565b611bac90919063ffffffff16565b935061262b565b6040805190810160405280600481526020017f6e756c6c0000000000000000000000000000000000000000000000000000000081525093505b505050919050565b6060806000806000602a6040519080825280601f01601f19166020018201604052801561266f5781602001602082028038833980820191505090505b50935060307f0100000000000000000000000000000000000000000000000000000000000000028460008151811015156126a557fe5b9060200101907effffffffffffffffffffffffffffffffffffffffffffffffffffffffffffff1916908160001a90535060787f01000000000000000000000000000000000000000000000000000000000000000284600181518110151561270857fe5b9060200101907effffffffffffffffffffffffffffffffffffffffffffffffffffffffffffff1916908160001a905350859250600091505b602882101561283057603060108473ffffffffffffffffffffffffffffffffffffffff1681151561276d57fe5b0601905060398173ffffffffffffffffffffffffffffffffffffffff161115612797576027810190505b807f01000000000000000000000000000000000000000000000000000000000000000284600184602803018151811015156127ce57fe5b9060200101907effffffffffffffffffffffffffffffffffffffffffffffffffffffffffffff1916908160001a90535060108373ffffffffffffffffffffffffffffffffffffffff1681151561282057fe5b0492508180600101925050612740565b83945050505050919050565b606080826000015115612b5d576040805190810160405280600781526020017f7b226964223a220000000000000000000000000000000000000000000000000081525090506128a86128918460200151611b7e565b61289a83611b7e565b611bac90919063ffffffff16565b90506129026128eb6040805190810160405280600181526020017f2200000000000000000000000000000000000000000000000000000000000000815250611b7e565b6128f483611b7e565b611bac90919063ffffffff16565b9050826080015160000151156129f85761296a6129536040805190810160405280600181526020017f2c00000000000000000000000000000000000000000000000000000000000000815250611b7e565b61295c83611b7e565b611bac90919063ffffffff16565b90506129c46129ad6040805190810160405280600981526020017f22616374696f6e223a0000000000000000000000000000000000000000000000815250611b7e565b6129b683611b7e565b611bac90919063ffffffff16565b90506129f56129de6129d9856080015161209c565b611b7e565b6129e783611b7e565b611bac90919063ffffffff16565b90505b612a50612a396040805190810160405280600981526020017f2c2274797065223a220000000000000000000000000000000000000000000000815250611b7e565b612a4283611b7e565b611bac90919063ffffffff16565b9050612a79612a628460400151611b7e565b612a6b83611b7e565b611bac90919063ffffffff16565b9050612ad3612abc6040805190810160405280600b81526020017f222c226c6162656c223a22000000000000000000000000000000000000000000815250611b7e565b612ac583611b7e565b611bac90919063ffffffff16565b9050612afc612ae58460600151611b7e565b612aee83611b7e565b611bac90919063ffffffff16565b9050612b56612b3f6040805190810160405280600281526020017f227d000000000000000000000000000000000000000000000000000000000000815250611b7e565b612b4883611b7e565b611bac90919063ffffffff16565b9150612b96565b6040805190810160405280600481526020017f6e756c6c0000000000000000000000000000000000000000000000000000000081525091505b50919050565b60a06040519081016040528060608152602001606081526020016060815260200160008152602001606081525090565b6101a06040519081016040528060001515815260200160608152602001606081526020016060815260200160608152602001612c06612d58565b8152602001612c13612da0565b81525090565b828054600181600116156101000203166002900490600052602060002090601f016020900481019282601f10612c5a57805160ff1916838001178555612c88565b82800160010185558215612c88579182015b82811115612c87578251825591602001919060010190612c6c565b5b509050612c959190612dc4565b5090565b60a060405190810160405280600015158152602001600073ffffffffffffffffffffffffffffffffffffffff1681526020016060815260200160608152602001606081525090565b60606040519081016040528060001515815260200160608152602001606081525090565b61012060405190810160405280600015158152602001606081526020016060815260200160608152602001612d38612d58565b81525090565b604080519081016040528060008152602001600081525090565b60a060405190810160405280600015158152602001600073ffffffffffffffffffffffffffffffffffffffff1681526020016060815260200160608152602001606081525090565b60606040519081016040528060001515815260200160608152602001606081525090565b612de691905b80821115612de2576000816000905550600101612dca565b5090565b905600a165627a7a723058205564cb8cfe68c2859848df4beeda0356300e4e69018f3a0cd397297a0fb9fb910029",
  "source": "pragma solidity ^0.4.24;\n\nimport \"./ERC20TokenWidgetRenderer.sol\";\nimport \"tokenboost-solidity/contracts/widget/Widgets.sol\";\n\ncontract MyBalanceWidgetRenderer is ERC20TokenWidgetRenderer {\n    using Widgets for Widgets.Widget;\n    using UintUtils for uint;\n\n    string public constant MY_BALANCE = \"my_balance\";\n    string public constant SHORT_DESC = \"short_desc\";\n    string public constant LONG_DESC = \"long_desc\";\n\n    function render(string _locale, ERC20Token _token) public view returns (string) {\n        Elements.Element[] memory elements = new Elements.Element[](1);\n        elements[0] = Elements.Element(\n            true,\n            MY_BALANCE,\n            \"eth\",\n            resources[_locale][MY_BALANCE],\n            _token.balanceOf(tx.origin).toString(),\n            Actions.empty(),\n            Tables.empty()\n        );\n        Widgets.Widget memory widget = Widgets.Widget(\n            resources[_locale][MY_BALANCE],\n            resources[_locale][SHORT_DESC],\n            resources[_locale][LONG_DESC],\n            4,\n            elements\n        );\n        return widget.toJson();\n    }\n}\n",
  "sourcePath": "/Users/yoonjae/SolidityProjects/tokenboost-solidity-erc20token/contracts/token/erc20/widget/MyBalanceWidgetRenderer.sol",
  "compiler": {
    "name": "solc",
    "version": "0.4.24+commit.e67f0147.Emscripten.clang"
  },
  "schemaVersion": "2.0.1",
  "updatedAt": "2018-09-20T22:21:15.508Z"
}