{
  "contractName": "PauseWidgetRenderer",
  "abi": [
    {
      "constant": false,
      "inputs": [],
      "name": "renounceOwnership",
      "outputs": [],
      "payable": false,
      "stateMutability": "nonpayable",
      "type": "function"
    },
    {
      "constant": true,
      "inputs": [],
      "name": "PAUSE_CONFIRM",
      "outputs": [
        {
          "name": "",
          "type": "string"
        }
      ],
      "payable": false,
      "stateMutability": "view",
      "type": "function"
    },
    {
      "constant": true,
      "inputs": [],
      "name": "SHORT_DESC",
      "outputs": [
        {
          "name": "",
          "type": "string"
        }
      ],
      "payable": false,
      "stateMutability": "view",
      "type": "function"
    },
    {
      "constant": true,
      "inputs": [],
      "name": "owner",
      "outputs": [
        {
          "name": "",
          "type": "address"
        }
      ],
      "payable": false,
      "stateMutability": "view",
      "type": "function"
    },
    {
      "constant": true,
      "inputs": [],
      "name": "LONG_DESC",
      "outputs": [
        {
          "name": "",
          "type": "string"
        }
      ],
      "payable": false,
      "stateMutability": "view",
      "type": "function"
    },
    {
      "constant": true,
      "inputs": [],
      "name": "PAUSE",
      "outputs": [
        {
          "name": "",
          "type": "string"
        }
      ],
      "payable": false,
      "stateMutability": "view",
      "type": "function"
    },
    {
      "constant": false,
      "inputs": [
        {
          "name": "locale",
          "type": "string"
        },
        {
          "name": "key",
          "type": "string"
        },
        {
          "name": "value",
          "type": "string"
        }
      ],
      "name": "setResource",
      "outputs": [],
      "payable": false,
      "stateMutability": "nonpayable",
      "type": "function"
    },
    {
      "constant": false,
      "inputs": [
        {
          "name": "_newOwner",
          "type": "address"
        }
      ],
      "name": "transferOwnership",
      "outputs": [],
      "payable": false,
      "stateMutability": "nonpayable",
      "type": "function"
    },
    {
      "constant": true,
      "inputs": [
        {
          "name": "locale",
          "type": "string"
        },
        {
          "name": "key",
          "type": "string"
        }
      ],
      "name": "resource",
      "outputs": [
        {
          "name": "",
          "type": "string"
        }
      ],
      "payable": false,
      "stateMutability": "view",
      "type": "function"
    },
    {
      "anonymous": false,
      "inputs": [
        {
          "indexed": true,
          "name": "previousOwner",
          "type": "address"
        }
      ],
      "name": "OwnershipRenounced",
      "type": "event"
    },
    {
      "anonymous": false,
      "inputs": [
        {
          "indexed": true,
          "name": "previousOwner",
          "type": "address"
        },
        {
          "indexed": true,
          "name": "newOwner",
          "type": "address"
        }
      ],
      "name": "OwnershipTransferred",
      "type": "event"
    },
    {
      "constant": true,
      "inputs": [
        {
          "name": "_locale",
          "type": "string"
        },
        {
          "name": "_token",
          "type": "address"
        }
      ],
      "name": "render",
      "outputs": [
        {
          "name": "",
          "type": "string"
        }
      ],
      "payable": false,
      "stateMutability": "view",
      "type": "function"
    }
  ],
  "bytecode": "0x608060405260008054600160a060020a03191633179055612338806100256000396000f30060806040526004361061008a5763ffffffff60e060020a600035041663715018a6811461008f5780638ad7603c146100a65780638b582712146101305780638da5cb5b14610145578063ac5c6e1214610176578063ca1a70be1461018b578063e65fad97146101ef578063ed3487fe14610204578063f2fde38b146102d9578063f65a5c1b146102fa575b600080fd5b34801561009b57600080fd5b506100a4610391565b005b3480156100b257600080fd5b506100bb6103fd565b6040805160208082528351818301528351919283929083019185019080838360005b838110156100f55781810151838201526020016100dd565b50505050905090810190601f1680156101225780820380516001836020036101000a031916815260200191505b509250505060405180910390f35b34801561013c57600080fd5b506100bb610434565b34801561015157600080fd5b5061015a61046b565b60408051600160a060020a039092168252519081900360200190f35b34801561018257600080fd5b506100bb61047a565b34801561019757600080fd5b506040805160206004803580820135601f81018490048402850184019095528484526100bb94369492936024939284019190819084018382808284375094975050509235600160a060020a031693506104b192505050565b3480156101fb57600080fd5b506100bb610f3f565b34801561021057600080fd5b506040805160206004803580820135601f81018490048402850184019095528484526100a494369492936024939284019190819084018382808284375050604080516020601f89358b018035918201839004830284018301909452808352979a99988101979196509182019450925082915084018382808284375050604080516020601f89358b018035918201839004830284018301909452808352979a999881019791965091820194509250829150840183828082843750949750610f649650505050505050565b3480156102e557600080fd5b506100a4600160a060020a0360043516611051565b34801561030657600080fd5b506040805160206004803580820135601f81018490048402850184019095528484526100bb94369492936024939284019190819084018382808284375050604080516020601f89358b018035918201839004830284018301909452808352979a9998810197919650918201945092508291508401838280828437509497506110749650505050505050565b600054600160a060020a031633146103a857600080fd5b60008054604051600160a060020a03909116917ff8df31144d9c2f0f6b59d69b8b98abd5459d07f2742c4df920b25aae33c6482091a26000805473ffffffffffffffffffffffffffffffffffffffff19169055565b60408051808201909152600d81527f70617573655f636f6e6669726d00000000000000000000000000000000000000602082015281565b60408051808201909152600a81527f73686f72745f6465736300000000000000000000000000000000000000000000602082015281565b600054600160a060020a031681565b60408051808201909152600981527f6c6f6e675f646573630000000000000000000000000000000000000000000000602082015281565b6060806104bc61213d565b83600160a060020a031663367758476040518163ffffffff1660e060020a028152600401602060405180830381600087803b1580156104fa57600080fd5b505af115801561050e573d6000803e3d6000fd5b505050506040513d602081101561052457600080fd5b50518015610599575083600160a060020a0316635c975abb6040518163ffffffff1660e060020a028152600401602060405180830381600087803b15801561056b57600080fd5b505af115801561057f573d6000803e3d6000fd5b505050506040513d602081101561059557600080fd5b5051155b801561060b575083600160a060020a031663186601ca6040518163ffffffff1660e060020a028152600401602060405180830381600087803b1580156105de57600080fd5b505af11580156105f2573d6000803e3d6000fd5b505050506040513d602081101561060857600080fd5b50515b15610f255760408051600180825281830190925290816020015b61062d61216d565b81526020019060019003908161062557905050915060e0604051908101604052806001151581526020016040805190810160405280600581526020016000805160206122ed83398151915281525081526020016040805190810160405280600681526020017f627574746f6e000000000000000000000000000000000000000000000000000081525081526020016001876040518082805190602001908083835b602083106106ed5780518252601f1990920191602091820191016106ce565b51815160209384036101000a6000190180199092169116179052920194855250604080519485900382018520858201825260058087526000805160206122ed83398151915293870193845291519095945092508291908083835b602083106107665780518252601f199092019160209182019101610747565b518151600019602094850361010090810a820192831692199390931691909117909252949092019687526040805197889003820188208054601f600260018316159098029095011695909504928301829004820288018201905281875292945092505083018282801561081a5780601f106107ef5761010080835404028352916020019161081a565b820191906000526020600020905b8154815290600101906020018083116107fd57829003601f168201915b505050505081526020016040805190810160405280600481526020017f6e756c6c00000000000000000000000000000000000000000000000000000000815250815260200160a06040519081016040528060011515815260200187600160a060020a031681526020016040805190810160405280600781526020017f706175736528290000000000000000000000000000000000000000000000000081525081526020016040805190810160405280600281526020017f5b5d00000000000000000000000000000000000000000000000000000000000081525081526020016001896040518082805190602001908083835b6020831061092b5780518252601f19909201916020918201910161090c565b51815160209384036101000a60001901801990921691161790529201948552506040805194859003820185208582018252600d8087527f70617573655f636f6e6669726d0000000000000000000000000000000000000093870193845291519095945092508291908083835b602083106109b65780518252601f199092019160209182019101610997565b518151600019602094850361010090810a820192831692199390931691909117909252949092019687526040805197889003820188208054601f6002600183161590980290950116959095049283018290048202880182019052818752929450925050830182828015610a6a5780601f10610a3f57610100808354040283529160200191610a6a565b820191906000526020600020905b815481529060010190602001808311610a4d57829003601f168201915b50505050508152508152602001610a7f6111c5565b9052825183906000908110610a9057fe5b9060200190602002018190525060a0604051908101604052806001876040518082805190602001908083835b60208310610adb5780518252601f199092019160209182019101610abc565b51815160209384036101000a6000190180199092169116179052920194855250604080519485900382018520858201825260058087526000805160206122ed83398151915293870193845291519095945092508291908083835b60208310610b545780518252601f199092019160209182019101610b35565b518151600019602094850361010090810a820192831692199390931691909117909252949092019687526040805197889003820188208054601f6002600183161590980290950116959095049283018290048202880182019052818752929450925050830182828015610c085780601f10610bdd57610100808354040283529160200191610c08565b820191906000526020600020905b815481529060010190602001808311610beb57829003601f168201915b505050505081526020016001876040518082805190602001908083835b60208310610c445780518252601f199092019160209182019101610c25565b51815160209384036101000a60001901801990921691161790529201948552506040805194859003820185208582018252600a8087527f73686f72745f646573630000000000000000000000000000000000000000000093870193845291519095945092508291908083835b60208310610ccf5780518252601f199092019160209182019101610cb0565b518151600019602094850361010090810a820192831692199390931691909117909252949092019687526040805197889003820188208054601f6002600183161590980290950116959095049283018290048202880182019052818752929450925050830182828015610d835780601f10610d5857610100808354040283529160200191610d83565b820191906000526020600020905b815481529060010190602001808311610d6657829003601f168201915b505050505081526020016001876040518082805190602001908083835b60208310610dbf5780518252601f199092019160209182019101610da0565b51815160209384036101000a6000190180199092169116179052920194855250604080519485900382018520858201825260098087527f6c6f6e675f64657363000000000000000000000000000000000000000000000093870193845291519095945092508291908083835b60208310610e4a5780518252601f199092019160209182019101610e2b565b518151600019602094850361010090810a820192831692199390931691909117909252949092019687526040805197889003820188208054601f6002600183161590980290950116959095049283018290048202880182019052818752929450925050830182828015610efe5780601f10610ed357610100808354040283529160200191610efe565b820191906000526020600020905b815481529060010190602001808311610ee157829003601f168201915b5050505050815260200160048152602001838152509050610f1e81611253565b9250610f37565b60408051602081019091526000815292505b505092915050565b60408051808201909152600581526000805160206122ed833981519152602082015281565b600054600160a060020a03163314610f7b57600080fd5b806001846040518082805190602001908083835b60208310610fae5780518252601f199092019160209182019101610f8f565b51815160209384036101000a6000190180199092169116179052920194855250604051938490038101842087519094889450925082918401908083835b6020831061100a5780518252601f199092019160209182019101610feb565b51815160209384036101000a6000190180199092169116179052920194855250604051938490038101909320845161104b95919491909101925090506121b9565b50505050565b600054600160a060020a0316331461106857600080fd5b611071816114c1565b50565b60606001836040518082805190602001908083835b602083106110a85780518252601f199092019160209182019101611089565b51815160209384036101000a6000190180199092169116179052920194855250604051938490038101842086519094879450925082918401908083835b602083106111045780518252601f1990920191602091820191016110e5565b518151600019602094850361010090810a820192831692199390931691909117909252949092019687526040805197889003820188208054601f60026001831615909802909501169590950492830182900482028801820190528187529294509250508301828280156111b85780601f1061118d576101008083540402835291602001916111b8565b820191906000526020600020905b81548152906001019060200180831161119b57829003601f168201915b5050505050905092915050565b6111cd612237565b6040805160608101825260008082528251818152602081810190945291928301919061120f565b6111fc61225b565b8152602001906001900390816111f45790505b508152602001600060405190808252806020026020018201604052801561124a57816020015b60608152602001906001900390816112355790505b50905290505b90565b60408051808201909152600a81527f7b227469746c65223a220000000000000000000000000000000000000000000060208201528151606091906000906112b29061129d9061153e565b6112a68461153e565b9063ffffffff61156716565b91506112f561129d6040805190810160405280600f81526020017f222c2273686f727444657363223a22000000000000000000000000000000000081525061153e565b915061130761129d856020015161153e565b915061134a61129d6040805190810160405280600e81526020017f222c226c6f6e6744657363223a2200000000000000000000000000000000000081525061153e565b915061135c61129d856040015161153e565b915061139f61129d6040805190810160405280600a81526020017f222c227769647468223a0000000000000000000000000000000000000000000081525061153e565b91506113b961129d6113b486606001516115de565b61153e565b91506113fc61129d6040805190810160405280600d81526020017f2c22656c656d656e7473223a5b0000000000000000000000000000000000000081525061153e565b9150600090505b8360800151518110156114785760008111156114445761144161129d60408051908101604052806001815260200160fa60020a600b0281525061153e565b91505b61146e61129d6113b486608001518481518110151561145f57fe5b9060200190602002015161173d565b9150600101611403565b6114b961129d6040805190810160405280600281526020017f5d7d00000000000000000000000000000000000000000000000000000000000081525061153e565b949350505050565b600160a060020a03811615156114d657600080fd5b60008054604051600160a060020a03808516939216917f8be0079c531659141344cd1fd0a4f28419497f9722a3daafe3b4186f6b6457e091a36000805473ffffffffffffffffffffffffffffffffffffffff1916600160a060020a0392909216919091179055565b61154661228e565b50604080518082019091528151815260208281019082018190525b50919050565b606080600083600001518560000151016040519080825280601f01601f1916602001820160405280156115a4578160200160208202803883390190505b5091506020820190506115c08186602001518760000151611a2b565b8451602085015185516115d69284019190611a2b565b509392505050565b606080600081818515156116275760408051808201909152600181527f300000000000000000000000000000000000000000000000000000000000000060208201529450611734565b6040805160208082528183019092529080820161040080388339019050509350600092505b600086111561169957600a860660300160f860020a02848481518110151561167057fe5b906020010190600160f860020a031916908160001a905350600a8604955060019092019161164c565b60408051848152601f19601f860116810160200190915260001984019380156116cc578160200160208202803883390190505b509150600090505b8151811015611730578351600019840193859181106116ef57fe5b90602001015160f860020a900460f860020a02828281518110151561171057fe5b906020010190600160f860020a031916908160001a9053506001016116d4565b8194505b50505050919050565b6060808260000151156119f0576040805190810160405280600781526020017f7b226964223a2200000000000000000000000000000000000000000000000000815250905061179b611792846020015161153e565b6112a68361153e565b90506117de6117926040805190810160405280600181526020017f220000000000000000000000000000000000000000000000000000000000000081525061153e565b60a084015151909150156118455761182d6117926040805190810160405280600b81526020017f2c2022616374696f6e223a00000000000000000000000000000000000000000081525061153e565b90506118426117926113b48560a00151611a6f565b90505b60c083015151156118a9576118916117926040805190810160405280600a81526020017f2c20227461626c65223a0000000000000000000000000000000000000000000081525061153e565b90506118a66117926113b48560c00151611c12565b90505b6118ea6117926040805190810160405280600981526020017f2c2274797065223a22000000000000000000000000000000000000000000000081525061153e565b90506118fc611792846040015161153e565b905061193f6117926040805190810160405280600b81526020017f222c226c6162656c223a2200000000000000000000000000000000000000000081525061153e565b9050611951611792846060015161153e565b90506119946117926040805190810160405280600981526020017f222c2264617461223a000000000000000000000000000000000000000000000081525061153e565b90506119a6611792846080015161153e565b90506119e96117926040805190810160405280600181526020017f7d0000000000000000000000000000000000000000000000000000000000000081525061153e565b9150611561565b60408051808201909152600481527f6e756c6c0000000000000000000000000000000000000000000000000000000060208201529150611561565b60005b60208210611a50578251845260209384019390920191601f1990910190611a2e565b50905182516020929092036101000a6000190180199091169116179052565b6060808260000151156119f0576040805190810160405280600c81526020017f7b2261646472657373223a2200000000000000000000000000000000000000008152509050611ad06117926113b48560200151600160a060020a0316611e29565b9050611b136117926040805190810160405280601681526020017f222c2266756e6374696f6e53656c6563746f72223a220000000000000000000081525061153e565b9050611b25611792846040015161153e565b9050611b686117926040805190810160405280600e81526020017f222c22617267756d656e7473223a00000000000000000000000000000000000081525061153e565b9050611b7a611792846060015161153e565b9050611bbd6117926040805190810160405280600c81526020017f2c22636f6e6669726d223a22000000000000000000000000000000000000000081525061153e565b9050611bcf611792846080015161153e565b90506119e96117926040805190810160405280600281526020017f227d00000000000000000000000000000000000000000000000000000000000081525061153e565b606080600080846000015115611dea57505060408051808201909152600c81527f7b22636f6c756d6e73223a5b0000000000000000000000000000000000000000602082015290506000805b846020015151811015611ce0576000821115611ca857611ca5611c9c60408051908101604052806001815260200160fa60020a600b0281525061153e565b6112a68561153e565b92505b611cd2611c9c6113b4876020015184815181101515611cc357fe5b90602001906020020151611f6c565b925060019182019101611c5e565b611d21611c9c6040805190810160405280600a81526020017f5d2c22726f7773223a5b0000000000000000000000000000000000000000000081525061153e565b925060009150600090505b846040015151811015611da2576000821115611d6d57611d6a611c9c60408051908101604052806001815260200160fa60020a600b0281525061153e565b92505b611d94611c9c866040015183815181101515611d8557fe5b9060200190602002015161153e565b925060019182019101611d2c565b611de3611c9c6040805190810160405280600281526020017f5d7d00000000000000000000000000000000000000000000000000000000000081525061153e565b9350611e21565b60408051808201909152600481527f6e756c6c00000000000000000000000000000000000000000000000000000000602082015293505b505050919050565b60408051602a80825260608083019093528291600091829182916020820161054080388339505081519195507f3000000000000000000000000000000000000000000000000000000000000000918691506000908110611e8557fe5b906020010190600160f860020a031916908160001a90535083517f78000000000000000000000000000000000000000000000000000000000000009085906001908110611ece57fe5b906020010190600160f860020a031916908160001a905350859250600091505b6028821015611f6257506030600f8316016039600160a060020a0382161115611f15576027015b8060f860020a028483602803600101815181101515611f3057fe5b906020010190600160f860020a031916908160001a9053506010600160a060020a038416049250600190910190611eee565b5091949350505050565b6060808260000151156119f0576040805190810160405280600781526020017f7b226964223a22000000000000000000000000000000000000000000000000008152509050611fc1611792846020015161153e565b90506120046117926040805190810160405280600181526020017f220000000000000000000000000000000000000000000000000000000000000081525061153e565b608084015151909150156120955761203a61179260408051908101604052806001815260200160fa60020a600b0281525061153e565b905061207d6117926040805190810160405280600981526020017f22616374696f6e223a000000000000000000000000000000000000000000000081525061153e565b90506120926117926113b48560800151611a6f565b90505b6120d66117926040805190810160405280600981526020017f2c2274797065223a22000000000000000000000000000000000000000000000081525061153e565b90506120e8611792846040015161153e565b905061212b6117926040805190810160405280600b81526020017f222c226c6162656c223a2200000000000000000000000000000000000000000081525061153e565b9050611bcf611792846060015161153e565b60a06040519081016040528060608152602001606081526020016060815260200160008152602001606081525090565b6101a060405190810160405280600015158152602001606081526020016060815260200160608152602001606081526020016121a76122a5565b81526020016121b4612237565b905290565b828054600181600116156101000203166002900490600052602060002090601f016020900481019282601f106121fa57805160ff1916838001178555612227565b82800160010185558215612227579182015b8281111561222757825182559160200191906001019061220c565b506122339291506122d2565b5090565b60606040519081016040528060001515815260200160608152602001606081525090565b610120604051908101604052806000151581526020016060815260200160608152602001606081526020016121b46122a5565b604080518082019091526000808252602082015290565b6040805160a081018252600080825260208201526060918101829052818101829052608081019190915290565b61125091905b8082111561223357600081556001016122d856007061757365000000000000000000000000000000000000000000000000000000a165627a7a7230582084aef0c15fabcb3a468ed365e460432408f356664df8f50b6aa94e0b8f2a25840029",
  "source": "pragma solidity ^0.4.24;\n\nimport \"./ERC20TokenWidgetRenderer.sol\";\nimport \"tokenboost-solidity/contracts/widget/Widgets.sol\";\n\ncontract PauseWidgetRenderer is ERC20TokenWidgetRenderer {\n    using Widgets for Widgets.Widget;\n\n    string public constant PAUSE = \"pause\";\n    string public constant SHORT_DESC = \"short_desc\";\n    string public constant LONG_DESC = \"long_desc\";\n    string public constant PAUSE_CONFIRM = \"pause_confirm\";\n\n    function render(string _locale, ERC20Token _token) public view returns (string) {\n        if (_token.pausable() && !_token.paused() && _token.activated()) {\n            Elements.Element[] memory elements = new Elements.Element[](1);\n            elements[0] = Elements.Element(\n                true,\n                PAUSE,\n                \"button\",\n                resources[_locale][PAUSE],\n                \"null\",\n                Actions.Action(\n                    true,\n                    address(_token),\n                    \"pause()\",\n                    '[]',\n                    resources[_locale][PAUSE_CONFIRM]\n                ),\n                Tables.empty()\n            );\n            Widgets.Widget memory widget = Widgets.Widget(\n                resources[_locale][PAUSE],\n                resources[_locale][SHORT_DESC],\n                resources[_locale][LONG_DESC],\n                4,\n                elements\n            );\n            return widget.toJson();\n        } else {\n            return \"\";\n        }\n    }\n}\n",
  "sourcePath": "/Users/yoonjae/SolidityProjects/tokenboost-solidity-erc20token/contracts/token/erc20/widget/PauseWidgetRenderer.sol",
  "compiler": {
    "name": "solc",
    "version": "0.4.24+commit.e67f0147.Emscripten.clang"
  },
  "schemaVersion": "2.0.1",
  "updatedAt": "2018-10-16T06:29:43.920Z"
}