{
  "contractName": "RBACMintableToken",
  "abi": [
    {
      "constant": true,
      "inputs": [],
      "name": "mintingFinished",
      "outputs": [
        {
          "name": "",
          "type": "bool"
        }
      ],
      "payable": false,
      "stateMutability": "view",
      "type": "function"
    },
    {
      "constant": false,
      "inputs": [
        {
          "name": "_spender",
          "type": "address"
        },
        {
          "name": "_value",
          "type": "uint256"
        }
      ],
      "name": "approve",
      "outputs": [
        {
          "name": "",
          "type": "bool"
        }
      ],
      "payable": false,
      "stateMutability": "nonpayable",
      "type": "function"
    },
    {
      "constant": true,
      "inputs": [
        {
          "name": "_operator",
          "type": "address"
        },
        {
          "name": "_role",
          "type": "string"
        }
      ],
      "name": "checkRole",
      "outputs": [],
      "payable": false,
      "stateMutability": "view",
      "type": "function"
    },
    {
      "constant": true,
      "inputs": [],
      "name": "totalSupply",
      "outputs": [
        {
          "name": "",
          "type": "uint256"
        }
      ],
      "payable": false,
      "stateMutability": "view",
      "type": "function"
    },
    {
      "constant": true,
      "inputs": [
        {
          "name": "_operator",
          "type": "address"
        },
        {
          "name": "_role",
          "type": "string"
        }
      ],
      "name": "hasRole",
      "outputs": [
        {
          "name": "",
          "type": "bool"
        }
      ],
      "payable": false,
      "stateMutability": "view",
      "type": "function"
    },
    {
      "constant": false,
      "inputs": [
        {
          "name": "_from",
          "type": "address"
        },
        {
          "name": "_to",
          "type": "address"
        },
        {
          "name": "_value",
          "type": "uint256"
        }
      ],
      "name": "transferFrom",
      "outputs": [
        {
          "name": "",
          "type": "bool"
        }
      ],
      "payable": false,
      "stateMutability": "nonpayable",
      "type": "function"
    },
    {
      "constant": false,
      "inputs": [
        {
          "name": "_to",
          "type": "address"
        },
        {
          "name": "_amount",
          "type": "uint256"
        }
      ],
      "name": "mint",
      "outputs": [
        {
          "name": "",
          "type": "bool"
        }
      ],
      "payable": false,
      "stateMutability": "nonpayable",
      "type": "function"
    },
    {
      "constant": false,
      "inputs": [
        {
          "name": "_spender",
          "type": "address"
        },
        {
          "name": "_subtractedValue",
          "type": "uint256"
        }
      ],
      "name": "decreaseApproval",
      "outputs": [
        {
          "name": "",
          "type": "bool"
        }
      ],
      "payable": false,
      "stateMutability": "nonpayable",
      "type": "function"
    },
    {
      "constant": true,
      "inputs": [
        {
          "name": "_owner",
          "type": "address"
        }
      ],
      "name": "balanceOf",
      "outputs": [
        {
          "name": "",
          "type": "uint256"
        }
      ],
      "payable": false,
      "stateMutability": "view",
      "type": "function"
    },
    {
      "constant": false,
      "inputs": [],
      "name": "renounceOwnership",
      "outputs": [],
      "payable": false,
      "stateMutability": "nonpayable",
      "type": "function"
    },
    {
      "constant": false,
      "inputs": [],
      "name": "finishMinting",
      "outputs": [
        {
          "name": "",
          "type": "bool"
        }
      ],
      "payable": false,
      "stateMutability": "nonpayable",
      "type": "function"
    },
    {
      "constant": true,
      "inputs": [],
      "name": "owner",
      "outputs": [
        {
          "name": "",
          "type": "address"
        }
      ],
      "payable": false,
      "stateMutability": "view",
      "type": "function"
    },
    {
      "constant": true,
      "inputs": [],
      "name": "ROLE_MINTER",
      "outputs": [
        {
          "name": "",
          "type": "string"
        }
      ],
      "payable": false,
      "stateMutability": "view",
      "type": "function"
    },
    {
      "constant": false,
      "inputs": [
        {
          "name": "_to",
          "type": "address"
        },
        {
          "name": "_value",
          "type": "uint256"
        }
      ],
      "name": "transfer",
      "outputs": [
        {
          "name": "",
          "type": "bool"
        }
      ],
      "payable": false,
      "stateMutability": "nonpayable",
      "type": "function"
    },
    {
      "constant": false,
      "inputs": [
        {
          "name": "_spender",
          "type": "address"
        },
        {
          "name": "_addedValue",
          "type": "uint256"
        }
      ],
      "name": "increaseApproval",
      "outputs": [
        {
          "name": "",
          "type": "bool"
        }
      ],
      "payable": false,
      "stateMutability": "nonpayable",
      "type": "function"
    },
    {
      "constant": true,
      "inputs": [
        {
          "name": "_owner",
          "type": "address"
        },
        {
          "name": "_spender",
          "type": "address"
        }
      ],
      "name": "allowance",
      "outputs": [
        {
          "name": "",
          "type": "uint256"
        }
      ],
      "payable": false,
      "stateMutability": "view",
      "type": "function"
    },
    {
      "constant": false,
      "inputs": [
        {
          "name": "_newOwner",
          "type": "address"
        }
      ],
      "name": "transferOwnership",
      "outputs": [],
      "payable": false,
      "stateMutability": "nonpayable",
      "type": "function"
    },
    {
      "anonymous": false,
      "inputs": [
        {
          "indexed": true,
          "name": "operator",
          "type": "address"
        },
        {
          "indexed": false,
          "name": "role",
          "type": "string"
        }
      ],
      "name": "RoleAdded",
      "type": "event"
    },
    {
      "anonymous": false,
      "inputs": [
        {
          "indexed": true,
          "name": "operator",
          "type": "address"
        },
        {
          "indexed": false,
          "name": "role",
          "type": "string"
        }
      ],
      "name": "RoleRemoved",
      "type": "event"
    },
    {
      "anonymous": false,
      "inputs": [
        {
          "indexed": true,
          "name": "to",
          "type": "address"
        },
        {
          "indexed": false,
          "name": "amount",
          "type": "uint256"
        }
      ],
      "name": "Mint",
      "type": "event"
    },
    {
      "anonymous": false,
      "inputs": [],
      "name": "MintFinished",
      "type": "event"
    },
    {
      "anonymous": false,
      "inputs": [
        {
          "indexed": true,
          "name": "previousOwner",
          "type": "address"
        }
      ],
      "name": "OwnershipRenounced",
      "type": "event"
    },
    {
      "anonymous": false,
      "inputs": [
        {
          "indexed": true,
          "name": "previousOwner",
          "type": "address"
        },
        {
          "indexed": true,
          "name": "newOwner",
          "type": "address"
        }
      ],
      "name": "OwnershipTransferred",
      "type": "event"
    },
    {
      "anonymous": false,
      "inputs": [
        {
          "indexed": true,
          "name": "owner",
          "type": "address"
        },
        {
          "indexed": true,
          "name": "spender",
          "type": "address"
        },
        {
          "indexed": false,
          "name": "value",
          "type": "uint256"
        }
      ],
      "name": "Approval",
      "type": "event"
    },
    {
      "anonymous": false,
      "inputs": [
        {
          "indexed": true,
          "name": "from",
          "type": "address"
        },
        {
          "indexed": true,
          "name": "to",
          "type": "address"
        },
        {
          "indexed": false,
          "name": "value",
          "type": "uint256"
        }
      ],
      "name": "Transfer",
      "type": "event"
    },
    {
      "constant": false,
      "inputs": [
        {
          "name": "_minter",
          "type": "address"
        }
      ],
      "name": "addMinter",
      "outputs": [],
      "payable": false,
      "stateMutability": "nonpayable",
      "type": "function"
    },
    {
      "constant": false,
      "inputs": [
        {
          "name": "_minter",
          "type": "address"
        }
      ],
      "name": "removeMinter",
      "outputs": [],
      "payable": false,
      "stateMutability": "nonpayable",
      "type": "function"
    }
  ],
  "bytecode": "0x608060405260038054600160a860020a03191633179055611099806100256000396000f3006080604052600436106101065763ffffffff7c010000000000000000000000000000000000000000000000000000000060003504166305d2035b811461010b578063095ea7b3146101345780630988ca8c1461015857806318160ddd146101c1578063217fe6c6146101e857806323b872dd1461024f5780633092afd51461027957806340c10f191461029a57806366188463146102be57806370a08231146102e2578063715018a6146103035780637d64bcb4146103185780638da5cb5b1461032d57806392afc33a1461035e578063983b2d56146103e8578063a9059cbb14610409578063d73dd6231461042d578063dd62ed3e14610451578063f2fde38b14610478575b600080fd5b34801561011757600080fd5b50610120610499565b604080519115158252519081900360200190f35b34801561014057600080fd5b50610120600160a060020a03600435166024356104ba565b34801561016457600080fd5b5060408051602060046024803582810135601f81018590048502860185019096528585526101bf958335600160a060020a03169536956044949193909101919081908401838280828437509497506105209650505050505050565b005b3480156101cd57600080fd5b506101d661058e565b60408051918252519081900360200190f35b3480156101f457600080fd5b5060408051602060046024803582810135601f8101859004850286018501909652858552610120958335600160a060020a03169536956044949193909101919081908401838280828437509497506105949650505050505050565b34801561025b57600080fd5b50610120600160a060020a0360043581169060243516604435610607565b34801561028557600080fd5b506101bf600160a060020a036004351661077c565b3480156102a657600080fd5b50610120600160a060020a03600435166024356107c3565b3480156102ca57600080fd5b50610120600160a060020a03600435166024356108f3565b3480156102ee57600080fd5b506101d6600160a060020a03600435166109e2565b34801561030f57600080fd5b506101bf6109fd565b34801561032457600080fd5b50610120610a6b565b34801561033957600080fd5b50610342610b11565b60408051600160a060020a039092168252519081900360200190f35b34801561036a57600080fd5b50610373610b20565b6040805160208082528351818301528351919283929083019185019080838360005b838110156103ad578181015183820152602001610395565b50505050905090810190601f1680156103da5780820380516001836020036101000a031916815260200191505b509250505060405180910390f35b3480156103f457600080fd5b506101bf600160a060020a0360043516610b45565b34801561041557600080fd5b50610120600160a060020a0360043516602435610b89565b34801561043957600080fd5b50610120600160a060020a0360043516602435610c68565b34801561045d57600080fd5b506101d6600160a060020a0360043581169060243516610d01565b34801561048457600080fd5b506101bf600160a060020a0360043516610d2c565b60035474010000000000000000000000000000000000000000900460ff1681565b336000818152600260209081526040808320600160a060020a038716808552908352818420869055815186815291519394909390927f8c5be1e5ebec7d5bd14f71427d1e84f3dd0314c0f7b2291e5b200ac8c7c3b925928290030190a350600192915050565b61058a826004836040518082805190602001908083835b602083106105565780518252601f199092019160209182019101610537565b51815160209384036101000a6000190180199092169116179052920194855250604051938490030190922092915050610d4c565b5050565b60015490565b6000610600836004846040518082805190602001908083835b602083106105cc5780518252601f1990920191602091820191016105ad565b51815160209384036101000a6000190180199092169116179052920194855250604051938490030190922092915050610d61565b9392505050565b600160a060020a03831660009081526020819052604081205482111561062c57600080fd5b600160a060020a038416600090815260026020908152604080832033845290915290205482111561065c57600080fd5b600160a060020a038316151561067157600080fd5b600160a060020a03841660009081526020819052604090205461069a908363ffffffff610d8016565b600160a060020a0380861660009081526020819052604080822093909355908516815220546106cf908363ffffffff610d9216565b600160a060020a03808516600090815260208181526040808320949094559187168152600282528281203382529091522054610711908363ffffffff610d8016565b600160a060020a03808616600081815260026020908152604080832033845282529182902094909455805186815290519287169391927fddf252ad1be2c89b69c2b068fc378daa952ba7f163c4a11628f55a4df523b3ef929181900390910190a35060019392505050565b600354600160a060020a0316331461079357600080fd5b6107c08160408051908101604052806006815260200160008051602061104e833981519152815250610da5565b50565b60006107f23360408051908101604052806006815260200160008051602061104e833981519152815250610520565b60035474010000000000000000000000000000000000000000900460ff161561081a57600080fd5b60015461082d908363ffffffff610d9216565b600155600160a060020a038316600090815260208190526040902054610859908363ffffffff610d9216565b600160a060020a03841660008181526020818152604091829020939093558051858152905191927f0f6798a560793a54c3bcfe86a93cde1e73087d944c0ea20544137d412139688592918290030190a2604080518381529051600160a060020a038516916000917fddf252ad1be2c89b69c2b068fc378daa952ba7f163c4a11628f55a4df523b3ef9181900360200190a350600192915050565b336000908152600260209081526040808320600160a060020a038616845290915281205480831061094757336000908152600260209081526040808320600160a060020a038816845290915281205561097c565b610957818463ffffffff610d8016565b336000908152600260209081526040808320600160a060020a03891684529091529020555b336000818152600260209081526040808320600160a060020a0389168085529083529281902054815190815290519293927f8c5be1e5ebec7d5bd14f71427d1e84f3dd0314c0f7b2291e5b200ac8c7c3b925929181900390910190a35060019392505050565b600160a060020a031660009081526020819052604090205490565b600354600160a060020a03163314610a1457600080fd5b600354604051600160a060020a03909116907ff8df31144d9c2f0f6b59d69b8b98abd5459d07f2742c4df920b25aae33c6482090600090a26003805473ffffffffffffffffffffffffffffffffffffffff19169055565b600354600090600160a060020a03163314610a8557600080fd5b60035474010000000000000000000000000000000000000000900460ff1615610aad57600080fd5b6003805474ff00000000000000000000000000000000000000001916740100000000000000000000000000000000000000001790556040517fae5184fba832cb2b1f702aca6117b8d265eaf03ad33eb133f19dde0f5920fa0890600090a150600190565b600354600160a060020a031681565b604080518082019091526006815260008051602061104e833981519152602082015281565b600354600160a060020a03163314610b5c57600080fd5b6107c08160408051908101604052806006815260200160008051602061104e833981519152815250610eb6565b33600090815260208190526040812054821115610ba557600080fd5b600160a060020a0383161515610bba57600080fd5b33600090815260208190526040902054610bda908363ffffffff610d8016565b3360009081526020819052604080822092909255600160a060020a03851681522054610c0c908363ffffffff610d9216565b600160a060020a038416600081815260208181526040918290209390935580518581529051919233927fddf252ad1be2c89b69c2b068fc378daa952ba7f163c4a11628f55a4df523b3ef9281900390910190a350600192915050565b336000908152600260209081526040808320600160a060020a0386168452909152812054610c9c908363ffffffff610d9216565b336000818152600260209081526040808320600160a060020a0389168085529083529281902085905580519485525191937f8c5be1e5ebec7d5bd14f71427d1e84f3dd0314c0f7b2291e5b200ac8c7c3b925929081900390910190a350600192915050565b600160a060020a03918216600090815260026020908152604080832093909416825291909152205490565b600354600160a060020a03163314610d4357600080fd5b6107c081610f88565b610d568282610d61565b151561058a57600080fd5b600160a060020a03166000908152602091909152604090205460ff1690565b600082821115610d8c57fe5b50900390565b81810182811015610d9f57fe5b92915050565b610e0f826004836040518082805190602001908083835b60208310610ddb5780518252601f199092019160209182019101610dbc565b51815160209384036101000a6000190180199092169116179052920194855250604051938490030190922092915050611006565b81600160a060020a03167fd211483f91fc6eff862467f8de606587a30c8fc9981056f051b897a418df803a826040518080602001828103825283818151815260200191508051906020019080838360005b83811015610e78578181015183820152602001610e60565b50505050905090810190601f168015610ea55780820380516001836020036101000a031916815260200191505b509250505060405180910390a25050565b610f20826004836040518082805190602001908083835b60208310610eec5780518252601f199092019160209182019101610ecd565b51815160209384036101000a6000190180199092169116179052920194855250604051938490030190922092915050611028565b81600160a060020a03167fbfec83d64eaa953f2708271a023ab9ee82057f8f3578d548c1a4ba0b5b7004898260405180806020018281038252838181518152602001915080519060200190808383600083811015610e78578181015183820152602001610e60565b600160a060020a0381161515610f9d57600080fd5b600354604051600160a060020a038084169216907f8be0079c531659141344cd1fd0a4f28419497f9722a3daafe3b4186f6b6457e090600090a36003805473ffffffffffffffffffffffffffffffffffffffff1916600160a060020a0392909216919091179055565b600160a060020a0316600090815260209190915260409020805460ff19169055565b600160a060020a0316600090815260209190915260409020805460ff1916600117905556006d696e7465720000000000000000000000000000000000000000000000000000a165627a7a7230582096d52e7f11070ec27f42d4bda44bb221dbab20faec91ddfa059b8bb25e380ef90029",
  "source": "pragma solidity ^0.4.24;\n\nimport \"./MintableToken.sol\";\nimport \"../../access/rbac/RBAC.sol\";\n\n\n/**\n * @title RBACMintableToken\n * @author Vittorio Minacori (@vittominacori)\n * @dev Mintable Token, with RBAC minter permissions\n */\ncontract RBACMintableToken is MintableToken, RBAC {\n  /**\n   * A constant role name for indicating minters.\n   */\n  string public constant ROLE_MINTER = \"minter\";\n\n  /**\n   * @dev override the Mintable token modifier to add role based logic\n   */\n  modifier hasMintPermission() {\n    checkRole(msg.sender, ROLE_MINTER);\n    _;\n  }\n\n  /**\n   * @dev add a minter role to an address\n   * @param _minter address\n   */\n  function addMinter(address _minter) public onlyOwner {\n    addRole(_minter, ROLE_MINTER);\n  }\n\n  /**\n   * @dev remove a minter role from an address\n   * @param _minter address\n   */\n  function removeMinter(address _minter) public onlyOwner {\n    removeRole(_minter, ROLE_MINTER);\n  }\n}\n",
  "sourcePath": "zeppelin-solidity/contracts/token/ERC20/RBACMintableToken.sol",
  "compiler": {
    "name": "solc",
    "version": "0.4.24+commit.e67f0147.Emscripten.clang"
  },
  "schemaVersion": "2.0.1",
  "updatedAt": "2018-10-16T05:56:33.188Z"
}