{
  "contractName": "RenderableERC20Token",
  "abi": [
    {
      "constant": true,
      "inputs": [
        {
          "name": "_interfaceId",
          "type": "bytes4"
        }
      ],
      "name": "supportsInterface",
      "outputs": [
        {
          "name": "",
          "type": "bool"
        }
      ],
      "payable": false,
      "stateMutability": "view",
      "type": "function"
    },
    {
      "constant": true,
      "inputs": [],
      "name": "mintingFinished",
      "outputs": [
        {
          "name": "",
          "type": "bool"
        }
      ],
      "payable": false,
      "stateMutability": "view",
      "type": "function"
    },
    {
      "constant": true,
      "inputs": [],
      "name": "name",
      "outputs": [
        {
          "name": "",
          "type": "string"
        }
      ],
      "payable": false,
      "stateMutability": "view",
      "type": "function"
    },
    {
      "constant": false,
      "inputs": [
        {
          "name": "spender",
          "type": "address"
        },
        {
          "name": "value",
          "type": "uint256"
        }
      ],
      "name": "approve",
      "outputs": [
        {
          "name": "",
          "type": "bool"
        }
      ],
      "payable": false,
      "stateMutability": "nonpayable",
      "type": "function"
    },
    {
      "constant": true,
      "inputs": [
        {
          "name": "_operator",
          "type": "address"
        },
        {
          "name": "_role",
          "type": "string"
        }
      ],
      "name": "checkRole",
      "outputs": [],
      "payable": false,
      "stateMutability": "view",
      "type": "function"
    },
    {
      "constant": false,
      "inputs": [],
      "name": "activate",
      "outputs": [
        {
          "name": "",
          "type": "bool"
        }
      ],
      "payable": false,
      "stateMutability": "nonpayable",
      "type": "function"
    },
    {
      "constant": true,
      "inputs": [],
      "name": "InterfaceId_Token",
      "outputs": [
        {
          "name": "",
          "type": "bytes4"
        }
      ],
      "payable": false,
      "stateMutability": "view",
      "type": "function"
    },
    {
      "constant": true,
      "inputs": [],
      "name": "totalSupply",
      "outputs": [
        {
          "name": "",
          "type": "uint256"
        }
      ],
      "payable": false,
      "stateMutability": "view",
      "type": "function"
    },
    {
      "constant": true,
      "inputs": [],
      "name": "activated",
      "outputs": [
        {
          "name": "",
          "type": "bool"
        }
      ],
      "payable": false,
      "stateMutability": "view",
      "type": "function"
    },
    {
      "constant": true,
      "inputs": [],
      "name": "InterfaceId_ERC165",
      "outputs": [
        {
          "name": "",
          "type": "bytes4"
        }
      ],
      "payable": false,
      "stateMutability": "view",
      "type": "function"
    },
    {
      "constant": true,
      "inputs": [],
      "name": "maxMintable",
      "outputs": [
        {
          "name": "",
          "type": "uint256"
        }
      ],
      "payable": false,
      "stateMutability": "view",
      "type": "function"
    },
    {
      "constant": true,
      "inputs": [
        {
          "name": "_operator",
          "type": "address"
        },
        {
          "name": "_role",
          "type": "string"
        }
      ],
      "name": "hasRole",
      "outputs": [
        {
          "name": "",
          "type": "bool"
        }
      ],
      "payable": false,
      "stateMutability": "view",
      "type": "function"
    },
    {
      "constant": false,
      "inputs": [
        {
          "name": "_from",
          "type": "address"
        },
        {
          "name": "_to",
          "type": "address"
        },
        {
          "name": "_value",
          "type": "uint256"
        }
      ],
      "name": "transferFrom",
      "outputs": [
        {
          "name": "",
          "type": "bool"
        }
      ],
      "payable": false,
      "stateMutability": "nonpayable",
      "type": "function"
    },
    {
      "constant": false,
      "inputs": [
        {
          "name": "_maxMintable",
          "type": "uint256"
        }
      ],
      "name": "setMaxMintable",
      "outputs": [],
      "payable": false,
      "stateMutability": "nonpayable",
      "type": "function"
    },
    {
      "constant": false,
      "inputs": [
        {
          "name": "_minter",
          "type": "address"
        }
      ],
      "name": "removeMinter",
      "outputs": [],
      "payable": false,
      "stateMutability": "nonpayable",
      "type": "function"
    },
    {
      "constant": true,
      "inputs": [],
      "name": "decimals",
      "outputs": [
        {
          "name": "",
          "type": "uint8"
        }
      ],
      "payable": false,
      "stateMutability": "view",
      "type": "function"
    },
    {
      "constant": true,
      "inputs": [],
      "name": "pausable",
      "outputs": [
        {
          "name": "",
          "type": "bool"
        }
      ],
      "payable": false,
      "stateMutability": "view",
      "type": "function"
    },
    {
      "constant": true,
      "inputs": [],
      "name": "initialSupply",
      "outputs": [
        {
          "name": "",
          "type": "uint256"
        }
      ],
      "payable": false,
      "stateMutability": "view",
      "type": "function"
    },
    {
      "constant": false,
      "inputs": [],
      "name": "unpause",
      "outputs": [],
      "payable": false,
      "stateMutability": "nonpayable",
      "type": "function"
    },
    {
      "constant": false,
      "inputs": [
        {
          "name": "_to",
          "type": "address"
        },
        {
          "name": "_amount",
          "type": "uint256"
        }
      ],
      "name": "mint",
      "outputs": [
        {
          "name": "",
          "type": "bool"
        }
      ],
      "payable": false,
      "stateMutability": "nonpayable",
      "type": "function"
    },
    {
      "constant": false,
      "inputs": [
        {
          "name": "_value",
          "type": "uint256"
        }
      ],
      "name": "burn",
      "outputs": [],
      "payable": false,
      "stateMutability": "nonpayable",
      "type": "function"
    },
    {
      "constant": true,
      "inputs": [],
      "name": "mintable",
      "outputs": [
        {
          "name": "",
          "type": "bool"
        }
      ],
      "payable": false,
      "stateMutability": "view",
      "type": "function"
    },
    {
      "constant": true,
      "inputs": [],
      "name": "paused",
      "outputs": [
        {
          "name": "",
          "type": "bool"
        }
      ],
      "payable": false,
      "stateMutability": "view",
      "type": "function"
    },
    {
      "constant": false,
      "inputs": [
        {
          "name": "_spender",
          "type": "address"
        },
        {
          "name": "_subtractedValue",
          "type": "uint256"
        }
      ],
      "name": "decreaseApproval",
      "outputs": [
        {
          "name": "success",
          "type": "bool"
        }
      ],
      "payable": false,
      "stateMutability": "nonpayable",
      "type": "function"
    },
    {
      "constant": true,
      "inputs": [],
      "name": "template",
      "outputs": [
        {
          "name": "",
          "type": "address"
        }
      ],
      "payable": false,
      "stateMutability": "view",
      "type": "function"
    },
    {
      "constant": true,
      "inputs": [
        {
          "name": "_owner",
          "type": "address"
        }
      ],
      "name": "balanceOf",
      "outputs": [
        {
          "name": "",
          "type": "uint256"
        }
      ],
      "payable": false,
      "stateMutability": "view",
      "type": "function"
    },
    {
      "constant": false,
      "inputs": [],
      "name": "renounceOwnership",
      "outputs": [],
      "payable": false,
      "stateMutability": "nonpayable",
      "type": "function"
    },
    {
      "constant": false,
      "inputs": [],
      "name": "finishMinting",
      "outputs": [
        {
          "name": "",
          "type": "bool"
        }
      ],
      "payable": false,
      "stateMutability": "nonpayable",
      "type": "function"
    },
    {
      "constant": false,
      "inputs": [],
      "name": "pause",
      "outputs": [],
      "payable": false,
      "stateMutability": "nonpayable",
      "type": "function"
    },
    {
      "constant": true,
      "inputs": [],
      "name": "renderer",
      "outputs": [
        {
          "name": "",
          "type": "address"
        }
      ],
      "payable": false,
      "stateMutability": "view",
      "type": "function"
    },
    {
      "constant": true,
      "inputs": [],
      "name": "InterfaceId_ERC20Token",
      "outputs": [
        {
          "name": "",
          "type": "bytes4"
        }
      ],
      "payable": false,
      "stateMutability": "view",
      "type": "function"
    },
    {
      "constant": true,
      "inputs": [],
      "name": "owner",
      "outputs": [
        {
          "name": "",
          "type": "address"
        }
      ],
      "payable": false,
      "stateMutability": "view",
      "type": "function"
    },
    {
      "constant": true,
      "inputs": [],
      "name": "ROLE_MINTER",
      "outputs": [
        {
          "name": "",
          "type": "string"
        }
      ],
      "payable": false,
      "stateMutability": "view",
      "type": "function"
    },
    {
      "constant": true,
      "inputs": [],
      "name": "symbol",
      "outputs": [
        {
          "name": "",
          "type": "string"
        }
      ],
      "payable": false,
      "stateMutability": "view",
      "type": "function"
    },
    {
      "constant": false,
      "inputs": [
        {
          "name": "_minter",
          "type": "address"
        }
      ],
      "name": "addMinter",
      "outputs": [],
      "payable": false,
      "stateMutability": "nonpayable",
      "type": "function"
    },
    {
      "constant": true,
      "inputs": [],
      "name": "burnable",
      "outputs": [
        {
          "name": "",
          "type": "bool"
        }
      ],
      "payable": false,
      "stateMutability": "view",
      "type": "function"
    },
    {
      "constant": false,
      "inputs": [
        {
          "name": "_to",
          "type": "address"
        },
        {
          "name": "_value",
          "type": "uint256"
        }
      ],
      "name": "transfer",
      "outputs": [
        {
          "name": "",
          "type": "bool"
        }
      ],
      "payable": false,
      "stateMutability": "nonpayable",
      "type": "function"
    },
    {
      "constant": false,
      "inputs": [
        {
          "name": "_spender",
          "type": "address"
        },
        {
          "name": "_addedValue",
          "type": "uint256"
        }
      ],
      "name": "increaseApproval",
      "outputs": [
        {
          "name": "success",
          "type": "bool"
        }
      ],
      "payable": false,
      "stateMutability": "nonpayable",
      "type": "function"
    },
    {
      "constant": true,
      "inputs": [
        {
          "name": "_owner",
          "type": "address"
        },
        {
          "name": "_spender",
          "type": "address"
        }
      ],
      "name": "allowance",
      "outputs": [
        {
          "name": "",
          "type": "uint256"
        }
      ],
      "payable": false,
      "stateMutability": "view",
      "type": "function"
    },
    {
      "constant": false,
      "inputs": [
        {
          "name": "_name",
          "type": "string"
        },
        {
          "name": "_symbol",
          "type": "string"
        },
        {
          "name": "_decimals",
          "type": "uint8"
        },
        {
          "name": "_initialSupply",
          "type": "uint256"
        },
        {
          "name": "_mintable",
          "type": "bool"
        },
        {
          "name": "_burnable",
          "type": "bool"
        },
        {
          "name": "_pausable",
          "type": "bool"
        }
      ],
      "name": "update",
      "outputs": [],
      "payable": false,
      "stateMutability": "nonpayable",
      "type": "function"
    },
    {
      "constant": false,
      "inputs": [
        {
          "name": "_newOwner",
          "type": "address"
        }
      ],
      "name": "transferOwnership",
      "outputs": [],
      "payable": false,
      "stateMutability": "nonpayable",
      "type": "function"
    },
    {
      "constant": true,
      "inputs": [],
      "name": "InterfaceId_Contract",
      "outputs": [
        {
          "name": "",
          "type": "bytes4"
        }
      ],
      "payable": false,
      "stateMutability": "view",
      "type": "function"
    },
    {
      "inputs": [
        {
          "name": "_owner",
          "type": "address"
        },
        {
          "name": "_name",
          "type": "string"
        },
        {
          "name": "_symbol",
          "type": "string"
        }
      ],
      "payable": false,
      "stateMutability": "nonpayable",
      "type": "constructor"
    },
    {
      "anonymous": false,
      "inputs": [],
      "name": "Pause",
      "type": "event"
    },
    {
      "anonymous": false,
      "inputs": [],
      "name": "Unpause",
      "type": "event"
    },
    {
      "anonymous": false,
      "inputs": [
        {
          "indexed": true,
          "name": "burner",
          "type": "address"
        },
        {
          "indexed": false,
          "name": "value",
          "type": "uint256"
        }
      ],
      "name": "Burn",
      "type": "event"
    },
    {
      "anonymous": false,
      "inputs": [
        {
          "indexed": true,
          "name": "operator",
          "type": "address"
        },
        {
          "indexed": false,
          "name": "role",
          "type": "string"
        }
      ],
      "name": "RoleAdded",
      "type": "event"
    },
    {
      "anonymous": false,
      "inputs": [
        {
          "indexed": true,
          "name": "operator",
          "type": "address"
        },
        {
          "indexed": false,
          "name": "role",
          "type": "string"
        }
      ],
      "name": "RoleRemoved",
      "type": "event"
    },
    {
      "anonymous": false,
      "inputs": [
        {
          "indexed": true,
          "name": "to",
          "type": "address"
        },
        {
          "indexed": false,
          "name": "amount",
          "type": "uint256"
        }
      ],
      "name": "Mint",
      "type": "event"
    },
    {
      "anonymous": false,
      "inputs": [],
      "name": "MintFinished",
      "type": "event"
    },
    {
      "anonymous": false,
      "inputs": [
        {
          "indexed": true,
          "name": "previousOwner",
          "type": "address"
        }
      ],
      "name": "OwnershipRenounced",
      "type": "event"
    },
    {
      "anonymous": false,
      "inputs": [
        {
          "indexed": true,
          "name": "previousOwner",
          "type": "address"
        },
        {
          "indexed": true,
          "name": "newOwner",
          "type": "address"
        }
      ],
      "name": "OwnershipTransferred",
      "type": "event"
    },
    {
      "anonymous": false,
      "inputs": [
        {
          "indexed": true,
          "name": "owner",
          "type": "address"
        },
        {
          "indexed": true,
          "name": "spender",
          "type": "address"
        },
        {
          "indexed": false,
          "name": "value",
          "type": "uint256"
        }
      ],
      "name": "Approval",
      "type": "event"
    },
    {
      "anonymous": false,
      "inputs": [
        {
          "indexed": true,
          "name": "from",
          "type": "address"
        },
        {
          "indexed": true,
          "name": "to",
          "type": "address"
        },
        {
          "indexed": false,
          "name": "value",
          "type": "uint256"
        }
      ],
      "name": "Transfer",
      "type": "event"
    },
    {
      "constant": true,
      "inputs": [
        {
          "name": "_locale",
          "type": "string"
        }
      ],
      "name": "adminWidgets",
      "outputs": [
        {
          "name": "jsonObject",
          "type": "string"
        }
      ],
      "payable": false,
      "stateMutability": "view",
      "type": "function"
    },
    {
      "constant": true,
      "inputs": [
        {
          "name": "_locale",
          "type": "string"
        }
      ],
      "name": "userWidgets",
      "outputs": [
        {
          "name": "jsonObject",
          "type": "string"
        }
      ],
      "payable": false,
      "stateMutability": "view",
      "type": "function"
    },
    {
      "constant": true,
      "inputs": [
        {
          "name": "_locale",
          "type": "string"
        }
      ],
      "name": "inputs",
      "outputs": [
        {
          "name": "jsonArray",
          "type": "string"
        }
      ],
      "payable": false,
      "stateMutability": "view",
      "type": "function"
    }
  ],
  "bytecode": "0x60806040526008805460ff19169055600a805461ffff19166112001790553480156200002a57600080fd5b50604051620021f9380380620021f9833981016040908152815160208301519183015160038054600160a060020a031916331790559092918201910182828282828282620000a17f01ffc9a700000000000000000000000000000000000000000000000000000000640100000000620001a4810204565b6005805433600160a060020a03199182161790915560038054909116600160a060020a038316179055620000fe7f6125ede500000000000000000000000000000000000000000000000000000000640100000000620001a4810204565b5081516200011490600690602085019062000211565b5080516200012a90600790602084019062000211565b506200015f7ffd155c6700000000000000000000000000000000000000000000000000000000640100000000620001a4810204565b506200019891507f98b0f321000000000000000000000000000000000000000000000000000000009050640100000000620001a4810204565b505050505050620002b6565b7fffffffff000000000000000000000000000000000000000000000000000000008082161415620001d457600080fd5b7fffffffff00000000000000000000000000000000000000000000000000000000166000908152600460205260409020805460ff19166001179055565b828054600181600116156101000203166002900490600052602060002090601f016020900481019282601f106200025457805160ff191683800117855562000284565b8280016001018555821562000284579182015b828111156200028457825182559160200191906001019062000267565b506200029292915062000296565b5090565b620002b391905b808211156200029257600081556001016200029d565b90565b611f3380620002c66000396000f3006080604052600436106102245763ffffffff7c010000000000000000000000000000000000000000000000000000000060003504166301bd3411811461022957806301ffc9a7146102f757806305d2035b1461034257806306fdde0314610357578063095ea7b31461036c5780630988ca8c146103905780630f15f4c0146103f9578063172d02bd1461040e57806318160ddd14610455578063186601ca1461047c57806319fa8f50146104915780632154dc39146104a6578063217fe6c6146104bb57806323b872dd1461052257806325d387b51461054c5780633092afd514610564578063313ce5671461058557806336775847146105b0578063378dc3dc146105c55780633f4ba83a146105da57806340c10f19146105ef57806342966c68146106135780634bf365df1461062b5780635c975abb1461064057806366188463146106555780636f2ddd931461067957806370a08231146106aa578063715018a6146106cb5780637d64bcb4146106e05780638456cb59146106f55780638ada6b0f1461070a5780638d4da4681461071f5780638da5cb5b14610734578063908ba6481461074957806392afc33a146107a257806395d89b41146107b7578063983b2d56146107cc578063a07c7ce4146107ed578063a3a8fd2c14610802578063a9059cbb1461085b578063d73dd6231461087f578063dd62ed3e146108a3578063f2226de6146108ca578063f2fde38b14610981578063fbf964eb146109a2575b600080fd5b34801561023557600080fd5b506040805160206004803580820135601f81018490048402850184019095528484526102829436949293602493928401919081908401838280828437509497506109b79650505050505050565b6040805160208082528351818301528351919283929083019185019080838360005b838110156102bc5781810151838201526020016102a4565b50505050905090810190601f1680156102e95780820380516001836020036101000a031916815260200191505b509250505060405180910390f35b34801561030357600080fd5b5061032e7bffffffffffffffffffffffffffffffffffffffffffffffffffffffff1960043516610b20565b604080519115158252519081900360200190f35b34801561034e57600080fd5b5061032e610b54565b34801561036357600080fd5b50610282610b5d565b34801561037857600080fd5b5061032e600160a060020a0360043516602435610beb565b34801561039c57600080fd5b5060408051602060046024803582810135601f81018590048502860185019096528585526103f7958335600160a060020a0316953695604494919390910191908190840183828082843750949750610c179650505050505050565b005b34801561040557600080fd5b5061032e610c85565b34801561041a57600080fd5b50610423610cd0565b604080517bffffffffffffffffffffffffffffffffffffffffffffffffffffffff199092168252519081900360200190f35b34801561046157600080fd5b5061046a610cf4565b60408051918252519081900360200190f35b34801561048857600080fd5b5061032e610cfa565b34801561049d57600080fd5b50610423610d0a565b3480156104b257600080fd5b5061046a610d2e565b3480156104c757600080fd5b5060408051602060046024803582810135601f810185900485028601850190965285855261032e958335600160a060020a0316953695604494919390910191908190840183828082843750949750610d349650505050505050565b34801561052e57600080fd5b5061032e600160a060020a0360043581169060243516604435610da0565b34801561055857600080fd5b506103f7600435610dce565b34801561057057600080fd5b506103f7600160a060020a0360043516610e01565b34801561059157600080fd5b5061059a610e48565b6040805160ff9092168252519081900360200190f35b3480156105bc57600080fd5b5061032e610e56565b3480156105d157600080fd5b5061046a610e64565b3480156105e657600080fd5b506103f7610e6a565b3480156105fb57600080fd5b5061032e600160a060020a0360043516602435610ec7565b34801561061f57600080fd5b506103f7600435610f18565b34801561063757600080fd5b5061032e610f39565b34801561064c57600080fd5b5061032e610f42565b34801561066157600080fd5b5061032e600160a060020a0360043516602435610f4b565b34801561068557600080fd5b5061068e610f68565b60408051600160a060020a039092168252519081900360200190f35b3480156106b657600080fd5b5061046a600160a060020a0360043516610f77565b3480156106d757600080fd5b506103f7610f92565b3480156106ec57600080fd5b5061032e611000565b34801561070157600080fd5b506103f7611066565b34801561071657600080fd5b5061068e611086565b34801561072b57600080fd5b5061042361109e565b34801561074057600080fd5b5061068e6110c2565b34801561075557600080fd5b506040805160206004803580820135601f81018490048402850184019095528484526102829436949293602493928401919081908401838280828437509497506110d19650505050505050565b3480156107ae57600080fd5b5061028261115e565b3480156107c357600080fd5b50610282611183565b3480156107d857600080fd5b506103f7600160a060020a03600435166111de565b3480156107f957600080fd5b5061032e611222565b34801561080e57600080fd5b506040805160206004803580820135601f810184900484028501840190955284845261028294369492936024939284019190819084018382808284375094975061122b9650505050505050565b34801561086757600080fd5b5061032e600160a060020a03600435166024356112b8565b34801561088b57600080fd5b5061032e600160a060020a03600435166024356112dd565b3480156108af57600080fd5b5061046a600160a060020a03600435811690602435166112fa565b3480156108d657600080fd5b506040805160206004803580820135601f81018490048402850184019095528484526103f794369492936024939284019190819084018382808284375050604080516020601f89358b018035918201839004830284018301909452808352979a9998810197919650918201945092508291508401838280828437509497505060ff85351695505050602083013592604081013515159250606081013515159150608001351515611325565b34801561098d57600080fd5b506103f7600160a060020a03600435166113cb565b3480156109ae57600080fd5b506104236113eb565b604080517fbf3bed54000000000000000000000000000000000000000000000000000000008152306024820181905260048201928352835160448301528351606093735f5f4552433230546f6b656e52656e64657265729363bf3bed549387939092918291606490910190602086019080838360005b83811015610a45578181015183820152602001610a2d565b50505050905090810190601f168015610a725780820380516001836020036101000a031916815260200191505b509350505050600060405180830381600087803b158015610a9257600080fd5b505af1158015610aa6573d6000803e3d6000fd5b505050506040513d6000823e601f3d908101601f191682016040526020811015610acf57600080fd5b810190808051640100000000811115610ae757600080fd5b82016020810184811115610afa57600080fd5b8151640100000000811182820187101715610b1457600080fd5b50909695505050505050565b7bffffffffffffffffffffffffffffffffffffffffffffffffffffffff191660009081526004602052604090205460ff1690565b60085460ff1681565b6006805460408051602060026001851615610100026000190190941693909304601f81018490048402820184019092528181529291830182828015610be35780601f10610bb857610100808354040283529160200191610be3565b820191906000526020600020905b815481529060010190602001808311610bc657829003601f168201915b505050505081565b60055460009060a060020a900460ff161515610c0657600080fd5b610c10838361140f565b9392505050565b610c81826009836040518082805190602001908083835b60208310610c4d5780518252601f199092019160209182019101610c2e565b51815160209384036101000a600019018019909216911617905292019485525060405193849003019092209291505061142c565b5050565b60055460009060a060020a900460ff1615610c9f57600080fd5b600b546001819055600354600160a060020a0316600090815260208190526040902055610cca611441565b90505b90565b7ffd155c670000000000000000000000000000000000000000000000000000000081565b60015490565b60055460a060020a900460ff1681565b7f01ffc9a70000000000000000000000000000000000000000000000000000000081565b600d5481565b6000610c10836009846040518082805190602001908083835b60208310610d6c5780518252601f199092019160209182019101610d4d565b51815160209384036101000a6000190180199092169116179052920194855250604051938490030190922092915050611463565b60055460009060a060020a900460ff161515610dbb57600080fd5b610dc6848484611482565b949350505050565b600354600160a060020a03163314610de557600080fd5b60055460a060020a900460ff1615610dfc57600080fd5b600d55565b600354600160a060020a03163314610e1857600080fd5b610e4581604080519081016040528060068152602001600080516020611ec88339815191528152506114a0565b50565b600a54610100900460ff1681565b600e54610100900460ff1681565b600b5481565b600354600160a060020a03163314610e8157600080fd5b600a5460ff161515610e9257600080fd5b600a805460ff191690556040517f7805862f689e2f13df9f062ff482ad3ad112aca9e0847911ed832e158c525b3390600090a1565b60055460009060a060020a900460ff161515610ee257600080fd5b6000600d541115610f0e57600d54600154610f03908463ffffffff6115b116565b1115610f0e57600080fd5b610c1083836115c4565b60055460a060020a900460ff161515610f3057600080fd5b610e45816116ca565b600c5460ff1681565b600a5460ff1681565b600a5460009060ff1615610f5e57600080fd5b610c1083836116d4565b600554600160a060020a031681565b600160a060020a031660009081526020819052604090205490565b600354600160a060020a03163314610fa957600080fd5b600354604051600160a060020a03909116907ff8df31144d9c2f0f6b59d69b8b98abd5459d07f2742c4df920b25aae33c6482090600090a26003805473ffffffffffffffffffffffffffffffffffffffff19169055565b600354600090600160a060020a0316331461101a57600080fd5b60085460ff161561102a57600080fd5b6008805460ff191660011790556040517fae5184fba832cb2b1f702aca6117b8d265eaf03ad33eb133f19dde0f5920fa0890600090a150600190565b600e54610100900460ff16151561107c57600080fd5b6110846117c3565b565b735f5f4552433230546f6b656e52656e646572657281565b7f98b0f3210000000000000000000000000000000000000000000000000000000081565b600354600160a060020a031681565b604080517fe77cee3d000000000000000000000000000000000000000000000000000000008152306024820181905260048201928352835160448301528351606093735f5f4552433230546f6b656e52656e64657265729363e77cee3d93879390929182916064909101906020860190808383600083811015610a45578181015183820152602001610a2d565b6040805180820190915260068152600080516020611ec8833981519152602082015281565b6007805460408051602060026001851615610100026000190190941693909304601f81018490048402820184019092528181529291830182828015610be35780601f10610bb857610100808354040283529160200191610be3565b600354600160a060020a031633146111f557600080fd5b610e4581604080519081016040528060068152602001600080516020611ec8833981519152815250611822565b600e5460ff1681565b604080517fe9499555000000000000000000000000000000000000000000000000000000008152306024820181905260048201928352835160448301528351606093735f5f4552433230546f6b656e52656e64657265729363e949955593879390929182916064909101906020860190808383600083811015610a45578181015183820152602001610a2d565b60055460009060a060020a900460ff1615156112d357600080fd5b610c1083836118f4565b600a5460009060ff16156112f057600080fd5b610c108383611911565b600160a060020a03918216600090815260026020908152604080832093909416825291909152205490565b600354600160a060020a0316331461133c57600080fd5b60055460a060020a900460ff161561135357600080fd5b86516113669060069060208a0190611e2f565b50855161137a906007906020890190611e2f565b50600a805460ff90961661010090810261ff001997881617909155600b94909455600c805493151560ff19948516179055600e80549115159094029115159216919091179092169190911790555050565b600354600160a060020a031633146113e257600080fd5b610e45816119aa565b7f6125ede50000000000000000000000000000000000000000000000000000000081565b600a5460009060ff161561142257600080fd5b610c108383611a28565b6114368282611463565b1515610c8157600080fd5b600354600090600160a060020a0316331461145b57600080fd5b610cca611a8e565b600160a060020a03166000908152602091909152604090205460ff1690565b600a5460009060ff161561149557600080fd5b610dc6848484611ab7565b61150a826009836040518082805190602001908083835b602083106114d65780518252601f1990920191602091820191016114b7565b51815160209384036101000a6000190180199092169116179052920194855250604051938490030190922092915050611c1a565b81600160a060020a03167fd211483f91fc6eff862467f8de606587a30c8fc9981056f051b897a418df803a826040518080602001828103825283818151815260200191508051906020019080838360005b8381101561157357818101518382015260200161155b565b50505050905090810190601f1680156115a05780820380516001836020036101000a031916815260200191505b509250505060405180910390a25050565b818101828110156115be57fe5b92915050565b60006115f333604080519081016040528060068152602001600080516020611ec8833981519152815250610c17565b60085460ff161561160357600080fd5b600154611616908363ffffffff6115b116565b600155600160a060020a038316600090815260208190526040902054611642908363ffffffff6115b116565b600160a060020a03841660008181526020818152604091829020939093558051858152905191927f0f6798a560793a54c3bcfe86a93cde1e73087d944c0ea20544137d412139688592918290030190a2604080518381529051600160a060020a03851691600091600080516020611ee88339815191529181900360200190a350600192915050565b610e453382611c3c565b336000908152600260209081526040808320600160a060020a038616845290915281205480831061172857336000908152600260209081526040808320600160a060020a038816845290915281205561175d565b611738818463ffffffff611d2b16565b336000908152600260209081526040808320600160a060020a03891684529091529020555b336000818152600260209081526040808320600160a060020a0389168085529083529281902054815190815290519293927f8c5be1e5ebec7d5bd14f71427d1e84f3dd0314c0f7b2291e5b200ac8c7c3b925929181900390910190a35060019392505050565b600354600160a060020a031633146117da57600080fd5b600a5460ff16156117ea57600080fd5b600a805460ff191660011790556040517f6985a02210a168e66602d3235cb6db0e70f92b3ba4d376a33c0f3d9434bff62590600090a1565b61188c826009836040518082805190602001908083835b602083106118585780518252601f199092019160209182019101611839565b51815160209384036101000a6000190180199092169116179052920194855250604051938490030190922092915050611d3d565b81600160a060020a03167fbfec83d64eaa953f2708271a023ab9ee82057f8f3578d548c1a4ba0b5b700489826040518080602001828103825283818151815260200191508051906020019080838360008381101561157357818101518382015260200161155b565b600a5460009060ff161561190757600080fd5b610c108383611d62565b336000908152600260209081526040808320600160a060020a0386168452909152812054611945908363ffffffff6115b116565b336000818152600260209081526040808320600160a060020a0389168085529083529281902085905580519485525191937f8c5be1e5ebec7d5bd14f71427d1e84f3dd0314c0f7b2291e5b200ac8c7c3b925929081900390910190a350600192915050565b600160a060020a03811615156119bf57600080fd5b600354604051600160a060020a038084169216907f8be0079c531659141344cd1fd0a4f28419497f9722a3daafe3b4186f6b6457e090600090a36003805473ffffffffffffffffffffffffffffffffffffffff1916600160a060020a0392909216919091179055565b336000818152600260209081526040808320600160a060020a038716808552908352818420869055815186815291519394909390927f8c5be1e5ebec7d5bd14f71427d1e84f3dd0314c0f7b2291e5b200ac8c7c3b925928290030190a350600192915050565b6005805474ff0000000000000000000000000000000000000000191660a060020a179055600190565b600160a060020a038316600090815260208190526040812054821115611adc57600080fd5b600160a060020a0384166000908152600260209081526040808320338452909152902054821115611b0c57600080fd5b600160a060020a0383161515611b2157600080fd5b600160a060020a038416600090815260208190526040902054611b4a908363ffffffff611d2b16565b600160a060020a038086166000908152602081905260408082209390935590851681522054611b7f908363ffffffff6115b116565b600160a060020a03808516600090815260208181526040808320949094559187168152600282528281203382529091522054611bc1908363ffffffff611d2b16565b600160a060020a0380861660008181526002602090815260408083203384528252918290209490945580518681529051928716939192600080516020611ee8833981519152929181900390910190a35060019392505050565b600160a060020a0316600090815260209190915260409020805460ff19169055565b600160a060020a038216600090815260208190526040902054811115611c6157600080fd5b600160a060020a038216600090815260208190526040902054611c8a908263ffffffff611d2b16565b600160a060020a038316600090815260208190526040902055600154611cb6908263ffffffff611d2b16565b600155604080518281529051600160a060020a038416917fcc16f5dbb4873280815c1ee09dbd06736cffcc184412cf7a71a0fdb75d397ca5919081900360200190a2604080518281529051600091600160a060020a03851691600080516020611ee88339815191529181900360200190a35050565b600082821115611d3757fe5b50900390565b600160a060020a0316600090815260209190915260409020805460ff19166001179055565b33600090815260208190526040812054821115611d7e57600080fd5b600160a060020a0383161515611d9357600080fd5b33600090815260208190526040902054611db3908363ffffffff611d2b16565b3360009081526020819052604080822092909255600160a060020a03851681522054611de5908363ffffffff6115b116565b600160a060020a03841660008181526020818152604091829020939093558051858152905191923392600080516020611ee88339815191529281900390910190a350600192915050565b828054600181600116156101000203166002900490600052602060002090601f016020900481019282601f10611e7057805160ff1916838001178555611e9d565b82800160010185558215611e9d579182015b82811115611e9d578251825591602001919060010190611e82565b50611ea9929150611ead565b5090565b610ccd91905b80821115611ea95760008155600101611eb356006d696e7465720000000000000000000000000000000000000000000000000000ddf252ad1be2c89b69c2b068fc378daa952ba7f163c4a11628f55a4df523b3efa165627a7a72305820705023ebbcb6b971bad60f219d2c04de548dd5f04ad7a8397d9f86ccd667731c0029",
  "source": "pragma solidity ^0.4.24;\n\nimport \"tokenboost-solidity/contracts/widget/Renderable.sol\";\nimport \"./ERC20Token.sol\";\nimport \"./widget/ERC20TokenRenderer.sol\";\n\ncontract RenderableERC20Token is ERC20Token, Renderable {\n    ERC20TokenRenderer constant public renderer = ERC20TokenRenderer(address(bytes20(\"__ERC20TokenRenderer\")));\n\n    constructor(\n        address _owner,\n        string _name,\n        string _symbol\n    ) public ERC20Token(_owner, _name, _symbol) {\n    }\n\n    function adminWidgets(string _locale) public view returns (string jsonObject) {\n        return renderer.adminWidgets(_locale, this);\n    }\n\n    function userWidgets(string _locale) public view returns (string jsonObject) {\n        return renderer.userWidgets(_locale, this);\n    }\n\n    function inputs(string _locale) public view returns (string jsonArray) {\n        return renderer.inputs(_locale, this);\n    }\n}",
  "sourcePath": "/Users/yoonjae/SolidityProjects/tokenboost-solidity-erc20token/contracts/token/erc20/RenderableERC20Token.sol",
  "compiler": {
    "name": "solc",
    "version": "0.4.24+commit.e67f0147.Emscripten.clang"
  },
  "schemaVersion": "2.0.1",
  "updatedAt": "2018-10-07T15:52:36.175Z"
}