{
  "contractName": "Template",
  "abi": [
    {
      "constant": true,
      "inputs": [
        {
          "name": "_interfaceId",
          "type": "bytes4"
        }
      ],
      "name": "supportsInterface",
      "outputs": [
        {
          "name": "",
          "type": "bool"
        }
      ],
      "payable": false,
      "stateMutability": "view",
      "type": "function"
    },
    {
      "constant": true,
      "inputs": [],
      "name": "InterfaceId_ERC165",
      "outputs": [
        {
          "name": "",
          "type": "bytes4"
        }
      ],
      "payable": false,
      "stateMutability": "view",
      "type": "function"
    },
    {
      "constant": true,
      "inputs": [],
      "name": "beneficiary",
      "outputs": [
        {
          "name": "",
          "type": "address"
        }
      ],
      "payable": false,
      "stateMutability": "view",
      "type": "function"
    },
    {
      "constant": true,
      "inputs": [],
      "name": "bytecodeHash",
      "outputs": [
        {
          "name": "",
          "type": "bytes32"
        }
      ],
      "payable": false,
      "stateMutability": "view",
      "type": "function"
    },
    {
      "constant": true,
      "inputs": [],
      "name": "InterfaceId_Template",
      "outputs": [
        {
          "name": "",
          "type": "bytes4"
        }
      ],
      "payable": false,
      "stateMutability": "view",
      "type": "function"
    },
    {
      "constant": false,
      "inputs": [],
      "name": "renounceOwnership",
      "outputs": [],
      "payable": false,
      "stateMutability": "nonpayable",
      "type": "function"
    },
    {
      "constant": true,
      "inputs": [],
      "name": "owner",
      "outputs": [
        {
          "name": "",
          "type": "address"
        }
      ],
      "payable": false,
      "stateMutability": "view",
      "type": "function"
    },
    {
      "constant": true,
      "inputs": [],
      "name": "price",
      "outputs": [
        {
          "name": "",
          "type": "uint256"
        }
      ],
      "payable": false,
      "stateMutability": "view",
      "type": "function"
    },
    {
      "constant": false,
      "inputs": [
        {
          "name": "_newOwner",
          "type": "address"
        }
      ],
      "name": "transferOwnership",
      "outputs": [],
      "payable": false,
      "stateMutability": "nonpayable",
      "type": "function"
    },
    {
      "inputs": [
        {
          "name": "_bytecodeHash",
          "type": "bytes32"
        },
        {
          "name": "_price",
          "type": "uint256"
        },
        {
          "name": "_beneficiary",
          "type": "address"
        }
      ],
      "payable": false,
      "stateMutability": "nonpayable",
      "type": "constructor"
    },
    {
      "anonymous": false,
      "inputs": [
        {
          "indexed": true,
          "name": "creator",
          "type": "address"
        },
        {
          "indexed": true,
          "name": "contractAddress",
          "type": "address"
        }
      ],
      "name": "Instantiated",
      "type": "event"
    },
    {
      "anonymous": false,
      "inputs": [
        {
          "indexed": true,
          "name": "previousOwner",
          "type": "address"
        }
      ],
      "name": "OwnershipRenounced",
      "type": "event"
    },
    {
      "anonymous": false,
      "inputs": [
        {
          "indexed": true,
          "name": "previousOwner",
          "type": "address"
        },
        {
          "indexed": true,
          "name": "newOwner",
          "type": "address"
        }
      ],
      "name": "OwnershipTransferred",
      "type": "event"
    },
    {
      "constant": true,
      "inputs": [
        {
          "name": "_locale",
          "type": "string"
        }
      ],
      "name": "name",
      "outputs": [
        {
          "name": "",
          "type": "string"
        }
      ],
      "payable": false,
      "stateMutability": "view",
      "type": "function"
    },
    {
      "constant": true,
      "inputs": [
        {
          "name": "_locale",
          "type": "string"
        }
      ],
      "name": "description",
      "outputs": [
        {
          "name": "",
          "type": "string"
        }
      ],
      "payable": false,
      "stateMutability": "view",
      "type": "function"
    },
    {
      "constant": false,
      "inputs": [
        {
          "name": "_locale",
          "type": "string"
        },
        {
          "name": "_name",
          "type": "string"
        },
        {
          "name": "_description",
          "type": "string"
        }
      ],
      "name": "setNameAndDescription",
      "outputs": [],
      "payable": false,
      "stateMutability": "nonpayable",
      "type": "function"
    },
    {
      "constant": false,
      "inputs": [
        {
          "name": "_bytecode",
          "type": "bytes"
        },
        {
          "name": "_args",
          "type": "bytes"
        }
      ],
      "name": "instantiate",
      "outputs": [
        {
          "name": "contractAddress",
          "type": "address"
        }
      ],
      "payable": true,
      "stateMutability": "payable",
      "type": "function"
    }
  ],
  "bytecode": "0x608060405234801561001057600080fd5b50604051606080610e5283398101604090815281516020830151919092015160008054600160a060020a031916331790556100737f01ffc9a7000000000000000000000000000000000000000000000000000000006401000000006100f2810204565b6004839055600582905560068054600160a060020a031916600160a060020a03831617905560008211156100b857600654600160a060020a031615156100b857600080fd5b6100ea7fd48445ff000000000000000000000000000000000000000000000000000000006401000000006100f2810204565b505050610161565b7fffffffff00000000000000000000000000000000000000000000000000000000808216141561012157600080fd5b7fffffffff00000000000000000000000000000000000000000000000000000000166000908152600160208190526040909120805460ff19169091179055565b610ce2806101706000396000f3006080604052600436106100c45763ffffffff7c010000000000000000000000000000000000000000000000000000000060003504166301ffc9a781146100c957806319fa8f501461011457806338af3eed1461015b578063420c6a2c1461018c5780635b43bc99146101b35780636535b4a5146102815780636e63d1091461030b578063715018a61461032057806388255199146103375780638da5cb5b14610390578063a035b1fe146103a5578063b649c913146103ba578063f2fde38b1461048f575b600080fd5b3480156100d557600080fd5b506101007bffffffffffffffffffffffffffffffffffffffffffffffffffffffff19600435166104b0565b604080519115158252519081900360200190f35b34801561012057600080fd5b506101296104e4565b604080517bffffffffffffffffffffffffffffffffffffffffffffffffffffffff199092168252519081900360200190f35b34801561016757600080fd5b50610170610508565b60408051600160a060020a039092168252519081900360200190f35b34801561019857600080fd5b506101a1610517565b60408051918252519081900360200190f35b3480156101bf57600080fd5b506040805160206004803580820135601f810184900484028501840190955284845261020c94369492936024939284019190819084018382808284375094975061051d9650505050505050565b6040805160208082528351818301528351919283929083019185019080838360005b8381101561024657818101518382015260200161022e565b50505050905090810190601f1680156102735780820380516001836020036101000a031916815260200191505b509250505060405180910390f35b6040805160206004803580820135601f810184900484028501840190955284845261017094369492936024939284019190819084018382808284375050604080516020601f89358b018035918201839004830284018301909452808352979a9998810197919650918201945092508291508401838280828437509497506106119650505050505050565b34801561031757600080fd5b5061012961099d565b34801561032c57600080fd5b506103356109c1565b005b34801561034357600080fd5b506040805160206004803580820135601f810184900484028501840190955284845261020c943694929360249392840191908190840183828082843750949750610a2d9650505050505050565b34801561039c57600080fd5b50610170610a60565b3480156103b157600080fd5b506101a1610a6f565b3480156103c657600080fd5b506040805160206004803580820135601f810184900484028501840190955284845261033594369492936024939284019190819084018382808284375050604080516020601f89358b018035918201839004830284018301909452808352979a99988101979196509182019450925082915084018382808284375050604080516020601f89358b018035918201839004830284018301909452808352979a999881019791965091820194509250829150840183828082843750949750610a759650505050505050565b34801561049b57600080fd5b50610335600160a060020a0360043516610b7b565b7bffffffffffffffffffffffffffffffffffffffffffffffffffffffff191660009081526001602052604090205460ff1690565b7f01ffc9a70000000000000000000000000000000000000000000000000000000081565b600654600160a060020a031681565b60045481565b60606002826040518082805190602001908083835b602083106105515780518252601f199092019160209182019101610532565b518151600019602094850361010090810a820192831692199390931691909117909252949092019687526040805197889003820188208054601f60026001831615909802909501169590950492830182900482028801820190528187529294509250508301828280156106055780601f106105da57610100808354040283529160200191610605565b820191906000526020600020905b8154815290600101906020018083116105e857829003601f168201915b50505050509050919050565b600060606000846040518082805190602001908083835b602083106106475780518252601f199092019160209182019101610628565b5181516020939093036101000a6000190180199091169216919091179052604051920182900390912060045414925061068291505057600080fd5b84846040516020018083805190602001908083835b602083106106b65780518252601f199092019160209182019101610697565b51815160209384036101000a600019018019909216911617905285519190930192850191508083835b602083106106fe5780518252601f1990920191602091820191016106df565b6001836020036101000a0380198251168184511680821785525050505050509050019250505060405160208183030381529060405291508151602083016000f09250600160a060020a03831615156107b757604080517f08c379a000000000000000000000000000000000000000000000000000000000815260206004820152601b60248201527f43616e6e6f7420696e7374616e746961746520636f6e74726163740000000000604482015290519081900360640190fd5b50604080517f01ffc9a700000000000000000000000000000000000000000000000000000000808252600482015290518391600160a060020a038316916301ffc9a7916024808201926020929091908290030181600087803b15801561081c57600080fd5b505af1158015610830573d6000803e3d6000fd5b505050506040513d602081101561084657600080fd5b5051151561085357600080fd5b604080517f01ffc9a70000000000000000000000000000000000000000000000000000000081527f6125ede50000000000000000000000000000000000000000000000000000000060048201529051600160a060020a038316916301ffc9a79160248083019260209291908290030181600087803b1580156108d457600080fd5b505af11580156108e8573d6000803e3d6000fd5b505050506040513d60208110156108fe57600080fd5b5051151561090b57600080fd5b6000600554111561095f57600554341461092457600080fd5b600654604051600160a060020a03909116903480156108fc02916000818181858888f1935050505015801561095d573d6000803e3d6000fd5b505b604051600160a060020a0384169033907f4b9699a19830f077a7203307c78b030d114793c7d90c38f8293304371864b5e190600090a3505092915050565b7fd48445ff0000000000000000000000000000000000000000000000000000000081565b600054600160a060020a031633146109d857600080fd5b60008054604051600160a060020a03909116917ff8df31144d9c2f0f6b59d69b8b98abd5459d07f2742c4df920b25aae33c6482091a26000805473ffffffffffffffffffffffffffffffffffffffff19169055565b6060600382604051808280519060200190808383602083106105515780518252601f199092019160209182019101610532565b600054600160a060020a031681565b60055481565b600054600160a060020a03163314610a8c57600080fd5b816002846040518082805190602001908083835b60208310610abf5780518252601f199092019160209182019101610aa0565b51815160209384036101000a60001901801990921691161790529201948552506040519384900381019093208451610b009591949190910192509050610c1b565b50806003846040518082805190602001908083835b60208310610b345780518252601f199092019160209182019101610b15565b51815160209384036101000a60001901801990921691161790529201948552506040519384900381019093208451610b759591949190910192509050610c1b565b50505050565b600054600160a060020a03163314610b9257600080fd5b610b9b81610b9e565b50565b600160a060020a0381161515610bb357600080fd5b60008054604051600160a060020a03808516939216917f8be0079c531659141344cd1fd0a4f28419497f9722a3daafe3b4186f6b6457e091a36000805473ffffffffffffffffffffffffffffffffffffffff1916600160a060020a0392909216919091179055565b828054600181600116156101000203166002900490600052602060002090601f016020900481019282601f10610c5c57805160ff1916838001178555610c89565b82800160010185558215610c89579182015b82811115610c89578251825591602001919060010190610c6e565b50610c95929150610c99565b5090565b610cb391905b80821115610c955760008155600101610c9f565b905600a165627a7a7230582073cb70fcb8cea584a51bdb9ac1fc58d7098b259c098792085578ff89859b7f130029",
  "source": "pragma solidity ^0.4.24;\n\nimport \"zeppelin-solidity/contracts/ownership/Ownable.sol\";\nimport \"zeppelin-solidity/contracts/introspection/SupportsInterfaceWithLookup.sol\";\nimport \"../Contract.sol\";\n\n/**\n * @title Template\n * @notice Template instantiates `Contract`s of the same form.\n */\ncontract Template is Ownable, SupportsInterfaceWithLookup {\n    /**\n     * @notice this.owner.selector ^ this.renounceOwnership.selector ^ this.transferOwnership.selector\n        ^ this.bytecodeHash.selector ^ this.price.selector ^ this.beneficiary.selector\n        ^ this.name.selector ^ this.description.selector ^ this.setNameAndDescription.selector\n        ^ this.instantiate.selector\n     */\n    bytes4 public constant InterfaceId_Template = 0xd48445ff;\n\n    mapping(string => string) nameOfLocale;\n    mapping(string => string) descriptionOfLocale;\n    /**\n     * @notice Hash of EVM bytecode to be instantiated.\n     */\n    bytes32 public bytecodeHash;\n    /**\n     * @notice Price to pay when instantiating\n     */\n    uint public price;\n    /**\n     * @notice Address to receive payment\n     */\n    address public beneficiary;\n\n    /**\n     * @notice Logged when a new `Contract` instantiated.\n     */\n    event Instantiated(address indexed creator, address indexed contractAddress);\n\n    /**\n     * @param _bytecodeHash Hash of EVM bytecode\n     * @param _price Price of instantiating in wei\n     * @param _beneficiary Address to transfer _price when instantiating\n     */\n    constructor(\n        bytes32 _bytecodeHash,\n        uint _price,\n        address _beneficiary\n    ) public {\n        bytecodeHash = _bytecodeHash;\n        price = _price;\n        beneficiary = _beneficiary;\n        if (price > 0) {\n            require(beneficiary != address(0));\n        }\n\n        _registerInterface(InterfaceId_Template);\n    }\n\n    /**\n     * @param _locale IETF language tag(https://en.wikipedia.org/wiki/IETF_language_tag)\n     * @return Name in `_locale`.\n     */\n    function name(string _locale) public view returns (string) {\n        return nameOfLocale[_locale];\n    }\n\n    /**\n     * @param _locale IETF language tag(https://en.wikipedia.org/wiki/IETF_language_tag)\n     * @return Description in `_locale`.\n     */\n    function description(string _locale) public view returns (string) {\n        return descriptionOfLocale[_locale];\n    }\n\n    /**\n     * @param _locale IETF language tag(https://en.wikipedia.org/wiki/IETF_language_tag)\n     * @param _name Name to set\n     * @param _description Description to set\n     */\n    function setNameAndDescription(string _locale, string _name, string _description) public onlyOwner {\n        nameOfLocale[_locale] = _name;\n        descriptionOfLocale[_locale] = _description;\n    }\n\n    /**\n     * @notice `msg.sender` is passed as first argument for the newly created `Contract`.\n     * @param _bytecode Bytecode corresponding to `bytecodeHash`\n     * @param _args If arguments where passed to this function, those will be appended to the arguments for `Contract`.\n     * @return Newly created contract account's address\n     */\n    function instantiate(bytes _bytecode, bytes _args) public payable returns (address contractAddress) {\n        require(bytecodeHash == keccak256(_bytecode));\n        bytes memory calldata = abi.encodePacked(_bytecode, _args);\n        assembly {\n            contractAddress := create(0, add(calldata, 0x20), mload(calldata))\n        }\n        if (contractAddress == address(0)) {\n            revert(\"Cannot instantiate contract\");\n        } else {\n            Contract c = Contract(contractAddress);\n            // InterfaceId_ERC165\n            require(c.supportsInterface(0x01ffc9a7));\n            // InterfaceId_Contract\n            require(c.supportsInterface(0x6125ede5));\n\n            if (price > 0) {\n                require(msg.value == price);\n                beneficiary.transfer(msg.value);\n            }\n            emit Instantiated(msg.sender, contractAddress);\n        }\n    }\n}\n",
  "sourcePath": "tokenboost-solidity/contracts/template/Template.sol",
  "compiler": {
    "name": "solc",
    "version": "0.4.24+commit.e67f0147.Emscripten.clang"
  },
  "schemaVersion": "2.0.1",
  "updatedAt": "2018-09-20T21:25:35.809Z"
}