{
  "contractName": "TotalSupplyWidgetRenderer",
  "abi": [
    {
      "constant": false,
      "inputs": [],
      "name": "renounceOwnership",
      "outputs": [],
      "payable": false,
      "stateMutability": "nonpayable",
      "type": "function"
    },
    {
      "constant": true,
      "inputs": [],
      "name": "SHORT_DESC",
      "outputs": [
        {
          "name": "",
          "type": "string"
        }
      ],
      "payable": false,
      "stateMutability": "view",
      "type": "function"
    },
    {
      "constant": true,
      "inputs": [],
      "name": "owner",
      "outputs": [
        {
          "name": "",
          "type": "address"
        }
      ],
      "payable": false,
      "stateMutability": "view",
      "type": "function"
    },
    {
      "constant": true,
      "inputs": [],
      "name": "TOTAL_SUPPLY",
      "outputs": [
        {
          "name": "",
          "type": "string"
        }
      ],
      "payable": false,
      "stateMutability": "view",
      "type": "function"
    },
    {
      "constant": true,
      "inputs": [],
      "name": "LONG_DESC",
      "outputs": [
        {
          "name": "",
          "type": "string"
        }
      ],
      "payable": false,
      "stateMutability": "view",
      "type": "function"
    },
    {
      "constant": false,
      "inputs": [
        {
          "name": "locale",
          "type": "string"
        },
        {
          "name": "key",
          "type": "string"
        },
        {
          "name": "value",
          "type": "string"
        }
      ],
      "name": "setResource",
      "outputs": [],
      "payable": false,
      "stateMutability": "nonpayable",
      "type": "function"
    },
    {
      "constant": false,
      "inputs": [
        {
          "name": "_newOwner",
          "type": "address"
        }
      ],
      "name": "transferOwnership",
      "outputs": [],
      "payable": false,
      "stateMutability": "nonpayable",
      "type": "function"
    },
    {
      "constant": true,
      "inputs": [
        {
          "name": "locale",
          "type": "string"
        },
        {
          "name": "key",
          "type": "string"
        }
      ],
      "name": "resource",
      "outputs": [
        {
          "name": "",
          "type": "string"
        }
      ],
      "payable": false,
      "stateMutability": "view",
      "type": "function"
    },
    {
      "anonymous": false,
      "inputs": [
        {
          "indexed": true,
          "name": "previousOwner",
          "type": "address"
        }
      ],
      "name": "OwnershipRenounced",
      "type": "event"
    },
    {
      "anonymous": false,
      "inputs": [
        {
          "indexed": true,
          "name": "previousOwner",
          "type": "address"
        },
        {
          "indexed": true,
          "name": "newOwner",
          "type": "address"
        }
      ],
      "name": "OwnershipTransferred",
      "type": "event"
    },
    {
      "constant": true,
      "inputs": [
        {
          "name": "_locale",
          "type": "string"
        },
        {
          "name": "_token",
          "type": "address"
        }
      ],
      "name": "render",
      "outputs": [
        {
          "name": "",
          "type": "string"
        }
      ],
      "payable": false,
      "stateMutability": "view",
      "type": "function"
    }
  ],
  "bytecode": "0x608060405260008054600160a060020a0319163317905561207b806100256000396000f30060806040526004361061007f5763ffffffff60e060020a600035041663715018a681146100845780638b5827121461009b5780638da5cb5b14610125578063902d55a514610156578063ac5c6e121461016b578063ca1a70be14610180578063ed3487fe146101e4578063f2fde38b146102b9578063f65a5c1b146102da575b600080fd5b34801561009057600080fd5b50610099610371565b005b3480156100a757600080fd5b506100b06103dd565b6040805160208082528351818301528351919283929083019185019080838360005b838110156100ea5781810151838201526020016100d2565b50505050905090810190601f1680156101175780820380516001836020036101000a031916815260200191505b509250505060405180910390f35b34801561013157600080fd5b5061013a610414565b60408051600160a060020a039092168252519081900360200190f35b34801561016257600080fd5b506100b0610423565b34801561017757600080fd5b506100b0610448565b34801561018c57600080fd5b506040805160206004803580820135601f81018490048402850184019095528484526100b094369492936024939284019190819084018382808284375094975050509235600160a060020a0316935061047f92505050565b3480156101f057600080fd5b506040805160206004803580820135601f810184900484028501840190955284845261009994369492936024939284019190819084018382808284375050604080516020601f89358b018035918201839004830284018301909452808352979a99988101979196509182019450925082915084018382808284375050604080516020601f89358b018035918201839004830284018301909452808352979a999881019791965091820194509250829150840183828082843750949750610c669650505050505050565b3480156102c557600080fd5b50610099600160a060020a0360043516610d53565b3480156102e657600080fd5b506040805160206004803580820135601f81018490048402850184019095528484526100b094369492936024939284019190819084018382808284375050604080516020601f89358b018035918201839004830284018301909452808352979a999881019791965091820194509250829150840183828082843750949750610d769650505050505050565b600054600160a060020a0316331461038857600080fd5b60008054604051600160a060020a03909116917ff8df31144d9c2f0f6b59d69b8b98abd5459d07f2742c4df920b25aae33c6482091a26000805473ffffffffffffffffffffffffffffffffffffffff19169055565b60408051808201909152600a81527f73686f72745f6465736300000000000000000000000000000000000000000000602082015281565b600054600160a060020a031681565b60408051808201909152600c8152600080516020612030833981519152602082015281565b60408051808201909152600981527f6c6f6e675f646573630000000000000000000000000000000000000000000000602082015281565b60608061048a611e80565b60408051600180825281830190925290816020015b6104a7611eb0565b81526020019060019003908161049f57905050915060e0604051908101604052806001151581526020016040805190810160405280600c815260200160008051602061203083398151915281525081526020016105c461057a61057588600160a060020a031663313ce5676040518163ffffffff1660e060020a028152600401602060405180830381600087803b15801561054157600080fd5b505af1158015610555573d6000803e3d6000fd5b505050506040513d602081101561056b57600080fd5b505160ff16610ec7565b611026565b6105b86040805190810160405280600581526020017f746f6b656e000000000000000000000000000000000000000000000000000000815250611026565b9063ffffffff61104f16565b81526020016001876040518082805190602001908083835b602083106105fb5780518252601f1990920191602091820191016105dc565b51815160209384036101000a60001901801990921691161790529201948552506040805194859003820185208582018252600c80875260008051602061203083398151915293870193845291519095945092508291908083835b602083106106745780518252601f199092019160209182019101610655565b518151600019602094850361010090810a820192831692199390931691909117909252949092019687526040805197889003820188208054601f60026001831615909802909501169590950492830182900482028801820190528187529294509250508301828280156107285780601f106106fd57610100808354040283529160200191610728565b820191906000526020600020905b81548152906001019060200180831161070b57829003601f168201915b505050505081526020016107a486600160a060020a03166318160ddd6040518163ffffffff1660e060020a028152600401602060405180830381600087803b15801561077357600080fd5b505af1158015610787573d6000803e3d6000fd5b505050506040513d602081101561079d57600080fd5b5051610ec7565b81526020016107b16110c6565b81526020016107be611119565b90528251839060009081106107cf57fe5b9060200190602002018190525060a0604051908101604052806001876040518082805190602001908083835b6020831061081a5780518252601f1990920191602091820191016107fb565b51815160209384036101000a60001901801990921691161790529201948552506040805194859003820185208582018252600c80875260008051602061203083398151915293870193845291519095945092508291908083835b602083106108935780518252601f199092019160209182019101610874565b518151600019602094850361010090810a820192831692199390931691909117909252949092019687526040805197889003820188208054601f60026001831615909802909501169590950492830182900482028801820190528187529294509250508301828280156109475780601f1061091c57610100808354040283529160200191610947565b820191906000526020600020905b81548152906001019060200180831161092a57829003601f168201915b505050505081526020016001876040518082805190602001908083835b602083106109835780518252601f199092019160209182019101610964565b51815160209384036101000a60001901801990921691161790529201948552506040805194859003820185208582018252600a8087527f73686f72745f646573630000000000000000000000000000000000000000000093870193845291519095945092508291908083835b60208310610a0e5780518252601f1990920191602091820191016109ef565b518151600019602094850361010090810a820192831692199390931691909117909252949092019687526040805197889003820188208054601f6002600183161590980290950116959095049283018290048202880182019052818752929450925050830182828015610ac25780601f10610a9757610100808354040283529160200191610ac2565b820191906000526020600020905b815481529060010190602001808311610aa557829003601f168201915b505050505081526020016001876040518082805190602001908083835b60208310610afe5780518252601f199092019160209182019101610adf565b51815160209384036101000a6000190180199092169116179052920194855250604080519485900382018520858201825260098087527f6c6f6e675f64657363000000000000000000000000000000000000000000000093870193845291519095945092508291908083835b60208310610b895780518252601f199092019160209182019101610b6a565b518151600019602094850361010090810a820192831692199390931691909117909252949092019687526040805197889003820188208054601f6002600183161590980290950116959095049283018290048202880182019052818752929450925050830182828015610c3d5780601f10610c1257610100808354040283529160200191610c3d565b820191906000526020600020905b815481529060010190602001808311610c2057829003601f168201915b5050505050815260200160048152602001838152509050610c5d816111a6565b95945050505050565b600054600160a060020a03163314610c7d57600080fd5b806001846040518082805190602001908083835b60208310610cb05780518252601f199092019160209182019101610c91565b51815160209384036101000a6000190180199092169116179052920194855250604051938490038101842087519094889450925082918401908083835b60208310610d0c5780518252601f199092019160209182019101610ced565b51815160209384036101000a60001901801990921691161790529201948552506040519384900381019093208451610d4d9591949190910192509050611efc565b50505050565b600054600160a060020a03163314610d6a57600080fd5b610d7381611403565b50565b60606001836040518082805190602001908083835b60208310610daa5780518252601f199092019160209182019101610d8b565b51815160209384036101000a6000190180199092169116179052920194855250604051938490038101842086519094879450925082918401908083835b60208310610e065780518252601f199092019160209182019101610de7565b518151600019602094850361010090810a820192831692199390931691909117909252949092019687526040805197889003820188208054601f6002600183161590980290950116959095049283018290048202880182019052818752929450925050830182828015610eba5780601f10610e8f57610100808354040283529160200191610eba565b820191906000526020600020905b815481529060010190602001808311610e9d57829003601f168201915b5050505050905092915050565b60608060008181851515610f105760408051808201909152600181527f30000000000000000000000000000000000000000000000000000000000000006020820152945061101d565b6040805160208082528183019092529080820161040080388339019050509350600092505b6000861115610f8257600a860660300160f860020a028484815181101515610f5957fe5b906020010190600160f860020a031916908160001a905350600a86049550600190920191610f35565b60408051848152601f19601f86011681016020019091526000198401938015610fb5578160200160208202803883390190505b509150600090505b815181101561101957835160001984019385918110610fd857fe5b90602001015160f860020a900460f860020a028282815181101515610ff957fe5b906020010190600160f860020a031916908160001a905350600101610fbd565b8194505b50505050919050565b61102e611f7a565b50604080518082019091528151815260208281019082018190525b50919050565b606080600083600001518560000151016040519080825280601f01601f19166020018201604052801561108c578160200160208202803883390190505b5091506020820190506110a88186602001518760000151611480565b8451602085015185516110be9284019190611480565b509392505050565b6110ce611f91565b506040805160a0810182526000808252602080830182905283518082018552828152838501528351808201855282815260608401528351908101909352825260808101919091525b90565b611121611fbe565b60408051606081018252600080825282518181526020818101909452919283019190611163565b611150611fe2565b8152602001906001900390816111485790505b508152602001600060405190808252806020026020018201604052801561119e57816020015b60608152602001906001900390816111895790505b509052905090565b60408051808201909152600a81527f7b227469746c65223a220000000000000000000000000000000000000000000060208201528151606091906000906111f9906111f090611026565b6105b884611026565b915061123c6111f06040805190810160405280600f81526020017f222c2273686f727444657363223a220000000000000000000000000000000000815250611026565b915061124e6111f08560200151611026565b91506112916111f06040805190810160405280600e81526020017f222c226c6f6e6744657363223a22000000000000000000000000000000000000815250611026565b91506112a36111f08560400151611026565b91506112e66111f06040805190810160405280600a81526020017f222c227769647468223a00000000000000000000000000000000000000000000815250611026565b91506112fb6111f06105758660600151610ec7565b915061133e6111f06040805190810160405280600d81526020017f2c22656c656d656e7473223a5b00000000000000000000000000000000000000815250611026565b9150600090505b8360800151518110156113ba576000811115611386576113836111f060408051908101604052806001815260200160fa60020a600b02815250611026565b91505b6113b06111f06105758660800151848151811015156113a157fe5b906020019060200201516114c4565b9150600101611345565b6113fb6111f06040805190810160405280600281526020017f5d7d000000000000000000000000000000000000000000000000000000000000815250611026565b949350505050565b600160a060020a038116151561141857600080fd5b60008054604051600160a060020a03808516939216917f8be0079c531659141344cd1fd0a4f28419497f9722a3daafe3b4186f6b6457e091a36000805473ffffffffffffffffffffffffffffffffffffffff1916600160a060020a0392909216919091179055565b60005b602082106114a5578251845260209384019390920191601f1990910190611483565b50905182516020929092036101000a6000190180199091169116179052565b606080826000015115611777576040805190810160405280600781526020017f7b226964223a220000000000000000000000000000000000000000000000000081525090506115226115198460200151611026565b6105b883611026565b90506115656115196040805190810160405280600181526020017f2200000000000000000000000000000000000000000000000000000000000000815250611026565b60a084015151909150156115cc576115b46115196040805190810160405280600b81526020017f2c2022616374696f6e223a000000000000000000000000000000000000000000815250611026565b90506115c96115196105758560a001516117b2565b90505b60c08301515115611630576116186115196040805190810160405280600a81526020017f2c20227461626c65223a00000000000000000000000000000000000000000000815250611026565b905061162d6115196105758560c00151611955565b90505b6116716115196040805190810160405280600981526020017f2c2274797065223a220000000000000000000000000000000000000000000000815250611026565b90506116836115198460400151611026565b90506116c66115196040805190810160405280600b81526020017f222c226c6162656c223a22000000000000000000000000000000000000000000815250611026565b90506116d86115198460600151611026565b905061171b6115196040805190810160405280600981526020017f222c2264617461223a0000000000000000000000000000000000000000000000815250611026565b905061172d6115198460800151611026565b90506117706115196040805190810160405280600181526020017f7d00000000000000000000000000000000000000000000000000000000000000815250611026565b9150611049565b60408051808201909152600481527f6e756c6c0000000000000000000000000000000000000000000000000000000060208201529150611049565b606080826000015115611777576040805190810160405280600c81526020017f7b2261646472657373223a22000000000000000000000000000000000000000081525090506118136115196105758560200151600160a060020a0316611b6c565b90506118566115196040805190810160405280601681526020017f222c2266756e6374696f6e53656c6563746f72223a2200000000000000000000815250611026565b90506118686115198460400151611026565b90506118ab6115196040805190810160405280600e81526020017f222c22617267756d656e7473223a000000000000000000000000000000000000815250611026565b90506118bd6115198460600151611026565b90506119006115196040805190810160405280600c81526020017f2c22636f6e6669726d223a220000000000000000000000000000000000000000815250611026565b90506119126115198460800151611026565b90506117706115196040805190810160405280600281526020017f227d000000000000000000000000000000000000000000000000000000000000815250611026565b606080600080846000015115611b2d57505060408051808201909152600c81527f7b22636f6c756d6e73223a5b0000000000000000000000000000000000000000602082015290506000805b846020015151811015611a235760008211156119eb576119e86119df60408051908101604052806001815260200160fa60020a600b02815250611026565b6105b885611026565b92505b611a156119df610575876020015184815181101515611a0657fe5b90602001906020020151611caf565b9250600191820191016119a1565b611a646119df6040805190810160405280600a81526020017f5d2c22726f7773223a5b00000000000000000000000000000000000000000000815250611026565b925060009150600090505b846040015151811015611ae5576000821115611ab057611aad6119df60408051908101604052806001815260200160fa60020a600b02815250611026565b92505b611ad76119df866040015183815181101515611ac857fe5b90602001906020020151611026565b925060019182019101611a6f565b611b266119df6040805190810160405280600281526020017f5d7d000000000000000000000000000000000000000000000000000000000000815250611026565b9350611b64565b60408051808201909152600481527f6e756c6c00000000000000000000000000000000000000000000000000000000602082015293505b505050919050565b60408051602a80825260608083019093528291600091829182916020820161054080388339505081519195507f3000000000000000000000000000000000000000000000000000000000000000918691506000908110611bc857fe5b906020010190600160f860020a031916908160001a90535083517f78000000000000000000000000000000000000000000000000000000000000009085906001908110611c1157fe5b906020010190600160f860020a031916908160001a905350859250600091505b6028821015611ca557506030600f8316016039600160a060020a0382161115611c58576027015b8060f860020a028483602803600101815181101515611c7357fe5b906020010190600160f860020a031916908160001a9053506010600160a060020a038416049250600190910190611c31565b5091949350505050565b606080826000015115611777576040805190810160405280600781526020017f7b226964223a22000000000000000000000000000000000000000000000000008152509050611d046115198460200151611026565b9050611d476115196040805190810160405280600181526020017f2200000000000000000000000000000000000000000000000000000000000000815250611026565b60808401515190915015611dd857611d7d61151960408051908101604052806001815260200160fa60020a600b02815250611026565b9050611dc06115196040805190810160405280600981526020017f22616374696f6e223a0000000000000000000000000000000000000000000000815250611026565b9050611dd561151961057585608001516117b2565b90505b611e196115196040805190810160405280600981526020017f2c2274797065223a220000000000000000000000000000000000000000000000815250611026565b9050611e2b6115198460400151611026565b9050611e6e6115196040805190810160405280600b81526020017f222c226c6162656c223a22000000000000000000000000000000000000000000815250611026565b90506119126115198460600151611026565b60a06040519081016040528060608152602001606081526020016060815260200160008152602001606081525090565b6101a06040519081016040528060001515815260200160608152602001606081526020016060815260200160608152602001611eea611f91565b8152602001611ef7611fbe565b905290565b828054600181600116156101000203166002900490600052602060002090601f016020900481019282601f10611f3d57805160ff1916838001178555611f6a565b82800160010185558215611f6a579182015b82811115611f6a578251825591602001919060010190611f4f565b50611f76929150612015565b5090565b604080518082019091526000808252602082015290565b6040805160a081018252600080825260208201526060918101829052818101829052608081019190915290565b60606040519081016040528060001515815260200160608152602001606081525090565b61012060405190810160405280600015158152602001606081526020016060815260200160608152602001611ef7611f91565b61111691905b80821115611f76576000815560010161201b5600746f74616c5f737570706c790000000000000000000000000000000000000000a165627a7a72305820d4470b2608b5d9dde915c2a72599953da3f9231487a8d854da5074d3b9aba4570029",
  "source": "pragma solidity ^0.4.24;\n\nimport \"./ERC20TokenWidgetRenderer.sol\";\nimport \"tokenboost-solidity/contracts/widget/Widgets.sol\";\nimport \"zeppelin-solidity/contracts/token/ERC20/DetailedERC20.sol\";\n\ncontract TotalSupplyWidgetRenderer is ERC20TokenWidgetRenderer {\n    using Widgets for Widgets.Widget;\n    using strings for *;\n    using UintUtils for uint;\n\n    string public constant TOTAL_SUPPLY = \"total_supply\";\n    string public constant SHORT_DESC = \"short_desc\";\n    string public constant LONG_DESC = \"long_desc\";\n\n    function render(string _locale, ERC20Token _token) public view returns (string) {\n        Elements.Element[] memory elements = new Elements.Element[](1);\n        elements[0] = Elements.Element(\n            true,\n            TOTAL_SUPPLY,\n            \"token\".toSlice().concat(uint(_token.decimals()).toString().toSlice()),\n            resources[_locale][TOTAL_SUPPLY],\n            _token.totalSupply().toString(),\n            Actions.empty(),\n            Tables.empty()\n        );\n        Widgets.Widget memory widget = Widgets.Widget(\n            resources[_locale][TOTAL_SUPPLY],\n            resources[_locale][SHORT_DESC],\n            resources[_locale][LONG_DESC],\n            4,\n            elements\n        );\n        return widget.toJson();\n    }\n}\n",
  "sourcePath": "/Users/yoonjae/SolidityProjects/tokenboost-solidity-erc20token/contracts/token/erc20/widget/TotalSupplyWidgetRenderer.sol",
  "compiler": {
    "name": "solc",
    "version": "0.4.24+commit.e67f0147.Emscripten.clang"
  },
  "schemaVersion": "2.0.1",
  "updatedAt": "2018-09-20T22:21:15.473Z"
}