{
  "contractName": "TransferWidgetRenderer",
  "abi": [
    {
      "constant": false,
      "inputs": [],
      "name": "renounceOwnership",
      "outputs": [],
      "payable": false,
      "stateMutability": "nonpayable",
      "type": "function"
    },
    {
      "constant": true,
      "inputs": [],
      "name": "TRANSFER",
      "outputs": [
        {
          "name": "",
          "type": "string"
        }
      ],
      "payable": false,
      "stateMutability": "view",
      "type": "function"
    },
    {
      "constant": true,
      "inputs": [],
      "name": "TRANSFER_CONFIRM",
      "outputs": [
        {
          "name": "",
          "type": "string"
        }
      ],
      "payable": false,
      "stateMutability": "view",
      "type": "function"
    },
    {
      "constant": true,
      "inputs": [],
      "name": "SHORT_DESC",
      "outputs": [
        {
          "name": "",
          "type": "string"
        }
      ],
      "payable": false,
      "stateMutability": "view",
      "type": "function"
    },
    {
      "constant": true,
      "inputs": [],
      "name": "owner",
      "outputs": [
        {
          "name": "",
          "type": "address"
        }
      ],
      "payable": false,
      "stateMutability": "view",
      "type": "function"
    },
    {
      "constant": true,
      "inputs": [],
      "name": "LONG_DESC",
      "outputs": [
        {
          "name": "",
          "type": "string"
        }
      ],
      "payable": false,
      "stateMutability": "view",
      "type": "function"
    },
    {
      "constant": true,
      "inputs": [],
      "name": "RECEIVER",
      "outputs": [
        {
          "name": "",
          "type": "string"
        }
      ],
      "payable": false,
      "stateMutability": "view",
      "type": "function"
    },
    {
      "constant": true,
      "inputs": [],
      "name": "AMOUNT",
      "outputs": [
        {
          "name": "",
          "type": "string"
        }
      ],
      "payable": false,
      "stateMutability": "view",
      "type": "function"
    },
    {
      "constant": false,
      "inputs": [
        {
          "name": "locale",
          "type": "string"
        },
        {
          "name": "key",
          "type": "string"
        },
        {
          "name": "value",
          "type": "string"
        }
      ],
      "name": "setResource",
      "outputs": [],
      "payable": false,
      "stateMutability": "nonpayable",
      "type": "function"
    },
    {
      "constant": false,
      "inputs": [
        {
          "name": "_newOwner",
          "type": "address"
        }
      ],
      "name": "transferOwnership",
      "outputs": [],
      "payable": false,
      "stateMutability": "nonpayable",
      "type": "function"
    },
    {
      "constant": true,
      "inputs": [
        {
          "name": "locale",
          "type": "string"
        },
        {
          "name": "key",
          "type": "string"
        }
      ],
      "name": "resource",
      "outputs": [
        {
          "name": "",
          "type": "string"
        }
      ],
      "payable": false,
      "stateMutability": "view",
      "type": "function"
    },
    {
      "anonymous": false,
      "inputs": [
        {
          "indexed": true,
          "name": "previousOwner",
          "type": "address"
        }
      ],
      "name": "OwnershipRenounced",
      "type": "event"
    },
    {
      "anonymous": false,
      "inputs": [
        {
          "indexed": true,
          "name": "previousOwner",
          "type": "address"
        },
        {
          "indexed": true,
          "name": "newOwner",
          "type": "address"
        }
      ],
      "name": "OwnershipTransferred",
      "type": "event"
    },
    {
      "constant": true,
      "inputs": [
        {
          "name": "_locale",
          "type": "string"
        },
        {
          "name": "_token",
          "type": "address"
        }
      ],
      "name": "render",
      "outputs": [
        {
          "name": "",
          "type": "string"
        }
      ],
      "payable": false,
      "stateMutability": "view",
      "type": "function"
    }
  ],
  "bytecode": "0x608060405260008054600160a060020a031916331790556128bf806100256000396000f3006080604052600436106100a05763ffffffff60e060020a600035041663715018a681146100a557806376420e1d146100bc5780638143b2ea146101465780638b5827121461015b5780638da5cb5b14610170578063ac5c6e12146101a1578063ad7430cc146101b6578063ca1a70be146101cb578063d17891761461022f578063ed3487fe14610244578063f2fde38b14610319578063f65a5c1b1461033a575b600080fd5b3480156100b157600080fd5b506100ba6103d1565b005b3480156100c857600080fd5b506100d161043d565b6040805160208082528351818301528351919283929083019185019080838360005b8381101561010b5781810151838201526020016100f3565b50505050905090810190601f1680156101385780820380516001836020036101000a031916815260200191505b509250505060405180910390f35b34801561015257600080fd5b506100d1610462565b34801561016757600080fd5b506100d1610499565b34801561017c57600080fd5b506101856104d0565b60408051600160a060020a039092168252519081900360200190f35b3480156101ad57600080fd5b506100d16104df565b3480156101c257600080fd5b506100d1610516565b3480156101d757600080fd5b506040805160206004803580820135601f81018490048402850184019095528484526100d194369492936024939284019190819084018382808284375094975050509235600160a060020a0316935061054d92505050565b34801561023b57600080fd5b506100d1611473565b34801561025057600080fd5b506040805160206004803580820135601f81018490048402850184019095528484526100ba94369492936024939284019190819084018382808284375050604080516020601f89358b018035918201839004830284018301909452808352979a99988101979196509182019450925082915084018382808284375050604080516020601f89358b018035918201839004830284018301909452808352979a9998810197919650918201945092508291508401838280828437509497506114aa9650505050505050565b34801561032557600080fd5b506100ba600160a060020a0360043516611597565b34801561034657600080fd5b506040805160206004803580820135601f81018490048402850184019095528484526100d194369492936024939284019190819084018382808284375050604080516020601f89358b018035918201839004830284018301909452808352979a9998810197919650918201945092508291508401838280828437509497506115ba9650505050505050565b600054600160a060020a031633146103e857600080fd5b60008054604051600160a060020a03909116917ff8df31144d9c2f0f6b59d69b8b98abd5459d07f2742c4df920b25aae33c6482091a26000805473ffffffffffffffffffffffffffffffffffffffff19169055565b6040805180820190915260088152600080516020612874833981519152602082015281565b60408051808201909152601081527f7472616e736665725f636f6e6669726d00000000000000000000000000000000602082015281565b60408051808201909152600a81527f73686f72745f6465736300000000000000000000000000000000000000000000602082015281565b600054600160a060020a031681565b60408051808201909152600981527f6c6f6e675f646573630000000000000000000000000000000000000000000000602082015281565b60408051808201909152600881527f7265636569766572000000000000000000000000000000000000000000000000602082015281565b6060806105586126c4565b83600160a060020a031663186601ca6040518163ffffffff1660e060020a028152600401602060405180830381600087803b15801561059657600080fd5b505af11580156105aa573d6000803e3d6000fd5b505050506040513d60208110156105c057600080fd5b505115611459576040805160038082526080820190925290816020015b6105e56126f4565b8152602001906001900390816105dd57905050915060e0604051908101604052806001151581526020016040805190810160405280600881526020017f726563656976657200000000000000000000000000000000000000000000000081525081526020016040805190810160405280600781526020017f616464726573730000000000000000000000000000000000000000000000000081525081526020016001876040518082805190602001908083835b602083106106b75780518252601f199092019160209182019101610698565b51815160209384036101000a6000190180199092169116179052920194855250604080519485900382018520858201825260088087527f726563656976657200000000000000000000000000000000000000000000000093870193845291519095945092508291908083835b602083106107425780518252601f199092019160209182019101610723565b518151600019602094850361010090810a820192831692199390931691909117909252949092019687526040805197889003820188208054601f60026001831615909802909501169590950492830182900482028801820190528187529294509250508301828280156107f65780601f106107cb576101008083540402835291602001916107f6565b820191906000526020600020905b8154815290600101906020018083116107d957829003601f168201915b505050505081526020016040805190810160405280600281526020017f2222000000000000000000000000000000000000000000000000000000000000815250815260200161084361170b565b815260200161085061175e565b905282518390600090811061086157fe5b9060200190602002018190525060e0604051908101604052806001151581526020016040805190810160405280600681526020017f616d6f756e740000000000000000000000000000000000000000000000000000815250815260200161098861093e61093988600160a060020a031663313ce5676040518163ffffffff1660e060020a028152600401602060405180830381600087803b15801561090557600080fd5b505af1158015610919573d6000803e3d6000fd5b505050506040513d602081101561092f57600080fd5b505160ff166117eb565b61194a565b61097c6040805190810160405280600981526020017f746f6b656e45646974000000000000000000000000000000000000000000000081525061194a565b9063ffffffff61197316565b81526020016001876040518082805190602001908083835b602083106109bf5780518252601f1990920191602091820191016109a0565b51815160209384036101000a6000190180199092169116179052920194855250604080519485900382018520858201825260068087527f616d6f756e74000000000000000000000000000000000000000000000000000093870193845291519095945092508291908083835b60208310610a4a5780518252601f199092019160209182019101610a2b565b518151600019602094850361010090810a820192831692199390931691909117909252949092019687526040805197889003820188208054601f6002600183161590980290950116959095049283018290048202880182019052818752929450925050830182828015610afe5780601f10610ad357610100808354040283529160200191610afe565b820191906000526020600020905b815481529060010190602001808311610ae157829003601f168201915b505050505081526020016040805190810160405280600181526020017f30000000000000000000000000000000000000000000000000000000000000008152508152602001610b4b61170b565b8152602001610b5861175e565b9052825183906001908110610b6957fe5b9060200190602002018190525060e06040519081016040528060011515815260200160408051908101604052806008815260200160008051602061287483398151915281525081526020016040805190810160405280600681526020017f627574746f6e000000000000000000000000000000000000000000000000000081525081526020016001876040518082805190602001908083835b60208310610c215780518252601f199092019160209182019101610c02565b51815160209384036101000a60001901801990921691161790529201948552506040805194859003820185208582018252600880875260008051602061287483398151915293870193845291519095945092508291908083835b60208310610c9a5780518252601f199092019160209182019101610c7b565b518151600019602094850361010090810a820192831692199390931691909117909252949092019687526040805197889003820188208054601f6002600183161590980290950116959095049283018290048202880182019052818752929450925050830182828015610d4e5780601f10610d2357610100808354040283529160200191610d4e565b820191906000526020600020905b815481529060010190602001808311610d3157829003601f168201915b505050505081526020016040805190810160405280600481526020017f6e756c6c00000000000000000000000000000000000000000000000000000000815250815260200160a06040519081016040528060011515815260200187600160a060020a031681526020016040805190810160405280601981526020017f7472616e7366657228616464726573732c75696e74323536290000000000000081525081526020016040805190810160405280601581526020017f5b227265636569766572222c22616d6f756e74225d000000000000000000000081525081526020016001896040518082805190602001908083835b60208310610e5f5780518252601f199092019160209182019101610e40565b51815160209384036101000a6000190180199092169116179052920194855250604080519485900382018520858201825260108087527f7472616e736665725f636f6e6669726d0000000000000000000000000000000093870193845291519095945092508291908083835b60208310610eea5780518252601f199092019160209182019101610ecb565b518151600019602094850361010090810a820192831692199390931691909117909252949092019687526040805197889003820188208054601f6002600183161590980290950116959095049283018290048202880182019052818752929450925050830182828015610f9e5780601f10610f7357610100808354040283529160200191610f9e565b820191906000526020600020905b815481529060010190602001808311610f8157829003601f168201915b50505050508152508152602001610fb361175e565b9052825183906002908110610fc457fe5b9060200190602002018190525060a0604051908101604052806001876040518082805190602001908083835b6020831061100f5780518252601f199092019160209182019101610ff0565b51815160209384036101000a60001901801990921691161790529201948552506040805194859003820185208582018252600880875260008051602061287483398151915293870193845291519095945092508291908083835b602083106110885780518252601f199092019160209182019101611069565b518151600019602094850361010090810a820192831692199390931691909117909252949092019687526040805197889003820188208054601f600260018316159098029095011695909504928301829004820288018201905281875292945092505083018282801561113c5780601f106111115761010080835404028352916020019161113c565b820191906000526020600020905b81548152906001019060200180831161111f57829003601f168201915b505050505081526020016001876040518082805190602001908083835b602083106111785780518252601f199092019160209182019101611159565b51815160209384036101000a60001901801990921691161790529201948552506040805194859003820185208582018252600a8087527f73686f72745f646573630000000000000000000000000000000000000000000093870193845291519095945092508291908083835b602083106112035780518252601f1990920191602091820191016111e4565b518151600019602094850361010090810a820192831692199390931691909117909252949092019687526040805197889003820188208054601f60026001831615909802909501169590950492830182900482028801820190528187529294509250508301828280156112b75780601f1061128c576101008083540402835291602001916112b7565b820191906000526020600020905b81548152906001019060200180831161129a57829003601f168201915b505050505081526020016001876040518082805190602001908083835b602083106112f35780518252601f1990920191602091820191016112d4565b51815160209384036101000a6000190180199092169116179052920194855250604080519485900382018520858201825260098087527f6c6f6e675f64657363000000000000000000000000000000000000000000000093870193845291519095945092508291908083835b6020831061137e5780518252601f19909201916020918201910161135f565b518151600019602094850361010090810a820192831692199390931691909117909252949092019687526040805197889003820188208054601f60026001831615909802909501169590950492830182900482028801820190528187529294509250508301828280156114325780601f1061140757610100808354040283529160200191611432565b820191906000526020600020905b81548152906001019060200180831161141557829003601f168201915b5050505050815260200160048152602001838152509050611452816119ea565b925061146b565b60408051602081019091526000815292505b505092915050565b60408051808201909152600681527f616d6f756e740000000000000000000000000000000000000000000000000000602082015281565b600054600160a060020a031633146114c157600080fd5b806001846040518082805190602001908083835b602083106114f45780518252601f1990920191602091820191016114d5565b51815160209384036101000a6000190180199092169116179052920194855250604051938490038101842087519094889450925082918401908083835b602083106115505780518252601f199092019160209182019101611531565b51815160209384036101000a600019018019909216911617905292019485525060405193849003810190932084516115919591949190910192509050612740565b50505050565b600054600160a060020a031633146115ae57600080fd5b6115b781611c47565b50565b60606001836040518082805190602001908083835b602083106115ee5780518252601f1990920191602091820191016115cf565b51815160209384036101000a6000190180199092169116179052920194855250604051938490038101842086519094879450925082918401908083835b6020831061164a5780518252601f19909201916020918201910161162b565b518151600019602094850361010090810a820192831692199390931691909117909252949092019687526040805197889003820188208054601f60026001831615909802909501169590950492830182900482028801820190528187529294509250508301828280156116fe5780601f106116d3576101008083540402835291602001916116fe565b820191906000526020600020905b8154815290600101906020018083116116e157829003601f168201915b5050505050905092915050565b6117136127be565b506040805160a0810182526000808252602080830182905283518082018552828152838501528351808201855282815260608401528351908101909352825260808101919091525b90565b6117666127eb565b604080516060810182526000808252825181815260208181019094529192830191906117a8565b61179561280f565b81526020019060019003908161178d5790505b50815260200160006040519080825280602002602001820160405280156117e357816020015b60608152602001906001900390816117ce5790505b509052905090565b606080600081818515156118345760408051808201909152600181527f300000000000000000000000000000000000000000000000000000000000000060208201529450611941565b6040805160208082528183019092529080820161040080388339019050509350600092505b60008611156118a657600a860660300160f860020a02848481518110151561187d57fe5b906020010190600160f860020a031916908160001a905350600a86049550600190920191611859565b60408051848152601f19601f860116810160200190915260001984019380156118d9578160200160208202803883390190505b509150600090505b815181101561193d578351600019840193859181106118fc57fe5b90602001015160f860020a900460f860020a02828281518110151561191d57fe5b906020010190600160f860020a031916908160001a9053506001016118e1565b8194505b50505050919050565b611952612842565b50604080518082019091528151815260208281019082018190525b50919050565b606080600083600001518560000151016040519080825280601f01601f1916602001820160405280156119b0578160200160208202803883390190505b5091506020820190506119cc8186602001518760000151611cc4565b8451602085015185516119e29284019190611cc4565b509392505050565b60408051808201909152600a81527f7b227469746c65223a22000000000000000000000000000000000000000000006020820152815160609190600090611a3d90611a349061194a565b61097c8461194a565b9150611a80611a346040805190810160405280600f81526020017f222c2273686f727444657363223a22000000000000000000000000000000000081525061194a565b9150611a92611a34856020015161194a565b9150611ad5611a346040805190810160405280600e81526020017f222c226c6f6e6744657363223a2200000000000000000000000000000000000081525061194a565b9150611ae7611a34856040015161194a565b9150611b2a611a346040805190810160405280600a81526020017f222c227769647468223a0000000000000000000000000000000000000000000081525061194a565b9150611b3f611a3461093986606001516117eb565b9150611b82611a346040805190810160405280600d81526020017f2c22656c656d656e7473223a5b0000000000000000000000000000000000000081525061194a565b9150600090505b836080015151811015611bfe576000811115611bca57611bc7611a3460408051908101604052806001815260200160fa60020a600b0281525061194a565b91505b611bf4611a34610939866080015184815181101515611be557fe5b90602001906020020151611d08565b9150600101611b89565b611c3f611a346040805190810160405280600281526020017f5d7d00000000000000000000000000000000000000000000000000000000000081525061194a565b949350505050565b600160a060020a0381161515611c5c57600080fd5b60008054604051600160a060020a03808516939216917f8be0079c531659141344cd1fd0a4f28419497f9722a3daafe3b4186f6b6457e091a36000805473ffffffffffffffffffffffffffffffffffffffff1916600160a060020a0392909216919091179055565b60005b60208210611ce9578251845260209384019390920191601f1990910190611cc7565b50905182516020929092036101000a6000190180199091169116179052565b606080826000015115611fbb576040805190810160405280600781526020017f7b226964223a22000000000000000000000000000000000000000000000000008152509050611d66611d5d846020015161194a565b61097c8361194a565b9050611da9611d5d6040805190810160405280600181526020017f220000000000000000000000000000000000000000000000000000000000000081525061194a565b60a08401515190915015611e1057611df8611d5d6040805190810160405280600b81526020017f2c2022616374696f6e223a00000000000000000000000000000000000000000081525061194a565b9050611e0d611d5d6109398560a00151611ff6565b90505b60c08301515115611e7457611e5c611d5d6040805190810160405280600a81526020017f2c20227461626c65223a0000000000000000000000000000000000000000000081525061194a565b9050611e71611d5d6109398560c00151612199565b90505b611eb5611d5d6040805190810160405280600981526020017f2c2274797065223a22000000000000000000000000000000000000000000000081525061194a565b9050611ec7611d5d846040015161194a565b9050611f0a611d5d6040805190810160405280600b81526020017f222c226c6162656c223a2200000000000000000000000000000000000000000081525061194a565b9050611f1c611d5d846060015161194a565b9050611f5f611d5d6040805190810160405280600981526020017f222c2264617461223a000000000000000000000000000000000000000000000081525061194a565b9050611f71611d5d846080015161194a565b9050611fb4611d5d6040805190810160405280600181526020017f7d0000000000000000000000000000000000000000000000000000000000000081525061194a565b915061196d565b60408051808201909152600481527f6e756c6c000000000000000000000000000000000000000000000000000000006020820152915061196d565b606080826000015115611fbb576040805190810160405280600c81526020017f7b2261646472657373223a2200000000000000000000000000000000000000008152509050612057611d5d6109398560200151600160a060020a03166123b0565b905061209a611d5d6040805190810160405280601681526020017f222c2266756e6374696f6e53656c6563746f72223a220000000000000000000081525061194a565b90506120ac611d5d846040015161194a565b90506120ef611d5d6040805190810160405280600e81526020017f222c22617267756d656e7473223a00000000000000000000000000000000000081525061194a565b9050612101611d5d846060015161194a565b9050612144611d5d6040805190810160405280600c81526020017f2c22636f6e6669726d223a22000000000000000000000000000000000000000081525061194a565b9050612156611d5d846080015161194a565b9050611fb4611d5d6040805190810160405280600281526020017f227d00000000000000000000000000000000000000000000000000000000000081525061194a565b60608060008084600001511561237157505060408051808201909152600c81527f7b22636f6c756d6e73223a5b0000000000000000000000000000000000000000602082015290506000805b84602001515181101561226757600082111561222f5761222c61222360408051908101604052806001815260200160fa60020a600b0281525061194a565b61097c8561194a565b92505b61225961222361093987602001518481518110151561224a57fe5b906020019060200201516124f3565b9250600191820191016121e5565b6122a86122236040805190810160405280600a81526020017f5d2c22726f7773223a5b0000000000000000000000000000000000000000000081525061194a565b925060009150600090505b8460400151518110156123295760008211156122f4576122f161222360408051908101604052806001815260200160fa60020a600b0281525061194a565b92505b61231b61222386604001518381518110151561230c57fe5b9060200190602002015161194a565b9250600191820191016122b3565b61236a6122236040805190810160405280600281526020017f5d7d00000000000000000000000000000000000000000000000000000000000081525061194a565b93506123a8565b60408051808201909152600481527f6e756c6c00000000000000000000000000000000000000000000000000000000602082015293505b505050919050565b60408051602a80825260608083019093528291600091829182916020820161054080388339505081519195507f300000000000000000000000000000000000000000000000000000000000000091869150600090811061240c57fe5b906020010190600160f860020a031916908160001a90535083517f7800000000000000000000000000000000000000000000000000000000000000908590600190811061245557fe5b906020010190600160f860020a031916908160001a905350859250600091505b60288210156124e957506030600f8316016039600160a060020a038216111561249c576027015b8060f860020a0284836028036001018151811015156124b757fe5b906020010190600160f860020a031916908160001a9053506010600160a060020a038416049250600190910190612475565b5091949350505050565b606080826000015115611fbb576040805190810160405280600781526020017f7b226964223a22000000000000000000000000000000000000000000000000008152509050612548611d5d846020015161194a565b905061258b611d5d6040805190810160405280600181526020017f220000000000000000000000000000000000000000000000000000000000000081525061194a565b6080840151519091501561261c576125c1611d5d60408051908101604052806001815260200160fa60020a600b0281525061194a565b9050612604611d5d6040805190810160405280600981526020017f22616374696f6e223a000000000000000000000000000000000000000000000081525061194a565b9050612619611d5d6109398560800151611ff6565b90505b61265d611d5d6040805190810160405280600981526020017f2c2274797065223a22000000000000000000000000000000000000000000000081525061194a565b905061266f611d5d846040015161194a565b90506126b2611d5d6040805190810160405280600b81526020017f222c226c6162656c223a2200000000000000000000000000000000000000000081525061194a565b9050612156611d5d846060015161194a565b60a06040519081016040528060608152602001606081526020016060815260200160008152602001606081525090565b6101a0604051908101604052806000151581526020016060815260200160608152602001606081526020016060815260200161272e6127be565b815260200161273b6127eb565b905290565b828054600181600116156101000203166002900490600052602060002090601f016020900481019282601f1061278157805160ff19168380011785556127ae565b828001600101855582156127ae579182015b828111156127ae578251825591602001919060010190612793565b506127ba929150612859565b5090565b6040805160a081018252600080825260208201526060918101829052818101829052608081019190915290565b60606040519081016040528060001515815260200160608152602001606081525090565b6101206040519081016040528060001515815260200160608152602001606081526020016060815260200161273b6127be565b604080518082019091526000808252602082015290565b61175b91905b808211156127ba576000815560010161285f56007472616e73666572000000000000000000000000000000000000000000000000a165627a7a723058201dce72980235c0122c405991343fac14db515cab6738adb57118f9f92b0ecb7f0029",
  "source": "pragma solidity ^0.4.24;\n\nimport \"./ERC20TokenWidgetRenderer.sol\";\nimport \"tokenboost-solidity/contracts/utils/strings.sol\";\nimport \"tokenboost-solidity/contracts/widget/Widgets.sol\";\nimport \"zeppelin-solidity/contracts/token/ERC20/DetailedERC20.sol\";\n\ncontract TransferWidgetRenderer is ERC20TokenWidgetRenderer {\n    using strings for *;\n    using Widgets for Widgets.Widget;\n    using UintUtils for uint;\n\n    string public constant TRANSFER = \"transfer\";\n    string public constant SHORT_DESC = \"short_desc\";\n    string public constant LONG_DESC = \"long_desc\";\n    string public constant RECEIVER = \"receiver\";\n    string public constant AMOUNT = \"amount\";\n    string public constant TRANSFER_CONFIRM = \"transfer_confirm\";\n\n    function render(string _locale, ERC20Token _token) public view returns (string) {\n        if (_token.activated()) {\n            Elements.Element[] memory elements = new Elements.Element[](3);\n            elements[0] = Elements.Element(\n                true,\n                RECEIVER,\n                \"address\",\n                resources[_locale][RECEIVER],\n                '\"\"',\n                Actions.empty(),\n                Tables.empty()\n            );\n            elements[1] = Elements.Element(\n                true,\n                AMOUNT,\n                \"tokenEdit\".toSlice().concat(uint(_token.decimals()).toString().toSlice()),\n                resources[_locale][AMOUNT],\n                \"0\",\n                Actions.empty(),\n                Tables.empty()\n            );\n            elements[2] = Elements.Element(\n                true,\n                TRANSFER,\n                \"button\",\n                resources[_locale][TRANSFER],\n                \"null\",\n                Actions.Action(\n                    true,\n                    address(_token),\n                    \"transfer(address,uint256)\",\n                    '[\"receiver\",\"amount\"]',\n                    resources[_locale][TRANSFER_CONFIRM]\n                ),\n                Tables.empty()\n            );\n            Widgets.Widget memory widget = Widgets.Widget(\n                resources[_locale][TRANSFER],\n                resources[_locale][SHORT_DESC],\n                resources[_locale][LONG_DESC],\n                4,\n                elements\n            );\n            return widget.toJson();\n        } else {\n            return \"\";\n        }\n    }\n}\n",
  "sourcePath": "/Users/yoonjae/SolidityProjects/tokenboost-solidity-erc20token/contracts/token/erc20/widget/TransferWidgetRenderer.sol",
  "compiler": {
    "name": "solc",
    "version": "0.4.24+commit.e67f0147.Emscripten.clang"
  },
  "schemaVersion": "2.0.1",
  "updatedAt": "2018-09-20T22:21:15.510Z"
}