{
  "contractName": "UnpauseWidgetRenderer",
  "abi": [
    {
      "constant": true,
      "inputs": [],
      "name": "UNPAUSE_CONFIRM",
      "outputs": [
        {
          "name": "",
          "type": "string"
        }
      ],
      "payable": false,
      "stateMutability": "view",
      "type": "function"
    },
    {
      "constant": false,
      "inputs": [],
      "name": "renounceOwnership",
      "outputs": [],
      "payable": false,
      "stateMutability": "nonpayable",
      "type": "function"
    },
    {
      "constant": true,
      "inputs": [],
      "name": "SHORT_DESC",
      "outputs": [
        {
          "name": "",
          "type": "string"
        }
      ],
      "payable": false,
      "stateMutability": "view",
      "type": "function"
    },
    {
      "constant": true,
      "inputs": [],
      "name": "owner",
      "outputs": [
        {
          "name": "",
          "type": "address"
        }
      ],
      "payable": false,
      "stateMutability": "view",
      "type": "function"
    },
    {
      "constant": true,
      "inputs": [],
      "name": "UNPAUSE",
      "outputs": [
        {
          "name": "",
          "type": "string"
        }
      ],
      "payable": false,
      "stateMutability": "view",
      "type": "function"
    },
    {
      "constant": true,
      "inputs": [],
      "name": "LONG_DESC",
      "outputs": [
        {
          "name": "",
          "type": "string"
        }
      ],
      "payable": false,
      "stateMutability": "view",
      "type": "function"
    },
    {
      "constant": false,
      "inputs": [
        {
          "name": "locale",
          "type": "string"
        },
        {
          "name": "key",
          "type": "string"
        },
        {
          "name": "value",
          "type": "string"
        }
      ],
      "name": "setResource",
      "outputs": [],
      "payable": false,
      "stateMutability": "nonpayable",
      "type": "function"
    },
    {
      "constant": false,
      "inputs": [
        {
          "name": "_newOwner",
          "type": "address"
        }
      ],
      "name": "transferOwnership",
      "outputs": [],
      "payable": false,
      "stateMutability": "nonpayable",
      "type": "function"
    },
    {
      "constant": true,
      "inputs": [
        {
          "name": "locale",
          "type": "string"
        },
        {
          "name": "key",
          "type": "string"
        }
      ],
      "name": "resource",
      "outputs": [
        {
          "name": "",
          "type": "string"
        }
      ],
      "payable": false,
      "stateMutability": "view",
      "type": "function"
    },
    {
      "anonymous": false,
      "inputs": [
        {
          "indexed": true,
          "name": "previousOwner",
          "type": "address"
        }
      ],
      "name": "OwnershipRenounced",
      "type": "event"
    },
    {
      "anonymous": false,
      "inputs": [
        {
          "indexed": true,
          "name": "previousOwner",
          "type": "address"
        },
        {
          "indexed": true,
          "name": "newOwner",
          "type": "address"
        }
      ],
      "name": "OwnershipTransferred",
      "type": "event"
    },
    {
      "constant": true,
      "inputs": [
        {
          "name": "_locale",
          "type": "string"
        },
        {
          "name": "_token",
          "type": "address"
        }
      ],
      "name": "render",
      "outputs": [
        {
          "name": "",
          "type": "string"
        }
      ],
      "payable": false,
      "stateMutability": "view",
      "type": "function"
    }
  ],
  "bytecode": "0x608060405260008054600160a060020a031916331790556122c5806100256000396000f30060806040526004361061008a5763ffffffff60e060020a6000350416636cfb2587811461008f578063715018a6146101195780638b582712146101305780638da5cb5b146101455780638f39146614610176578063ac5c6e121461018b578063ca1a70be146101a0578063ed3487fe14610204578063f2fde38b146102d9578063f65a5c1b146102fa575b600080fd5b34801561009b57600080fd5b506100a4610391565b6040805160208082528351818301528351919283929083019185019080838360005b838110156100de5781810151838201526020016100c6565b50505050905090810190601f16801561010b5780820380516001836020036101000a031916815260200191505b509250505060405180910390f35b34801561012557600080fd5b5061012e6103c8565b005b34801561013c57600080fd5b506100a4610434565b34801561015157600080fd5b5061015a61046b565b60408051600160a060020a039092168252519081900360200190f35b34801561018257600080fd5b506100a461047a565b34801561019757600080fd5b506100a461049f565b3480156101ac57600080fd5b506040805160206004803580820135601f81018490048402850184019095528484526100a494369492936024939284019190819084018382808284375094975050509235600160a060020a031693506104d692505050565b34801561021057600080fd5b506040805160206004803580820135601f810184900484028501840190955284845261012e94369492936024939284019190819084018382808284375050604080516020601f89358b018035918201839004830284018301909452808352979a99988101979196509182019450925082915084018382808284375050604080516020601f89358b018035918201839004830284018301909452808352979a999881019791965091820194509250829150840183828082843750949750610ef19650505050505050565b3480156102e557600080fd5b5061012e600160a060020a0360043516610fde565b34801561030657600080fd5b506040805160206004803580820135601f81018490048402850184019095528484526100a494369492936024939284019190819084018382808284375050604080516020601f89358b018035918201839004830284018301909452808352979a9998810197919650918201945092508291508401838280828437509497506110019650505050505050565b60408051808201909152600f81527f756e70617573655f636f6e6669726d0000000000000000000000000000000000602082015281565b600054600160a060020a031633146103df57600080fd5b60008054604051600160a060020a03909116917ff8df31144d9c2f0f6b59d69b8b98abd5459d07f2742c4df920b25aae33c6482091a26000805473ffffffffffffffffffffffffffffffffffffffff19169055565b60408051808201909152600a81527f73686f72745f6465736300000000000000000000000000000000000000000000602082015281565b600054600160a060020a031681565b604080518082019091526007815260008051602061227a833981519152602082015281565b60408051808201909152600981527f6c6f6e675f646573630000000000000000000000000000000000000000000000602082015281565b6060806104e16120ca565b83600160a060020a0316635c975abb6040518163ffffffff1660e060020a028152600401602060405180830381600087803b15801561051f57600080fd5b505af1158015610533573d6000803e3d6000fd5b505050506040513d602081101561054957600080fd5b505180156105bd575083600160a060020a031663186601ca6040518163ffffffff1660e060020a028152600401602060405180830381600087803b15801561059057600080fd5b505af11580156105a4573d6000803e3d6000fd5b505050506040513d60208110156105ba57600080fd5b50515b15610ed75760408051600180825281830190925290816020015b6105df6120fa565b8152602001906001900390816105d757905050915060e06040519081016040528060011515815260200160408051908101604052806007815260200160008051602061227a83398151915281525081526020016040805190810160405280600681526020017f627574746f6e000000000000000000000000000000000000000000000000000081525081526020016001876040518082805190602001908083835b6020831061069f5780518252601f199092019160209182019101610680565b51815160209384036101000a60001901801990921691161790529201948552506040805194859003820185208582018252600780875260008051602061227a83398151915293870193845291519095945092508291908083835b602083106107185780518252601f1990920191602091820191016106f9565b518151600019602094850361010090810a820192831692199390931691909117909252949092019687526040805197889003820188208054601f60026001831615909802909501169590950492830182900482028801820190528187529294509250508301828280156107cc5780601f106107a1576101008083540402835291602001916107cc565b820191906000526020600020905b8154815290600101906020018083116107af57829003601f168201915b505050505081526020016040805190810160405280600481526020017f6e756c6c00000000000000000000000000000000000000000000000000000000815250815260200160a06040519081016040528060011515815260200187600160a060020a031681526020016040805190810160405280600981526020017f756e70617573652829000000000000000000000000000000000000000000000081525081526020016040805190810160405280600281526020017f5b5d00000000000000000000000000000000000000000000000000000000000081525081526020016001896040518082805190602001908083835b602083106108dd5780518252601f1990920191602091820191016108be565b51815160209384036101000a60001901801990921691161790529201948552506040805194859003820185208582018252600f8087527f756e70617573655f636f6e6669726d000000000000000000000000000000000093870193845291519095945092508291908083835b602083106109685780518252601f199092019160209182019101610949565b518151600019602094850361010090810a820192831692199390931691909117909252949092019687526040805197889003820188208054601f6002600183161590980290950116959095049283018290048202880182019052818752929450925050830182828015610a1c5780601f106109f157610100808354040283529160200191610a1c565b820191906000526020600020905b8154815290600101906020018083116109ff57829003601f168201915b50505050508152508152602001610a31611152565b9052825183906000908110610a4257fe5b9060200190602002018190525060a0604051908101604052806001876040518082805190602001908083835b60208310610a8d5780518252601f199092019160209182019101610a6e565b51815160209384036101000a60001901801990921691161790529201948552506040805194859003820185208582018252600780875260008051602061227a83398151915293870193845291519095945092508291908083835b60208310610b065780518252601f199092019160209182019101610ae7565b518151600019602094850361010090810a820192831692199390931691909117909252949092019687526040805197889003820188208054601f6002600183161590980290950116959095049283018290048202880182019052818752929450925050830182828015610bba5780601f10610b8f57610100808354040283529160200191610bba565b820191906000526020600020905b815481529060010190602001808311610b9d57829003601f168201915b505050505081526020016001876040518082805190602001908083835b60208310610bf65780518252601f199092019160209182019101610bd7565b51815160209384036101000a60001901801990921691161790529201948552506040805194859003820185208582018252600a8087527f73686f72745f646573630000000000000000000000000000000000000000000093870193845291519095945092508291908083835b60208310610c815780518252601f199092019160209182019101610c62565b518151600019602094850361010090810a820192831692199390931691909117909252949092019687526040805197889003820188208054601f6002600183161590980290950116959095049283018290048202880182019052818752929450925050830182828015610d355780601f10610d0a57610100808354040283529160200191610d35565b820191906000526020600020905b815481529060010190602001808311610d1857829003601f168201915b505050505081526020016001876040518082805190602001908083835b60208310610d715780518252601f199092019160209182019101610d52565b51815160209384036101000a6000190180199092169116179052920194855250604080519485900382018520858201825260098087527f6c6f6e675f64657363000000000000000000000000000000000000000000000093870193845291519095945092508291908083835b60208310610dfc5780518252601f199092019160209182019101610ddd565b518151600019602094850361010090810a820192831692199390931691909117909252949092019687526040805197889003820188208054601f6002600183161590980290950116959095049283018290048202880182019052818752929450925050830182828015610eb05780601f10610e8557610100808354040283529160200191610eb0565b820191906000526020600020905b815481529060010190602001808311610e9357829003601f168201915b5050505050815260200160048152602001838152509050610ed0816111e0565b9250610ee9565b60408051602081019091526000815292505b505092915050565b600054600160a060020a03163314610f0857600080fd5b806001846040518082805190602001908083835b60208310610f3b5780518252601f199092019160209182019101610f1c565b51815160209384036101000a6000190180199092169116179052920194855250604051938490038101842087519094889450925082918401908083835b60208310610f975780518252601f199092019160209182019101610f78565b51815160209384036101000a60001901801990921691161790529201948552506040519384900381019093208451610fd89591949190910192509050612146565b50505050565b600054600160a060020a03163314610ff557600080fd5b610ffe8161144e565b50565b60606001836040518082805190602001908083835b602083106110355780518252601f199092019160209182019101611016565b51815160209384036101000a6000190180199092169116179052920194855250604051938490038101842086519094879450925082918401908083835b602083106110915780518252601f199092019160209182019101611072565b518151600019602094850361010090810a820192831692199390931691909117909252949092019687526040805197889003820188208054601f60026001831615909802909501169590950492830182900482028801820190528187529294509250508301828280156111455780601f1061111a57610100808354040283529160200191611145565b820191906000526020600020905b81548152906001019060200180831161112857829003601f168201915b5050505050905092915050565b61115a6121c4565b6040805160608101825260008082528251818152602081810190945291928301919061119c565b6111896121e8565b8152602001906001900390816111815790505b50815260200160006040519080825280602002602001820160405280156111d757816020015b60608152602001906001900390816111c25790505b50905290505b90565b60408051808201909152600a81527f7b227469746c65223a2200000000000000000000000000000000000000000000602082015281516060919060009061123f9061122a906114cb565b611233846114cb565b9063ffffffff6114f416565b915061128261122a6040805190810160405280600f81526020017f222c2273686f727444657363223a2200000000000000000000000000000000008152506114cb565b915061129461122a85602001516114cb565b91506112d761122a6040805190810160405280600e81526020017f222c226c6f6e6744657363223a220000000000000000000000000000000000008152506114cb565b91506112e961122a85604001516114cb565b915061132c61122a6040805190810160405280600a81526020017f222c227769647468223a000000000000000000000000000000000000000000008152506114cb565b915061134661122a611341866060015161156b565b6114cb565b915061138961122a6040805190810160405280600d81526020017f2c22656c656d656e7473223a5b000000000000000000000000000000000000008152506114cb565b9150600090505b8360800151518110156114055760008111156113d1576113ce61122a60408051908101604052806001815260200160fa60020a600b028152506114cb565b91505b6113fb61122a6113418660800151848151811015156113ec57fe5b906020019060200201516116ca565b9150600101611390565b61144661122a6040805190810160405280600281526020017f5d7d0000000000000000000000000000000000000000000000000000000000008152506114cb565b949350505050565b600160a060020a038116151561146357600080fd5b60008054604051600160a060020a03808516939216917f8be0079c531659141344cd1fd0a4f28419497f9722a3daafe3b4186f6b6457e091a36000805473ffffffffffffffffffffffffffffffffffffffff1916600160a060020a0392909216919091179055565b6114d361221b565b50604080518082019091528151815260208281019082018190525b50919050565b606080600083600001518560000151016040519080825280601f01601f191660200182016040528015611531578160200160208202803883390190505b50915060208201905061154d81866020015187600001516119b8565b84516020850151855161156392840191906119b8565b509392505050565b606080600081818515156115b45760408051808201909152600181527f3000000000000000000000000000000000000000000000000000000000000000602082015294506116c1565b6040805160208082528183019092529080820161040080388339019050509350600092505b600086111561162657600a860660300160f860020a0284848151811015156115fd57fe5b906020010190600160f860020a031916908160001a905350600a860495506001909201916115d9565b60408051848152601f19601f86011681016020019091526000198401938015611659578160200160208202803883390190505b509150600090505b81518110156116bd5783516000198401938591811061167c57fe5b90602001015160f860020a900460f860020a02828281518110151561169d57fe5b906020010190600160f860020a031916908160001a905350600101611661565b8194505b50505050919050565b60608082600001511561197d576040805190810160405280600781526020017f7b226964223a2200000000000000000000000000000000000000000000000000815250905061172861171f84602001516114cb565b611233836114cb565b905061176b61171f6040805190810160405280600181526020017f22000000000000000000000000000000000000000000000000000000000000008152506114cb565b60a084015151909150156117d2576117ba61171f6040805190810160405280600b81526020017f2c2022616374696f6e223a0000000000000000000000000000000000000000008152506114cb565b90506117cf61171f6113418560a001516119fc565b90505b60c083015151156118365761181e61171f6040805190810160405280600a81526020017f2c20227461626c65223a000000000000000000000000000000000000000000008152506114cb565b905061183361171f6113418560c00151611b9f565b90505b61187761171f6040805190810160405280600981526020017f2c2274797065223a2200000000000000000000000000000000000000000000008152506114cb565b905061188961171f84604001516114cb565b90506118cc61171f6040805190810160405280600b81526020017f222c226c6162656c223a220000000000000000000000000000000000000000008152506114cb565b90506118de61171f84606001516114cb565b905061192161171f6040805190810160405280600981526020017f222c2264617461223a00000000000000000000000000000000000000000000008152506114cb565b905061193361171f84608001516114cb565b905061197661171f6040805190810160405280600181526020017f7d000000000000000000000000000000000000000000000000000000000000008152506114cb565b91506114ee565b60408051808201909152600481527f6e756c6c00000000000000000000000000000000000000000000000000000000602082015291506114ee565b60005b602082106119dd578251845260209384019390920191601f19909101906119bb565b50905182516020929092036101000a6000190180199091169116179052565b60608082600001511561197d576040805190810160405280600c81526020017f7b2261646472657373223a2200000000000000000000000000000000000000008152509050611a5d61171f6113418560200151600160a060020a0316611db6565b9050611aa061171f6040805190810160405280601681526020017f222c2266756e6374696f6e53656c6563746f72223a22000000000000000000008152506114cb565b9050611ab261171f84604001516114cb565b9050611af561171f6040805190810160405280600e81526020017f222c22617267756d656e7473223a0000000000000000000000000000000000008152506114cb565b9050611b0761171f84606001516114cb565b9050611b4a61171f6040805190810160405280600c81526020017f2c22636f6e6669726d223a2200000000000000000000000000000000000000008152506114cb565b9050611b5c61171f84608001516114cb565b905061197661171f6040805190810160405280600281526020017f227d0000000000000000000000000000000000000000000000000000000000008152506114cb565b606080600080846000015115611d7757505060408051808201909152600c81527f7b22636f6c756d6e73223a5b0000000000000000000000000000000000000000602082015290506000805b846020015151811015611c6d576000821115611c3557611c32611c2960408051908101604052806001815260200160fa60020a600b028152506114cb565b611233856114cb565b92505b611c5f611c29611341876020015184815181101515611c5057fe5b90602001906020020151611ef9565b925060019182019101611beb565b611cae611c296040805190810160405280600a81526020017f5d2c22726f7773223a5b000000000000000000000000000000000000000000008152506114cb565b925060009150600090505b846040015151811015611d2f576000821115611cfa57611cf7611c2960408051908101604052806001815260200160fa60020a600b028152506114cb565b92505b611d21611c29866040015183815181101515611d1257fe5b906020019060200201516114cb565b925060019182019101611cb9565b611d70611c296040805190810160405280600281526020017f5d7d0000000000000000000000000000000000000000000000000000000000008152506114cb565b9350611dae565b60408051808201909152600481527f6e756c6c00000000000000000000000000000000000000000000000000000000602082015293505b505050919050565b60408051602a80825260608083019093528291600091829182916020820161054080388339505081519195507f3000000000000000000000000000000000000000000000000000000000000000918691506000908110611e1257fe5b906020010190600160f860020a031916908160001a90535083517f78000000000000000000000000000000000000000000000000000000000000009085906001908110611e5b57fe5b906020010190600160f860020a031916908160001a905350859250600091505b6028821015611eef57506030600f8316016039600160a060020a0382161115611ea2576027015b8060f860020a028483602803600101815181101515611ebd57fe5b906020010190600160f860020a031916908160001a9053506010600160a060020a038416049250600190910190611e7b565b5091949350505050565b60608082600001511561197d576040805190810160405280600781526020017f7b226964223a22000000000000000000000000000000000000000000000000008152509050611f4e61171f84602001516114cb565b9050611f9161171f6040805190810160405280600181526020017f22000000000000000000000000000000000000000000000000000000000000008152506114cb565b6080840151519091501561202257611fc761171f60408051908101604052806001815260200160fa60020a600b028152506114cb565b905061200a61171f6040805190810160405280600981526020017f22616374696f6e223a00000000000000000000000000000000000000000000008152506114cb565b905061201f61171f61134185608001516119fc565b90505b61206361171f6040805190810160405280600981526020017f2c2274797065223a2200000000000000000000000000000000000000000000008152506114cb565b905061207561171f84604001516114cb565b90506120b861171f6040805190810160405280600b81526020017f222c226c6162656c223a220000000000000000000000000000000000000000008152506114cb565b9050611b5c61171f84606001516114cb565b60a06040519081016040528060608152602001606081526020016060815260200160008152602001606081525090565b6101a06040519081016040528060001515815260200160608152602001606081526020016060815260200160608152602001612134612232565b81526020016121416121c4565b905290565b828054600181600116156101000203166002900490600052602060002090601f016020900481019282601f1061218757805160ff19168380011785556121b4565b828001600101855582156121b4579182015b828111156121b4578251825591602001919060010190612199565b506121c092915061225f565b5090565b60606040519081016040528060001515815260200160608152602001606081525090565b61012060405190810160405280600015158152602001606081526020016060815260200160608152602001612141612232565b604080518082019091526000808252602082015290565b6040805160a081018252600080825260208201526060918101829052818101829052608081019190915290565b6111dd91905b808211156121c057600081556001016122655600756e706175736500000000000000000000000000000000000000000000000000a165627a7a72305820aad032c441f1cad8ddaf85fa42d651d0d681c0e56fb3f8fb88a552d67cff6ea80029",
  "source": "pragma solidity ^0.4.24;\n\nimport \"./ERC20TokenWidgetRenderer.sol\";\nimport \"tokenboost-solidity/contracts/widget/Widgets.sol\";\n\ncontract UnpauseWidgetRenderer is ERC20TokenWidgetRenderer {\n    using Widgets for Widgets.Widget;\n\n    string public constant UNPAUSE = \"unpause\";\n    string public constant SHORT_DESC = \"short_desc\";\n    string public constant LONG_DESC = \"long_desc\";\n    string public constant UNPAUSE_CONFIRM = \"unpause_confirm\";\n\n    function render(string _locale, ERC20Token _token) public view returns (string) {\n        if (_token.paused() && _token.activated()) {\n            Elements.Element[] memory elements = new Elements.Element[](1);\n            elements[0] = Elements.Element(\n                true,\n                UNPAUSE,\n                \"button\",\n                resources[_locale][UNPAUSE],\n                \"null\",\n                Actions.Action(\n                    true,\n                    address(_token),\n                    \"unpause()\",\n                    '[]',\n                    resources[_locale][UNPAUSE_CONFIRM]\n                ),\n                Tables.empty()\n            );\n            Widgets.Widget memory widget = Widgets.Widget(\n                resources[_locale][UNPAUSE],\n                resources[_locale][SHORT_DESC],\n                resources[_locale][LONG_DESC],\n                4,\n                elements\n            );\n            return widget.toJson();\n        } else {\n            return \"\";\n        }\n    }\n}\n",
  "sourcePath": "/Users/yoonjae/SolidityProjects/tokenboost-solidity-erc20token/contracts/token/erc20/widget/UnpauseWidgetRenderer.sol",
  "compiler": {
    "name": "solc",
    "version": "0.4.24+commit.e67f0147.Emscripten.clang"
  },
  "schemaVersion": "2.0.1",
  "updatedAt": "2018-09-20T22:21:15.506Z"
}